{
	"contracts/Multisig.sol": {
		"MultiSigWallet": {
			"abi": [
				{
					"inputs": [
						{
							"internalType": "address[]",
							"name": "_owners",
							"type": "address[]"
						},
						{
							"internalType": "uint256",
							"name": "_required",
							"type": "uint256"
						}
					],
					"stateMutability": "nonpayable",
					"type": "constructor"
				},
				{
					"anonymous": false,
					"inputs": [
						{
							"indexed": false,
							"internalType": "address",
							"name": "owner",
							"type": "address"
						},
						{
							"indexed": false,
							"internalType": "uint256",
							"name": "txId",
							"type": "uint256"
						}
					],
					"name": "Approve",
					"type": "event"
				},
				{
					"anonymous": false,
					"inputs": [
						{
							"indexed": false,
							"internalType": "address",
							"name": "sender",
							"type": "address"
						},
						{
							"indexed": false,
							"internalType": "uint256",
							"name": "amount",
							"type": "uint256"
						},
						{
							"indexed": false,
							"internalType": "uint256",
							"name": "balance",
							"type": "uint256"
						}
					],
					"name": "Deposit",
					"type": "event"
				},
				{
					"anonymous": false,
					"inputs": [
						{
							"indexed": false,
							"internalType": "address",
							"name": "executer",
							"type": "address"
						},
						{
							"indexed": false,
							"internalType": "uint256",
							"name": "txId",
							"type": "uint256"
						}
					],
					"name": "Execute",
					"type": "event"
				},
				{
					"anonymous": false,
					"inputs": [
						{
							"indexed": false,
							"internalType": "address",
							"name": "owner",
							"type": "address"
						},
						{
							"indexed": false,
							"internalType": "uint256",
							"name": "txId",
							"type": "uint256"
						}
					],
					"name": "Revoke",
					"type": "event"
				},
				{
					"anonymous": false,
					"inputs": [
						{
							"indexed": false,
							"internalType": "uint256",
							"name": "txId",
							"type": "uint256"
						}
					],
					"name": "Submit",
					"type": "event"
				},
				{
					"inputs": [
						{
							"internalType": "uint256",
							"name": "",
							"type": "uint256"
						},
						{
							"internalType": "address",
							"name": "",
							"type": "address"
						}
					],
					"name": "approved",
					"outputs": [
						{
							"internalType": "bool",
							"name": "",
							"type": "bool"
						}
					],
					"stateMutability": "view",
					"type": "function"
				},
				{
					"inputs": [
						{
							"internalType": "address",
							"name": "",
							"type": "address"
						}
					],
					"name": "isOwner",
					"outputs": [
						{
							"internalType": "bool",
							"name": "",
							"type": "bool"
						}
					],
					"stateMutability": "view",
					"type": "function"
				},
				{
					"inputs": [
						{
							"internalType": "uint256",
							"name": "",
							"type": "uint256"
						}
					],
					"name": "owners",
					"outputs": [
						{
							"internalType": "address",
							"name": "",
							"type": "address"
						}
					],
					"stateMutability": "view",
					"type": "function"
				},
				{
					"inputs": [],
					"name": "required",
					"outputs": [
						{
							"internalType": "uint256",
							"name": "",
							"type": "uint256"
						}
					],
					"stateMutability": "view",
					"type": "function"
				},
				{
					"inputs": [
						{
							"internalType": "address",
							"name": "_to",
							"type": "address"
						},
						{
							"internalType": "uint256",
							"name": "_value",
							"type": "uint256"
						},
						{
							"internalType": "bytes",
							"name": "_data",
							"type": "bytes"
						}
					],
					"name": "submit",
					"outputs": [],
					"stateMutability": "nonpayable",
					"type": "function"
				},
				{
					"inputs": [
						{
							"internalType": "uint256",
							"name": "",
							"type": "uint256"
						}
					],
					"name": "transactions",
					"outputs": [
						{
							"internalType": "address",
							"name": "to",
							"type": "address"
						},
						{
							"internalType": "uint256",
							"name": "value",
							"type": "uint256"
						},
						{
							"internalType": "bytes",
							"name": "data",
							"type": "bytes"
						},
						{
							"internalType": "bool",
							"name": "executed",
							"type": "bool"
						}
					],
					"stateMutability": "view",
					"type": "function"
				},
				{
					"stateMutability": "payable",
					"type": "receive"
				}
			],
			"devdoc": {
				"kind": "dev",
				"methods": {},
				"version": 1
			},
			"evm": {
				"assembly": "    /* \"contracts/Multisig.sol\":59:2843  contract MultiSigWallet {\r... */\n  mstore(0x40, 0x80)\n    /* \"contracts/Multisig.sol\":1489:2172  constructor(address[] memory _owners, uint _required) {\r... */\n  callvalue\n  dup1\n  iszero\n  tag_1\n  jumpi\n  0x00\n  dup1\n  revert\ntag_1:\n  pop\n  mload(0x40)\n  sub(codesize, bytecodeSize)\n  dup1\n  bytecodeSize\n  dup4\n  codecopy\n  dup2\n  dup2\n  add\n  0x40\n  mstore\n  dup2\n  add\n  swap1\n  tag_2\n  swap2\n  swap1\n  tag_3\n  jump\t// in\ntag_2:\n    /* \"contracts/Multisig.sol\":1579:1580  0 */\n  0x00\n    /* \"contracts/Multisig.sol\":1562:1569  _owners */\n  dup3\n    /* \"contracts/Multisig.sol\":1562:1576  _owners.length */\n  mload\n    /* \"contracts/Multisig.sol\":1562:1580  _owners.length > 0 */\n  gt\n    /* \"contracts/Multisig.sol\":1554:1600  require(_owners.length > 0, \"owners required\") */\n  tag_6\n  jumpi\n  mload(0x40)\n  0x08c379a000000000000000000000000000000000000000000000000000000000\n  dup2\n  mstore\n  0x04\n  add\n  tag_7\n  swap1\n  tag_8\n  jump\t// in\ntag_7:\n  mload(0x40)\n  dup1\n  swap2\n  sub\n  swap1\n  revert\ntag_6:\n    /* \"contracts/Multisig.sol\":1631:1632  0 */\n  0x00\n    /* \"contracts/Multisig.sol\":1620:1628  required */\n  sload(0x02)\n    /* \"contracts/Multisig.sol\":1620:1632  required > 0 */\n  gt\n    /* \"contracts/Multisig.sol\":1620:1663  required > 0 && _required <= _owners.length */\n  dup1\n  iszero\n  tag_9\n  jumpi\n  pop\n    /* \"contracts/Multisig.sol\":1649:1656  _owners */\n  dup2\n    /* \"contracts/Multisig.sol\":1649:1663  _owners.length */\n  mload\n    /* \"contracts/Multisig.sol\":1636:1645  _required */\n  dup2\n    /* \"contracts/Multisig.sol\":1636:1663  _required <= _owners.length */\n  gt\n  iszero\n    /* \"contracts/Multisig.sol\":1620:1663  required > 0 && _required <= _owners.length */\ntag_9:\n    /* \"contracts/Multisig.sol\":1611:1692  require( required > 0 && _required <= _owners.length, \"Invalid number of owners\") */\n  tag_10\n  jumpi\n  mload(0x40)\n  0x08c379a000000000000000000000000000000000000000000000000000000000\n  dup2\n  mstore\n  0x04\n  add\n  tag_11\n  swap1\n  tag_12\n  jump\t// in\ntag_11:\n  mload(0x40)\n  dup1\n  swap2\n  sub\n  swap1\n  revert\ntag_10:\n    /* \"contracts/Multisig.sol\":1778:1784  uint i */\n  0x00\n    /* \"contracts/Multisig.sol\":1773:2132  for (uint i; i < _owners.length; i++) {\r... */\ntag_13:\n    /* \"contracts/Multisig.sol\":1790:1797  _owners */\n  dup3\n    /* \"contracts/Multisig.sol\":1790:1804  _owners.length */\n  mload\n    /* \"contracts/Multisig.sol\":1786:1787  i */\n  dup2\n    /* \"contracts/Multisig.sol\":1786:1804  i < _owners.length */\n  lt\n    /* \"contracts/Multisig.sol\":1773:2132  for (uint i; i < _owners.length; i++) {\r... */\n  iszero\n  tag_14\n  jumpi\n    /* \"contracts/Multisig.sol\":1826:1839  address owner */\n  0x00\n    /* \"contracts/Multisig.sol\":1842:1849  _owners */\n  dup4\n    /* \"contracts/Multisig.sol\":1850:1851  i */\n  dup3\n    /* \"contracts/Multisig.sol\":1842:1852  _owners[i] */\n  dup2\n  mload\n  dup2\n  lt\n  tag_16\n  jumpi\n  tag_17\n  tag_18\n  jump\t// in\ntag_17:\ntag_16:\n  0x20\n  mul\n  0x20\n  add\n  add\n  mload\n    /* \"contracts/Multisig.sol\":1826:1852  address owner = _owners[i] */\n  swap1\n  pop\n    /* \"contracts/Multisig.sol\":1892:1893  0 */\n  0x00\n    /* \"contracts/Multisig.sol\":1875:1894  owner != address(0) */\n  0xffffffffffffffffffffffffffffffffffffffff\n  and\n    /* \"contracts/Multisig.sol\":1875:1880  owner */\n  dup2\n    /* \"contracts/Multisig.sol\":1875:1894  owner != address(0) */\n  0xffffffffffffffffffffffffffffffffffffffff\n  and\n  eq\n  iszero\n    /* \"contracts/Multisig.sol\":1867:1912  require(owner != address(0), \"Invalid owner\") */\n  tag_19\n  jumpi\n  mload(0x40)\n  0x08c379a000000000000000000000000000000000000000000000000000000000\n  dup2\n  mstore\n  0x04\n  add\n  tag_20\n  swap1\n  tag_21\n  jump\t// in\ntag_20:\n  mload(0x40)\n  dup1\n  swap2\n  sub\n  swap1\n  revert\ntag_19:\n    /* \"contracts/Multisig.sol\":1959:1966  isOwner */\n  0x01\n    /* \"contracts/Multisig.sol\":1959:1973  isOwner[owner] */\n  0x00\n    /* \"contracts/Multisig.sol\":1967:1972  owner */\n  dup3\n    /* \"contracts/Multisig.sol\":1959:1973  isOwner[owner] */\n  0xffffffffffffffffffffffffffffffffffffffff\n  and\n  0xffffffffffffffffffffffffffffffffffffffff\n  and\n  dup2\n  mstore\n  0x20\n  add\n  swap1\n  dup2\n  mstore\n  0x20\n  add\n  0x00\n  keccak256\n  0x00\n  swap1\n  sload\n  swap1\n  0x0100\n  exp\n  swap1\n  div\n  0xff\n  and\n    /* \"contracts/Multisig.sol\":1958:1973  !isOwner[owner] */\n  iszero\n    /* \"contracts/Multisig.sol\":1950:1996  require(!isOwner[owner],\"owner is not unique\") */\n  tag_22\n  jumpi\n  mload(0x40)\n  0x08c379a000000000000000000000000000000000000000000000000000000000\n  dup2\n  mstore\n  0x04\n  add\n  tag_23\n  swap1\n  tag_24\n  jump\t// in\ntag_23:\n  mload(0x40)\n  dup1\n  swap2\n  sub\n  swap1\n  revert\ntag_22:\n    /* \"contracts/Multisig.sol\":2083:2087  true */\n  0x01\n    /* \"contracts/Multisig.sol\":2066:2073  isOwner */\n  dup1\n    /* \"contracts/Multisig.sol\":2066:2080  isOwner[owner] */\n  0x00\n    /* \"contracts/Multisig.sol\":2074:2079  owner */\n  dup4\n    /* \"contracts/Multisig.sol\":2066:2080  isOwner[owner] */\n  0xffffffffffffffffffffffffffffffffffffffff\n  and\n  0xffffffffffffffffffffffffffffffffffffffff\n  and\n  dup2\n  mstore\n  0x20\n  add\n  swap1\n  dup2\n  mstore\n  0x20\n  add\n  0x00\n  keccak256\n  0x00\n    /* \"contracts/Multisig.sol\":2066:2087  isOwner[owner] = true */\n  0x0100\n  exp\n  dup2\n  sload\n  dup2\n  0xff\n  mul\n  not\n  and\n  swap1\n  dup4\n  iszero\n  iszero\n  mul\n  or\n  swap1\n  sstore\n  pop\n    /* \"contracts/Multisig.sol\":2102:2108  owners */\n  0x00\n    /* \"contracts/Multisig.sol\":2114:2119  owner */\n  dup2\n    /* \"contracts/Multisig.sol\":2102:2120  owners.push(owner) */\n  swap1\n  dup1\n  0x01\n  dup2\n  sload\n  add\n  dup1\n  dup3\n  sstore\n  dup1\n  swap2\n  pop\n  pop\n  0x01\n  swap1\n  sub\n  swap1\n  0x00\n  mstore\n  keccak256(0x00, 0x20)\n  add\n  0x00\n  swap1\n  swap2\n  swap1\n  swap2\n  swap1\n  swap2\n  0x0100\n  exp\n  dup2\n  sload\n  dup2\n  0xffffffffffffffffffffffffffffffffffffffff\n  mul\n  not\n  and\n  swap1\n  dup4\n  0xffffffffffffffffffffffffffffffffffffffff\n  and\n  mul\n  or\n  swap1\n  sstore\n  pop\n    /* \"contracts/Multisig.sol\":1811:2132  {\r... */\n  pop\n    /* \"contracts/Multisig.sol\":1806:1809  i++ */\n  dup1\n  dup1\n  tag_26\n  swap1\n  tag_27\n  jump\t// in\ntag_26:\n  swap2\n  pop\n  pop\n    /* \"contracts/Multisig.sol\":1773:2132  for (uint i; i < _owners.length; i++) {\r... */\n  jump(tag_13)\ntag_14:\n  pop\n    /* \"contracts/Multisig.sol\":2155:2164  _required */\n  dup1\n    /* \"contracts/Multisig.sol\":2144:2152  required */\n  0x02\n    /* \"contracts/Multisig.sol\":2144:2164  required = _required */\n  dup2\n  swap1\n  sstore\n  pop\n    /* \"contracts/Multisig.sol\":1489:2172  constructor(address[] memory _owners, uint _required) {\r... */\n  pop\n  pop\n    /* \"contracts/Multisig.sol\":59:2843  contract MultiSigWallet {\r... */\n  jump(tag_28)\n    /* \"#utility.yul\":24:768   */\ntag_30:\n    /* \"#utility.yul\":131:136   */\n  0x00\n    /* \"#utility.yul\":156:237   */\n  tag_32\n    /* \"#utility.yul\":172:236   */\n  tag_33\n    /* \"#utility.yul\":229:235   */\n  dup5\n    /* \"#utility.yul\":172:236   */\n  tag_34\n  jump\t// in\ntag_33:\n    /* \"#utility.yul\":156:237   */\n  tag_35\n  jump\t// in\ntag_32:\n    /* \"#utility.yul\":147:237   */\n  swap1\n  pop\n    /* \"#utility.yul\":257:262   */\n  dup1\n    /* \"#utility.yul\":286:292   */\n  dup4\n    /* \"#utility.yul\":279:284   */\n  dup3\n    /* \"#utility.yul\":272:293   */\n  mstore\n    /* \"#utility.yul\":320:324   */\n  0x20\n    /* \"#utility.yul\":313:318   */\n  dup3\n    /* \"#utility.yul\":309:325   */\n  add\n    /* \"#utility.yul\":302:325   */\n  swap1\n  pop\n    /* \"#utility.yul\":346:352   */\n  dup3\n    /* \"#utility.yul\":396:399   */\n  dup6\n    /* \"#utility.yul\":388:392   */\n  0x20\n    /* \"#utility.yul\":380:386   */\n  dup7\n    /* \"#utility.yul\":376:393   */\n  mul\n    /* \"#utility.yul\":371:374   */\n  dup3\n    /* \"#utility.yul\":367:394   */\n  add\n    /* \"#utility.yul\":364:400   */\n  gt\n    /* \"#utility.yul\":361:504   */\n  iszero\n  tag_36\n  jumpi\n    /* \"#utility.yul\":415:494   */\n  tag_37\n  tag_38\n  jump\t// in\ntag_37:\n    /* \"#utility.yul\":361:504   */\ntag_36:\n    /* \"#utility.yul\":528:529   */\n  0x00\n    /* \"#utility.yul\":513:762   */\ntag_39:\n    /* \"#utility.yul\":538:544   */\n  dup6\n    /* \"#utility.yul\":535:536   */\n  dup2\n    /* \"#utility.yul\":532:545   */\n  lt\n    /* \"#utility.yul\":513:762   */\n  iszero\n  tag_41\n  jumpi\n    /* \"#utility.yul\":606:609   */\n  dup2\n    /* \"#utility.yul\":635:683   */\n  tag_42\n    /* \"#utility.yul\":679:682   */\n  dup9\n    /* \"#utility.yul\":667:677   */\n  dup3\n    /* \"#utility.yul\":635:683   */\n  tag_43\n  jump\t// in\ntag_42:\n    /* \"#utility.yul\":630:633   */\n  dup5\n    /* \"#utility.yul\":623:684   */\n  mstore\n    /* \"#utility.yul\":713:717   */\n  0x20\n    /* \"#utility.yul\":708:711   */\n  dup5\n    /* \"#utility.yul\":704:718   */\n  add\n    /* \"#utility.yul\":697:718   */\n  swap4\n  pop\n    /* \"#utility.yul\":747:751   */\n  0x20\n    /* \"#utility.yul\":742:745   */\n  dup4\n    /* \"#utility.yul\":738:752   */\n  add\n    /* \"#utility.yul\":731:752   */\n  swap3\n  pop\n    /* \"#utility.yul\":573:762   */\n  pop\n    /* \"#utility.yul\":560:561   */\n  0x01\n    /* \"#utility.yul\":557:558   */\n  dup2\n    /* \"#utility.yul\":553:562   */\n  add\n    /* \"#utility.yul\":548:562   */\n  swap1\n  pop\n    /* \"#utility.yul\":513:762   */\n  jump(tag_39)\ntag_41:\n    /* \"#utility.yul\":517:531   */\n  pop\n    /* \"#utility.yul\":137:768   */\n  pop\n  pop\n    /* \"#utility.yul\":24:768   */\n  swap4\n  swap3\n  pop\n  pop\n  pop\n  jump\t// out\n    /* \"#utility.yul\":774:917   */\ntag_43:\n    /* \"#utility.yul\":831:836   */\n  0x00\n    /* \"#utility.yul\":862:868   */\n  dup2\n    /* \"#utility.yul\":856:869   */\n  mload\n    /* \"#utility.yul\":847:869   */\n  swap1\n  pop\n    /* \"#utility.yul\":878:911   */\n  tag_45\n    /* \"#utility.yul\":905:910   */\n  dup2\n    /* \"#utility.yul\":878:911   */\n  tag_46\n  jump\t// in\ntag_45:\n    /* \"#utility.yul\":774:917   */\n  swap3\n  swap2\n  pop\n  pop\n  jump\t// out\n    /* \"#utility.yul\":940:1325   */\ntag_47:\n    /* \"#utility.yul\":1022:1027   */\n  0x00\n    /* \"#utility.yul\":1071:1074   */\n  dup3\n    /* \"#utility.yul\":1064:1068   */\n  0x1f\n    /* \"#utility.yul\":1056:1062   */\n  dup4\n    /* \"#utility.yul\":1052:1069   */\n  add\n    /* \"#utility.yul\":1048:1075   */\n  slt\n    /* \"#utility.yul\":1038:1160   */\n  tag_49\n  jumpi\n    /* \"#utility.yul\":1079:1158   */\n  tag_50\n  tag_51\n  jump\t// in\ntag_50:\n    /* \"#utility.yul\":1038:1160   */\ntag_49:\n    /* \"#utility.yul\":1189:1195   */\n  dup2\n    /* \"#utility.yul\":1183:1196   */\n  mload\n    /* \"#utility.yul\":1214:1319   */\n  tag_52\n    /* \"#utility.yul\":1315:1318   */\n  dup5\n    /* \"#utility.yul\":1307:1313   */\n  dup3\n    /* \"#utility.yul\":1300:1304   */\n  0x20\n    /* \"#utility.yul\":1292:1298   */\n  dup7\n    /* \"#utility.yul\":1288:1305   */\n  add\n    /* \"#utility.yul\":1214:1319   */\n  tag_30\n  jump\t// in\ntag_52:\n    /* \"#utility.yul\":1205:1319   */\n  swap2\n  pop\n    /* \"#utility.yul\":1028:1325   */\n  pop\n    /* \"#utility.yul\":940:1325   */\n  swap3\n  swap2\n  pop\n  pop\n  jump\t// out\n    /* \"#utility.yul\":1331:1474   */\ntag_53:\n    /* \"#utility.yul\":1388:1393   */\n  0x00\n    /* \"#utility.yul\":1419:1425   */\n  dup2\n    /* \"#utility.yul\":1413:1426   */\n  mload\n    /* \"#utility.yul\":1404:1426   */\n  swap1\n  pop\n    /* \"#utility.yul\":1435:1468   */\n  tag_55\n    /* \"#utility.yul\":1462:1467   */\n  dup2\n    /* \"#utility.yul\":1435:1468   */\n  tag_56\n  jump\t// in\ntag_55:\n    /* \"#utility.yul\":1331:1474   */\n  swap3\n  swap2\n  pop\n  pop\n  jump\t// out\n    /* \"#utility.yul\":1480:2190   */\ntag_3:\n    /* \"#utility.yul\":1584:1590   */\n  0x00\n    /* \"#utility.yul\":1592:1598   */\n  dup1\n    /* \"#utility.yul\":1641:1643   */\n  0x40\n    /* \"#utility.yul\":1629:1638   */\n  dup4\n    /* \"#utility.yul\":1620:1627   */\n  dup6\n    /* \"#utility.yul\":1616:1639   */\n  sub\n    /* \"#utility.yul\":1612:1644   */\n  slt\n    /* \"#utility.yul\":1609:1728   */\n  iszero\n  tag_58\n  jumpi\n    /* \"#utility.yul\":1647:1726   */\n  tag_59\n  tag_60\n  jump\t// in\ntag_59:\n    /* \"#utility.yul\":1609:1728   */\ntag_58:\n    /* \"#utility.yul\":1788:1789   */\n  0x00\n    /* \"#utility.yul\":1777:1786   */\n  dup4\n    /* \"#utility.yul\":1773:1790   */\n  add\n    /* \"#utility.yul\":1767:1791   */\n  mload\n    /* \"#utility.yul\":1818:1836   */\n  0xffffffffffffffff\n    /* \"#utility.yul\":1810:1816   */\n  dup2\n    /* \"#utility.yul\":1807:1837   */\n  gt\n    /* \"#utility.yul\":1804:1921   */\n  iszero\n  tag_61\n  jumpi\n    /* \"#utility.yul\":1840:1919   */\n  tag_62\n  tag_63\n  jump\t// in\ntag_62:\n    /* \"#utility.yul\":1804:1921   */\ntag_61:\n    /* \"#utility.yul\":1945:2034   */\n  tag_64\n    /* \"#utility.yul\":2026:2033   */\n  dup6\n    /* \"#utility.yul\":2017:2023   */\n  dup3\n    /* \"#utility.yul\":2006:2015   */\n  dup7\n    /* \"#utility.yul\":2002:2024   */\n  add\n    /* \"#utility.yul\":1945:2034   */\n  tag_47\n  jump\t// in\ntag_64:\n    /* \"#utility.yul\":1935:2034   */\n  swap3\n  pop\n    /* \"#utility.yul\":1738:2044   */\n  pop\n    /* \"#utility.yul\":2083:2085   */\n  0x20\n    /* \"#utility.yul\":2109:2173   */\n  tag_65\n    /* \"#utility.yul\":2165:2172   */\n  dup6\n    /* \"#utility.yul\":2156:2162   */\n  dup3\n    /* \"#utility.yul\":2145:2154   */\n  dup7\n    /* \"#utility.yul\":2141:2163   */\n  add\n    /* \"#utility.yul\":2109:2173   */\n  tag_53\n  jump\t// in\ntag_65:\n    /* \"#utility.yul\":2099:2173   */\n  swap2\n  pop\n    /* \"#utility.yul\":2054:2183   */\n  pop\n    /* \"#utility.yul\":1480:2190   */\n  swap3\n  pop\n  swap3\n  swap1\n  pop\n  jump\t// out\n    /* \"#utility.yul\":2196:2562   */\ntag_66:\n    /* \"#utility.yul\":2338:2341   */\n  0x00\n    /* \"#utility.yul\":2359:2426   */\n  tag_68\n    /* \"#utility.yul\":2423:2425   */\n  0x13\n    /* \"#utility.yul\":2418:2421   */\n  dup4\n    /* \"#utility.yul\":2359:2426   */\n  tag_69\n  jump\t// in\ntag_68:\n    /* \"#utility.yul\":2352:2426   */\n  swap2\n  pop\n    /* \"#utility.yul\":2435:2528   */\n  tag_70\n    /* \"#utility.yul\":2524:2527   */\n  dup3\n    /* \"#utility.yul\":2435:2528   */\n  tag_71\n  jump\t// in\ntag_70:\n    /* \"#utility.yul\":2553:2555   */\n  0x20\n    /* \"#utility.yul\":2548:2551   */\n  dup3\n    /* \"#utility.yul\":2544:2556   */\n  add\n    /* \"#utility.yul\":2537:2556   */\n  swap1\n  pop\n    /* \"#utility.yul\":2196:2562   */\n  swap2\n  swap1\n  pop\n  jump\t// out\n    /* \"#utility.yul\":2568:2934   */\ntag_72:\n    /* \"#utility.yul\":2710:2713   */\n  0x00\n    /* \"#utility.yul\":2731:2798   */\n  tag_74\n    /* \"#utility.yul\":2795:2797   */\n  0x0d\n    /* \"#utility.yul\":2790:2793   */\n  dup4\n    /* \"#utility.yul\":2731:2798   */\n  tag_69\n  jump\t// in\ntag_74:\n    /* \"#utility.yul\":2724:2798   */\n  swap2\n  pop\n    /* \"#utility.yul\":2807:2900   */\n  tag_75\n    /* \"#utility.yul\":2896:2899   */\n  dup3\n    /* \"#utility.yul\":2807:2900   */\n  tag_76\n  jump\t// in\ntag_75:\n    /* \"#utility.yul\":2925:2927   */\n  0x20\n    /* \"#utility.yul\":2920:2923   */\n  dup3\n    /* \"#utility.yul\":2916:2928   */\n  add\n    /* \"#utility.yul\":2909:2928   */\n  swap1\n  pop\n    /* \"#utility.yul\":2568:2934   */\n  swap2\n  swap1\n  pop\n  jump\t// out\n    /* \"#utility.yul\":2940:3306   */\ntag_77:\n    /* \"#utility.yul\":3082:3085   */\n  0x00\n    /* \"#utility.yul\":3103:3170   */\n  tag_79\n    /* \"#utility.yul\":3167:3169   */\n  0x0f\n    /* \"#utility.yul\":3162:3165   */\n  dup4\n    /* \"#utility.yul\":3103:3170   */\n  tag_69\n  jump\t// in\ntag_79:\n    /* \"#utility.yul\":3096:3170   */\n  swap2\n  pop\n    /* \"#utility.yul\":3179:3272   */\n  tag_80\n    /* \"#utility.yul\":3268:3271   */\n  dup3\n    /* \"#utility.yul\":3179:3272   */\n  tag_81\n  jump\t// in\ntag_80:\n    /* \"#utility.yul\":3297:3299   */\n  0x20\n    /* \"#utility.yul\":3292:3295   */\n  dup3\n    /* \"#utility.yul\":3288:3300   */\n  add\n    /* \"#utility.yul\":3281:3300   */\n  swap1\n  pop\n    /* \"#utility.yul\":2940:3306   */\n  swap2\n  swap1\n  pop\n  jump\t// out\n    /* \"#utility.yul\":3312:3678   */\ntag_82:\n    /* \"#utility.yul\":3454:3457   */\n  0x00\n    /* \"#utility.yul\":3475:3542   */\n  tag_84\n    /* \"#utility.yul\":3539:3541   */\n  0x18\n    /* \"#utility.yul\":3534:3537   */\n  dup4\n    /* \"#utility.yul\":3475:3542   */\n  tag_69\n  jump\t// in\ntag_84:\n    /* \"#utility.yul\":3468:3542   */\n  swap2\n  pop\n    /* \"#utility.yul\":3551:3644   */\n  tag_85\n    /* \"#utility.yul\":3640:3643   */\n  dup3\n    /* \"#utility.yul\":3551:3644   */\n  tag_86\n  jump\t// in\ntag_85:\n    /* \"#utility.yul\":3669:3671   */\n  0x20\n    /* \"#utility.yul\":3664:3667   */\n  dup3\n    /* \"#utility.yul\":3660:3672   */\n  add\n    /* \"#utility.yul\":3653:3672   */\n  swap1\n  pop\n    /* \"#utility.yul\":3312:3678   */\n  swap2\n  swap1\n  pop\n  jump\t// out\n    /* \"#utility.yul\":3684:4103   */\ntag_24:\n    /* \"#utility.yul\":3850:3854   */\n  0x00\n    /* \"#utility.yul\":3888:3890   */\n  0x20\n    /* \"#utility.yul\":3877:3886   */\n  dup3\n    /* \"#utility.yul\":3873:3891   */\n  add\n    /* \"#utility.yul\":3865:3891   */\n  swap1\n  pop\n    /* \"#utility.yul\":3937:3946   */\n  dup2\n    /* \"#utility.yul\":3931:3935   */\n  dup2\n    /* \"#utility.yul\":3927:3947   */\n  sub\n    /* \"#utility.yul\":3923:3924   */\n  0x00\n    /* \"#utility.yul\":3912:3921   */\n  dup4\n    /* \"#utility.yul\":3908:3925   */\n  add\n    /* \"#utility.yul\":3901:3948   */\n  mstore\n    /* \"#utility.yul\":3965:4096   */\n  tag_88\n    /* \"#utility.yul\":4091:4095   */\n  dup2\n    /* \"#utility.yul\":3965:4096   */\n  tag_66\n  jump\t// in\ntag_88:\n    /* \"#utility.yul\":3957:4096   */\n  swap1\n  pop\n    /* \"#utility.yul\":3684:4103   */\n  swap2\n  swap1\n  pop\n  jump\t// out\n    /* \"#utility.yul\":4109:4528   */\ntag_21:\n    /* \"#utility.yul\":4275:4279   */\n  0x00\n    /* \"#utility.yul\":4313:4315   */\n  0x20\n    /* \"#utility.yul\":4302:4311   */\n  dup3\n    /* \"#utility.yul\":4298:4316   */\n  add\n    /* \"#utility.yul\":4290:4316   */\n  swap1\n  pop\n    /* \"#utility.yul\":4362:4371   */\n  dup2\n    /* \"#utility.yul\":4356:4360   */\n  dup2\n    /* \"#utility.yul\":4352:4372   */\n  sub\n    /* \"#utility.yul\":4348:4349   */\n  0x00\n    /* \"#utility.yul\":4337:4346   */\n  dup4\n    /* \"#utility.yul\":4333:4350   */\n  add\n    /* \"#utility.yul\":4326:4373   */\n  mstore\n    /* \"#utility.yul\":4390:4521   */\n  tag_90\n    /* \"#utility.yul\":4516:4520   */\n  dup2\n    /* \"#utility.yul\":4390:4521   */\n  tag_72\n  jump\t// in\ntag_90:\n    /* \"#utility.yul\":4382:4521   */\n  swap1\n  pop\n    /* \"#utility.yul\":4109:4528   */\n  swap2\n  swap1\n  pop\n  jump\t// out\n    /* \"#utility.yul\":4534:4953   */\ntag_8:\n    /* \"#utility.yul\":4700:4704   */\n  0x00\n    /* \"#utility.yul\":4738:4740   */\n  0x20\n    /* \"#utility.yul\":4727:4736   */\n  dup3\n    /* \"#utility.yul\":4723:4741   */\n  add\n    /* \"#utility.yul\":4715:4741   */\n  swap1\n  pop\n    /* \"#utility.yul\":4787:4796   */\n  dup2\n    /* \"#utility.yul\":4781:4785   */\n  dup2\n    /* \"#utility.yul\":4777:4797   */\n  sub\n    /* \"#utility.yul\":4773:4774   */\n  0x00\n    /* \"#utility.yul\":4762:4771   */\n  dup4\n    /* \"#utility.yul\":4758:4775   */\n  add\n    /* \"#utility.yul\":4751:4798   */\n  mstore\n    /* \"#utility.yul\":4815:4946   */\n  tag_92\n    /* \"#utility.yul\":4941:4945   */\n  dup2\n    /* \"#utility.yul\":4815:4946   */\n  tag_77\n  jump\t// in\ntag_92:\n    /* \"#utility.yul\":4807:4946   */\n  swap1\n  pop\n    /* \"#utility.yul\":4534:4953   */\n  swap2\n  swap1\n  pop\n  jump\t// out\n    /* \"#utility.yul\":4959:5378   */\ntag_12:\n    /* \"#utility.yul\":5125:5129   */\n  0x00\n    /* \"#utility.yul\":5163:5165   */\n  0x20\n    /* \"#utility.yul\":5152:5161   */\n  dup3\n    /* \"#utility.yul\":5148:5166   */\n  add\n    /* \"#utility.yul\":5140:5166   */\n  swap1\n  pop\n    /* \"#utility.yul\":5212:5221   */\n  dup2\n    /* \"#utility.yul\":5206:5210   */\n  dup2\n    /* \"#utility.yul\":5202:5222   */\n  sub\n    /* \"#utility.yul\":5198:5199   */\n  0x00\n    /* \"#utility.yul\":5187:5196   */\n  dup4\n    /* \"#utility.yul\":5183:5200   */\n  add\n    /* \"#utility.yul\":5176:5223   */\n  mstore\n    /* \"#utility.yul\":5240:5371   */\n  tag_94\n    /* \"#utility.yul\":5366:5370   */\n  dup2\n    /* \"#utility.yul\":5240:5371   */\n  tag_82\n  jump\t// in\ntag_94:\n    /* \"#utility.yul\":5232:5371   */\n  swap1\n  pop\n    /* \"#utility.yul\":4959:5378   */\n  swap2\n  swap1\n  pop\n  jump\t// out\n    /* \"#utility.yul\":5384:5513   */\ntag_35:\n    /* \"#utility.yul\":5418:5424   */\n  0x00\n    /* \"#utility.yul\":5445:5465   */\n  tag_96\n  tag_97\n  jump\t// in\ntag_96:\n    /* \"#utility.yul\":5435:5465   */\n  swap1\n  pop\n    /* \"#utility.yul\":5474:5507   */\n  tag_98\n    /* \"#utility.yul\":5502:5506   */\n  dup3\n    /* \"#utility.yul\":5494:5500   */\n  dup3\n    /* \"#utility.yul\":5474:5507   */\n  tag_99\n  jump\t// in\ntag_98:\n    /* \"#utility.yul\":5384:5513   */\n  swap2\n  swap1\n  pop\n  jump\t// out\n    /* \"#utility.yul\":5519:5594   */\ntag_97:\n    /* \"#utility.yul\":5552:5558   */\n  0x00\n    /* \"#utility.yul\":5585:5587   */\n  0x40\n    /* \"#utility.yul\":5579:5588   */\n  mload\n    /* \"#utility.yul\":5569:5588   */\n  swap1\n  pop\n    /* \"#utility.yul\":5519:5594   */\n  swap1\n  jump\t// out\n    /* \"#utility.yul\":5600:5911   */\ntag_34:\n    /* \"#utility.yul\":5677:5681   */\n  0x00\n    /* \"#utility.yul\":5767:5785   */\n  0xffffffffffffffff\n    /* \"#utility.yul\":5759:5765   */\n  dup3\n    /* \"#utility.yul\":5756:5786   */\n  gt\n    /* \"#utility.yul\":5753:5809   */\n  iszero\n  tag_102\n  jumpi\n    /* \"#utility.yul\":5789:5807   */\n  tag_103\n  tag_104\n  jump\t// in\ntag_103:\n    /* \"#utility.yul\":5753:5809   */\ntag_102:\n    /* \"#utility.yul\":5839:5843   */\n  0x20\n    /* \"#utility.yul\":5831:5837   */\n  dup3\n    /* \"#utility.yul\":5827:5844   */\n  mul\n    /* \"#utility.yul\":5819:5844   */\n  swap1\n  pop\n    /* \"#utility.yul\":5899:5903   */\n  0x20\n    /* \"#utility.yul\":5893:5897   */\n  dup2\n    /* \"#utility.yul\":5889:5904   */\n  add\n    /* \"#utility.yul\":5881:5904   */\n  swap1\n  pop\n    /* \"#utility.yul\":5600:5911   */\n  swap2\n  swap1\n  pop\n  jump\t// out\n    /* \"#utility.yul\":5917:6086   */\ntag_69:\n    /* \"#utility.yul\":6001:6012   */\n  0x00\n    /* \"#utility.yul\":6035:6041   */\n  dup3\n    /* \"#utility.yul\":6030:6033   */\n  dup3\n    /* \"#utility.yul\":6023:6042   */\n  mstore\n    /* \"#utility.yul\":6075:6079   */\n  0x20\n    /* \"#utility.yul\":6070:6073   */\n  dup3\n    /* \"#utility.yul\":6066:6080   */\n  add\n    /* \"#utility.yul\":6051:6080   */\n  swap1\n  pop\n    /* \"#utility.yul\":5917:6086   */\n  swap3\n  swap2\n  pop\n  pop\n  jump\t// out\n    /* \"#utility.yul\":6092:6188   */\ntag_106:\n    /* \"#utility.yul\":6129:6136   */\n  0x00\n    /* \"#utility.yul\":6158:6182   */\n  tag_108\n    /* \"#utility.yul\":6176:6181   */\n  dup3\n    /* \"#utility.yul\":6158:6182   */\n  tag_109\n  jump\t// in\ntag_108:\n    /* \"#utility.yul\":6147:6182   */\n  swap1\n  pop\n    /* \"#utility.yul\":6092:6188   */\n  swap2\n  swap1\n  pop\n  jump\t// out\n    /* \"#utility.yul\":6194:6320   */\ntag_109:\n    /* \"#utility.yul\":6231:6238   */\n  0x00\n    /* \"#utility.yul\":6271:6313   */\n  0xffffffffffffffffffffffffffffffffffffffff\n    /* \"#utility.yul\":6264:6269   */\n  dup3\n    /* \"#utility.yul\":6260:6314   */\n  and\n    /* \"#utility.yul\":6249:6314   */\n  swap1\n  pop\n    /* \"#utility.yul\":6194:6320   */\n  swap2\n  swap1\n  pop\n  jump\t// out\n    /* \"#utility.yul\":6326:6403   */\ntag_111:\n    /* \"#utility.yul\":6363:6370   */\n  0x00\n    /* \"#utility.yul\":6392:6397   */\n  dup2\n    /* \"#utility.yul\":6381:6397   */\n  swap1\n  pop\n    /* \"#utility.yul\":6326:6403   */\n  swap2\n  swap1\n  pop\n  jump\t// out\n    /* \"#utility.yul\":6409:6690   */\ntag_99:\n    /* \"#utility.yul\":6492:6519   */\n  tag_114\n    /* \"#utility.yul\":6514:6518   */\n  dup3\n    /* \"#utility.yul\":6492:6519   */\n  tag_115\n  jump\t// in\ntag_114:\n    /* \"#utility.yul\":6484:6490   */\n  dup2\n    /* \"#utility.yul\":6480:6520   */\n  add\n    /* \"#utility.yul\":6622:6628   */\n  dup2\n    /* \"#utility.yul\":6610:6620   */\n  dup2\n    /* \"#utility.yul\":6607:6629   */\n  lt\n    /* \"#utility.yul\":6586:6604   */\n  0xffffffffffffffff\n    /* \"#utility.yul\":6574:6584   */\n  dup3\n    /* \"#utility.yul\":6571:6605   */\n  gt\n    /* \"#utility.yul\":6568:6630   */\n  or\n    /* \"#utility.yul\":6565:6653   */\n  iszero\n  tag_116\n  jumpi\n    /* \"#utility.yul\":6633:6651   */\n  tag_117\n  tag_104\n  jump\t// in\ntag_117:\n    /* \"#utility.yul\":6565:6653   */\ntag_116:\n    /* \"#utility.yul\":6673:6683   */\n  dup1\n    /* \"#utility.yul\":6669:6671   */\n  0x40\n    /* \"#utility.yul\":6662:6684   */\n  mstore\n    /* \"#utility.yul\":6452:6690   */\n  pop\n    /* \"#utility.yul\":6409:6690   */\n  pop\n  pop\n  jump\t// out\n    /* \"#utility.yul\":6696:6929   */\ntag_27:\n    /* \"#utility.yul\":6735:6738   */\n  0x00\n    /* \"#utility.yul\":6758:6782   */\n  tag_119\n    /* \"#utility.yul\":6776:6781   */\n  dup3\n    /* \"#utility.yul\":6758:6782   */\n  tag_111\n  jump\t// in\ntag_119:\n    /* \"#utility.yul\":6749:6782   */\n  swap2\n  pop\n    /* \"#utility.yul\":6804:6870   */\n  0xffffffffffffffffffffffffffffffffffffffffffffffffffffffffffffffff\n    /* \"#utility.yul\":6797:6802   */\n  dup3\n    /* \"#utility.yul\":6794:6871   */\n  eq\n    /* \"#utility.yul\":6791:6894   */\n  iszero\n  tag_120\n  jumpi\n    /* \"#utility.yul\":6874:6892   */\n  tag_121\n  tag_122\n  jump\t// in\ntag_121:\n    /* \"#utility.yul\":6791:6894   */\ntag_120:\n    /* \"#utility.yul\":6921:6922   */\n  0x01\n    /* \"#utility.yul\":6914:6919   */\n  dup3\n    /* \"#utility.yul\":6910:6923   */\n  add\n    /* \"#utility.yul\":6903:6923   */\n  swap1\n  pop\n    /* \"#utility.yul\":6696:6929   */\n  swap2\n  swap1\n  pop\n  jump\t// out\n    /* \"#utility.yul\":6935:7115   */\ntag_122:\n    /* \"#utility.yul\":6983:7060   */\n  0x4e487b7100000000000000000000000000000000000000000000000000000000\n    /* \"#utility.yul\":6980:6981   */\n  0x00\n    /* \"#utility.yul\":6973:7061   */\n  mstore\n    /* \"#utility.yul\":7080:7084   */\n  0x11\n    /* \"#utility.yul\":7077:7078   */\n  0x04\n    /* \"#utility.yul\":7070:7085   */\n  mstore\n    /* \"#utility.yul\":7104:7108   */\n  0x24\n    /* \"#utility.yul\":7101:7102   */\n  0x00\n    /* \"#utility.yul\":7094:7109   */\n  revert\n    /* \"#utility.yul\":7121:7301   */\ntag_18:\n    /* \"#utility.yul\":7169:7246   */\n  0x4e487b7100000000000000000000000000000000000000000000000000000000\n    /* \"#utility.yul\":7166:7167   */\n  0x00\n    /* \"#utility.yul\":7159:7247   */\n  mstore\n    /* \"#utility.yul\":7266:7270   */\n  0x32\n    /* \"#utility.yul\":7263:7264   */\n  0x04\n    /* \"#utility.yul\":7256:7271   */\n  mstore\n    /* \"#utility.yul\":7290:7294   */\n  0x24\n    /* \"#utility.yul\":7287:7288   */\n  0x00\n    /* \"#utility.yul\":7280:7295   */\n  revert\n    /* \"#utility.yul\":7307:7487   */\ntag_104:\n    /* \"#utility.yul\":7355:7432   */\n  0x4e487b7100000000000000000000000000000000000000000000000000000000\n    /* \"#utility.yul\":7352:7353   */\n  0x00\n    /* \"#utility.yul\":7345:7433   */\n  mstore\n    /* \"#utility.yul\":7452:7456   */\n  0x41\n    /* \"#utility.yul\":7449:7450   */\n  0x04\n    /* \"#utility.yul\":7442:7457   */\n  mstore\n    /* \"#utility.yul\":7476:7480   */\n  0x24\n    /* \"#utility.yul\":7473:7474   */\n  0x00\n    /* \"#utility.yul\":7466:7481   */\n  revert\n    /* \"#utility.yul\":7493:7610   */\ntag_51:\n    /* \"#utility.yul\":7602:7603   */\n  0x00\n    /* \"#utility.yul\":7599:7600   */\n  dup1\n    /* \"#utility.yul\":7592:7604   */\n  revert\n    /* \"#utility.yul\":7616:7733   */\ntag_38:\n    /* \"#utility.yul\":7725:7726   */\n  0x00\n    /* \"#utility.yul\":7722:7723   */\n  dup1\n    /* \"#utility.yul\":7715:7727   */\n  revert\n    /* \"#utility.yul\":7739:7856   */\ntag_63:\n    /* \"#utility.yul\":7848:7849   */\n  0x00\n    /* \"#utility.yul\":7845:7846   */\n  dup1\n    /* \"#utility.yul\":7838:7850   */\n  revert\n    /* \"#utility.yul\":7862:7979   */\ntag_60:\n    /* \"#utility.yul\":7971:7972   */\n  0x00\n    /* \"#utility.yul\":7968:7969   */\n  dup1\n    /* \"#utility.yul\":7961:7973   */\n  revert\n    /* \"#utility.yul\":7985:8087   */\ntag_115:\n    /* \"#utility.yul\":8026:8032   */\n  0x00\n    /* \"#utility.yul\":8077:8079   */\n  0x1f\n    /* \"#utility.yul\":8073:8080   */\n  not\n    /* \"#utility.yul\":8068:8070   */\n  0x1f\n    /* \"#utility.yul\":8061:8066   */\n  dup4\n    /* \"#utility.yul\":8057:8071   */\n  add\n    /* \"#utility.yul\":8053:8081   */\n  and\n    /* \"#utility.yul\":8043:8081   */\n  swap1\n  pop\n    /* \"#utility.yul\":7985:8087   */\n  swap2\n  swap1\n  pop\n  jump\t// out\n    /* \"#utility.yul\":8093:8262   */\ntag_71:\n    /* \"#utility.yul\":8233:8254   */\n  0x6f776e6572206973206e6f7420756e6971756500000000000000000000000000\n    /* \"#utility.yul\":8229:8230   */\n  0x00\n    /* \"#utility.yul\":8221:8227   */\n  dup3\n    /* \"#utility.yul\":8217:8231   */\n  add\n    /* \"#utility.yul\":8210:8255   */\n  mstore\n    /* \"#utility.yul\":8093:8262   */\n  pop\n  jump\t// out\n    /* \"#utility.yul\":8268:8431   */\ntag_76:\n    /* \"#utility.yul\":8408:8423   */\n  0x496e76616c6964206f776e657200000000000000000000000000000000000000\n    /* \"#utility.yul\":8404:8405   */\n  0x00\n    /* \"#utility.yul\":8396:8402   */\n  dup3\n    /* \"#utility.yul\":8392:8406   */\n  add\n    /* \"#utility.yul\":8385:8424   */\n  mstore\n    /* \"#utility.yul\":8268:8431   */\n  pop\n  jump\t// out\n    /* \"#utility.yul\":8437:8602   */\ntag_81:\n    /* \"#utility.yul\":8577:8594   */\n  0x6f776e6572732072657175697265640000000000000000000000000000000000\n    /* \"#utility.yul\":8573:8574   */\n  0x00\n    /* \"#utility.yul\":8565:8571   */\n  dup3\n    /* \"#utility.yul\":8561:8575   */\n  add\n    /* \"#utility.yul\":8554:8595   */\n  mstore\n    /* \"#utility.yul\":8437:8602   */\n  pop\n  jump\t// out\n    /* \"#utility.yul\":8608:8782   */\ntag_86:\n    /* \"#utility.yul\":8748:8774   */\n  0x496e76616c6964206e756d626572206f66206f776e6572730000000000000000\n    /* \"#utility.yul\":8744:8745   */\n  0x00\n    /* \"#utility.yul\":8736:8742   */\n  dup3\n    /* \"#utility.yul\":8732:8746   */\n  add\n    /* \"#utility.yul\":8725:8775   */\n  mstore\n    /* \"#utility.yul\":8608:8782   */\n  pop\n  jump\t// out\n    /* \"#utility.yul\":8788:8910   */\ntag_46:\n    /* \"#utility.yul\":8861:8885   */\n  tag_136\n    /* \"#utility.yul\":8879:8884   */\n  dup2\n    /* \"#utility.yul\":8861:8885   */\n  tag_106\n  jump\t// in\ntag_136:\n    /* \"#utility.yul\":8854:8859   */\n  dup2\n    /* \"#utility.yul\":8851:8886   */\n  eq\n    /* \"#utility.yul\":8841:8904   */\n  tag_137\n  jumpi\n    /* \"#utility.yul\":8900:8901   */\n  0x00\n    /* \"#utility.yul\":8897:8898   */\n  dup1\n    /* \"#utility.yul\":8890:8902   */\n  revert\n    /* \"#utility.yul\":8841:8904   */\ntag_137:\n    /* \"#utility.yul\":8788:8910   */\n  pop\n  jump\t// out\n    /* \"#utility.yul\":8916:9038   */\ntag_56:\n    /* \"#utility.yul\":8989:9013   */\n  tag_139\n    /* \"#utility.yul\":9007:9012   */\n  dup2\n    /* \"#utility.yul\":8989:9013   */\n  tag_111\n  jump\t// in\ntag_139:\n    /* \"#utility.yul\":8982:8987   */\n  dup2\n    /* \"#utility.yul\":8979:9014   */\n  eq\n    /* \"#utility.yul\":8969:9032   */\n  tag_140\n  jumpi\n    /* \"#utility.yul\":9028:9029   */\n  0x00\n    /* \"#utility.yul\":9025:9026   */\n  dup1\n    /* \"#utility.yul\":9018:9030   */\n  revert\n    /* \"#utility.yul\":8969:9032   */\ntag_140:\n    /* \"#utility.yul\":8916:9038   */\n  pop\n  jump\t// out\n    /* \"contracts/Multisig.sol\":59:2843  contract MultiSigWallet {\r... */\ntag_28:\n  dataSize(sub_0)\n  dup1\n  dataOffset(sub_0)\n  0x00\n  codecopy\n  0x00\n  return\nstop\n\nsub_0: assembly {\n        /* \"contracts/Multisig.sol\":59:2843  contract MultiSigWallet {\r... */\n      mstore(0x40, 0x80)\n      jumpi(tag_1, lt(calldatasize, 0x04))\n      shr(0xe0, calldataload(0x00))\n      dup1\n      0x025e7c27\n      eq\n      tag_3\n      jumpi\n      dup1\n      0x14de327f\n      eq\n      tag_4\n      jumpi\n      dup1\n      0x2f54bf6e\n      eq\n      tag_5\n      jumpi\n      dup1\n      0x8253951a\n      eq\n      tag_6\n      jumpi\n      dup1\n      0x9ace38c2\n      eq\n      tag_7\n      jumpi\n      dup1\n      0xdc8452cd\n      eq\n      tag_8\n      jumpi\n      jump(tag_2)\n    tag_1:\n      jumpi(tag_2, calldatasize)\n        /* \"contracts/Multisig.sol\":2223:2276  Deposit(msg.sender, msg.value, address(this).balance) */\n      0x90890809c654f11d6e72a28fa60149770a0d11ec6c92319d6ceb2bb0a4ea1a15\n        /* \"contracts/Multisig.sol\":2231:2241  msg.sender */\n      caller\n        /* \"contracts/Multisig.sol\":2243:2252  msg.value */\n      callvalue\n        /* \"contracts/Multisig.sol\":2254:2275  address(this).balance */\n      selfbalance\n        /* \"contracts/Multisig.sol\":2223:2276  Deposit(msg.sender, msg.value, address(this).balance) */\n      mload(0x40)\n      tag_11\n      swap4\n      swap3\n      swap2\n      swap1\n      tag_12\n      jump\t// in\n    tag_11:\n      mload(0x40)\n      dup1\n      swap2\n      sub\n      swap1\n      log1\n        /* \"contracts/Multisig.sol\":59:2843  contract MultiSigWallet {\r... */\n      stop\n    tag_2:\n      0x00\n      dup1\n      revert\n        /* \"contracts/Multisig.sol\":816:840  address [] public owners */\n    tag_3:\n      callvalue\n      dup1\n      iszero\n      tag_13\n      jumpi\n      0x00\n      dup1\n      revert\n    tag_13:\n      pop\n      tag_14\n      0x04\n      dup1\n      calldatasize\n      sub\n      dup2\n      add\n      swap1\n      tag_15\n      swap2\n      swap1\n      tag_16\n      jump\t// in\n    tag_15:\n      tag_17\n      jump\t// in\n    tag_14:\n      mload(0x40)\n      tag_18\n      swap2\n      swap1\n      tag_19\n      jump\t// in\n    tag_18:\n      mload(0x40)\n      dup1\n      swap2\n      sub\n      swap1\n      return\n        /* \"contracts/Multisig.sol\":2477:2838  function submit(address _to, uint _value, bytes calldata _data)\r... */\n    tag_4:\n      callvalue\n      dup1\n      iszero\n      tag_20\n      jumpi\n      0x00\n      dup1\n      revert\n    tag_20:\n      pop\n      tag_21\n      0x04\n      dup1\n      calldatasize\n      sub\n      dup2\n      add\n      swap1\n      tag_22\n      swap2\n      swap1\n      tag_23\n      jump\t// in\n    tag_22:\n      tag_24\n      jump\t// in\n    tag_21:\n      stop\n        /* \"contracts/Multisig.sol\":847:886  mapping(address => bool) public isOwner */\n    tag_5:\n      callvalue\n      dup1\n      iszero\n      tag_25\n      jumpi\n      0x00\n      dup1\n      revert\n    tag_25:\n      pop\n      tag_26\n      0x04\n      dup1\n      calldatasize\n      sub\n      dup2\n      add\n      swap1\n      tag_27\n      swap2\n      swap1\n      tag_28\n      jump\t// in\n    tag_27:\n      tag_29\n      jump\t// in\n    tag_26:\n      mload(0x40)\n      tag_30\n      swap2\n      swap1\n      tag_31\n      jump\t// in\n    tag_30:\n      mload(0x40)\n      dup1\n      swap2\n      sub\n      swap1\n      return\n        /* \"contracts/Multisig.sol\":1170:1228  mapping (uint => mapping(address => bool)) public approved */\n    tag_6:\n      callvalue\n      dup1\n      iszero\n      tag_32\n      jumpi\n      0x00\n      dup1\n      revert\n    tag_32:\n      pop\n      tag_33\n      0x04\n      dup1\n      calldatasize\n      sub\n      dup2\n      add\n      swap1\n      tag_34\n      swap2\n      swap1\n      tag_35\n      jump\t// in\n    tag_34:\n      tag_36\n      jump\t// in\n    tag_33:\n      mload(0x40)\n      tag_37\n      swap2\n      swap1\n      tag_31\n      jump\t// in\n    tag_37:\n      mload(0x40)\n      dup1\n      swap2\n      sub\n      swap1\n      return\n        /* \"contracts/Multisig.sol\":1027:1061  Transaction [] public transactions */\n    tag_7:\n      callvalue\n      dup1\n      iszero\n      tag_38\n      jumpi\n      0x00\n      dup1\n      revert\n    tag_38:\n      pop\n      tag_39\n      0x04\n      dup1\n      calldatasize\n      sub\n      dup2\n      add\n      swap1\n      tag_40\n      swap2\n      swap1\n      tag_16\n      jump\t// in\n    tag_40:\n      tag_41\n      jump\t// in\n    tag_39:\n      mload(0x40)\n      tag_42\n      swap5\n      swap4\n      swap3\n      swap2\n      swap1\n      tag_43\n      jump\t// in\n    tag_42:\n      mload(0x40)\n      dup1\n      swap2\n      sub\n      swap1\n      return\n        /* \"contracts/Multisig.sol\":893:913  uint public required */\n    tag_8:\n      callvalue\n      dup1\n      iszero\n      tag_44\n      jumpi\n      0x00\n      dup1\n      revert\n    tag_44:\n      pop\n      tag_45\n      tag_46\n      jump\t// in\n    tag_45:\n      mload(0x40)\n      tag_47\n      swap2\n      swap1\n      tag_48\n      jump\t// in\n    tag_47:\n      mload(0x40)\n      dup1\n      swap2\n      sub\n      swap1\n      return\n        /* \"contracts/Multisig.sol\":816:840  address [] public owners */\n    tag_17:\n      0x00\n      dup2\n      dup2\n      sload\n      dup2\n      lt\n      tag_49\n      jumpi\n      0x00\n      dup1\n      revert\n    tag_49:\n      swap1\n      0x00\n      mstore\n      keccak256(0x00, 0x20)\n      add\n      0x00\n      swap2\n      pop\n      sload\n      swap1\n      0x0100\n      exp\n      swap1\n      div\n      0xffffffffffffffffffffffffffffffffffffffff\n      and\n      dup2\n      jump\t// out\n        /* \"contracts/Multisig.sol\":2477:2838  function submit(address _to, uint _value, bytes calldata _data)\r... */\n    tag_24:\n        /* \"contracts/Multisig.sol\":1356:1363  isOwner */\n      0x01\n        /* \"contracts/Multisig.sol\":1356:1375  isOwner[msg.sender] */\n      0x00\n        /* \"contracts/Multisig.sol\":1364:1374  msg.sender */\n      caller\n        /* \"contracts/Multisig.sol\":1356:1375  isOwner[msg.sender] */\n      0xffffffffffffffffffffffffffffffffffffffff\n      and\n      0xffffffffffffffffffffffffffffffffffffffff\n      and\n      dup2\n      mstore\n      0x20\n      add\n      swap1\n      dup2\n      mstore\n      0x20\n      add\n      0x00\n      keccak256\n      0x00\n      swap1\n      sload\n      swap1\n      0x0100\n      exp\n      swap1\n      div\n      0xff\n      and\n        /* \"contracts/Multisig.sol\":1348:1408  require(isOwner[msg.sender], \"Only owner can call function\") */\n      tag_52\n      jumpi\n      mload(0x40)\n      0x08c379a000000000000000000000000000000000000000000000000000000000\n      dup2\n      mstore\n      0x04\n      add\n      tag_53\n      swap1\n      tag_54\n      jump\t// in\n    tag_53:\n      mload(0x40)\n      dup1\n      swap2\n      sub\n      swap1\n      revert\n    tag_52:\n        /* \"contracts/Multisig.sol\":2595:2607  transactions */\n      0x03\n        /* \"contracts/Multisig.sol\":2614:2769  Transaction({\r... */\n      mload(0x40)\n      dup1\n      0x80\n      add\n      0x40\n      mstore\n      dup1\n        /* \"contracts/Multisig.sol\":2650:2653  _to */\n      dup7\n        /* \"contracts/Multisig.sol\":2614:2769  Transaction({\r... */\n      0xffffffffffffffffffffffffffffffffffffffff\n      and\n      dup2\n      mstore\n      0x20\n      add\n        /* \"contracts/Multisig.sol\":2680:2686  _value */\n      dup6\n        /* \"contracts/Multisig.sol\":2614:2769  Transaction({\r... */\n      dup2\n      mstore\n      0x20\n      add\n        /* \"contracts/Multisig.sol\":2712:2717  _data */\n      dup5\n      dup5\n        /* \"contracts/Multisig.sol\":2614:2769  Transaction({\r... */\n      dup1\n      dup1\n      0x1f\n      add\n      0x20\n      dup1\n      swap2\n      div\n      mul\n      0x20\n      add\n      mload(0x40)\n      swap1\n      dup2\n      add\n      0x40\n      mstore\n      dup1\n      swap4\n      swap3\n      swap2\n      swap1\n      dup2\n      dup2\n      mstore\n      0x20\n      add\n      dup4\n      dup4\n      dup1\n      dup3\n      dup5\n      calldatacopy\n      0x00\n      dup2\n      dup5\n      add\n      mstore\n      not(0x1f)\n      0x1f\n      dup3\n      add\n      and\n      swap1\n      pop\n      dup1\n      dup4\n      add\n      swap3\n      pop\n      pop\n      pop\n      pop\n      pop\n      pop\n      pop\n      dup2\n      mstore\n      0x20\n      add\n        /* \"contracts/Multisig.sol\":2747:2752  false */\n      0x00\n        /* \"contracts/Multisig.sol\":2614:2769  Transaction({\r... */\n      iszero\n      iszero\n      dup2\n      mstore\n      pop\n        /* \"contracts/Multisig.sol\":2595:2770  transactions .push(Transaction({\r... */\n      swap1\n      dup1\n      0x01\n      dup2\n      sload\n      add\n      dup1\n      dup3\n      sstore\n      dup1\n      swap2\n      pop\n      pop\n      0x01\n      swap1\n      sub\n      swap1\n      0x00\n      mstore\n      keccak256(0x00, 0x20)\n      swap1\n      0x04\n      mul\n      add\n      0x00\n      swap1\n      swap2\n      swap1\n      swap2\n      swap1\n      swap2\n      pop\n      0x00\n      dup3\n      add\n      mload\n      dup2\n      0x00\n      add\n      exp(0x0100, 0x00)\n      dup2\n      sload\n      dup2\n      0xffffffffffffffffffffffffffffffffffffffff\n      mul\n      not\n      and\n      swap1\n      dup4\n      0xffffffffffffffffffffffffffffffffffffffff\n      and\n      mul\n      or\n      swap1\n      sstore\n      pop\n      0x20\n      dup3\n      add\n      mload\n      dup2\n      0x01\n      add\n      sstore\n      0x40\n      dup3\n      add\n      mload\n      dup2\n      0x02\n      add\n      swap1\n      dup1\n      mload\n      swap1\n      0x20\n      add\n      swap1\n      tag_57\n      swap3\n      swap2\n      swap1\n      tag_58\n      jump\t// in\n    tag_57:\n      pop\n      0x60\n      dup3\n      add\n      mload\n      dup2\n      0x03\n      add\n      exp(0x0100, 0x00)\n      dup2\n      sload\n      dup2\n      0xff\n      mul\n      not\n      and\n      swap1\n      dup4\n      iszero\n      iszero\n      mul\n      or\n      swap1\n      sstore\n      pop\n      pop\n      pop\n        /* \"contracts/Multisig.sol\":2791:2822  Submit(transactions.length - 1) */\n      0x08324b3d745b914e3abd4ffbfead91e3b78391a98c173202129215ab933adfbe\n        /* \"contracts/Multisig.sol\":2820:2821  1 */\n      0x01\n        /* \"contracts/Multisig.sol\":2798:2810  transactions */\n      0x03\n        /* \"contracts/Multisig.sol\":2798:2817  transactions.length */\n      dup1\n      sload\n      swap1\n      pop\n        /* \"contracts/Multisig.sol\":2798:2821  transactions.length - 1 */\n      tag_59\n      swap2\n      swap1\n      tag_60\n      jump\t// in\n    tag_59:\n        /* \"contracts/Multisig.sol\":2791:2822  Submit(transactions.length - 1) */\n      mload(0x40)\n      tag_61\n      swap2\n      swap1\n      tag_48\n      jump\t// in\n    tag_61:\n      mload(0x40)\n      dup1\n      swap2\n      sub\n      swap1\n      log1\n        /* \"contracts/Multisig.sol\":2477:2838  function submit(address _to, uint _value, bytes calldata _data)\r... */\n      pop\n      pop\n      pop\n      pop\n      jump\t// out\n        /* \"contracts/Multisig.sol\":847:886  mapping(address => bool) public isOwner */\n    tag_29:\n      mstore(0x20, 0x01)\n      dup1\n      0x00\n      mstore\n      keccak256(0x00, 0x40)\n      0x00\n      swap2\n      pop\n      sload\n      swap1\n      0x0100\n      exp\n      swap1\n      div\n      0xff\n      and\n      dup2\n      jump\t// out\n        /* \"contracts/Multisig.sol\":1170:1228  mapping (uint => mapping(address => bool)) public approved */\n    tag_36:\n      mstore(0x20, 0x04)\n      dup2\n      0x00\n      mstore\n      mstore(0x20, keccak256(0x00, 0x40))\n      dup1\n      0x00\n      mstore\n      keccak256(0x00, 0x40)\n      0x00\n      swap2\n      pop\n      swap2\n      pop\n      swap1\n      sload\n      swap1\n      0x0100\n      exp\n      swap1\n      div\n      0xff\n      and\n      dup2\n      jump\t// out\n        /* \"contracts/Multisig.sol\":1027:1061  Transaction [] public transactions */\n    tag_41:\n      0x03\n      dup2\n      dup2\n      sload\n      dup2\n      lt\n      tag_62\n      jumpi\n      0x00\n      dup1\n      revert\n    tag_62:\n      swap1\n      0x00\n      mstore\n      keccak256(0x00, 0x20)\n      swap1\n      0x04\n      mul\n      add\n      0x00\n      swap2\n      pop\n      swap1\n      pop\n      dup1\n      0x00\n      add\n      0x00\n      swap1\n      sload\n      swap1\n      0x0100\n      exp\n      swap1\n      div\n      0xffffffffffffffffffffffffffffffffffffffff\n      and\n      swap1\n      dup1\n      0x01\n      add\n      sload\n      swap1\n      dup1\n      0x02\n      add\n      dup1\n      sload\n      tag_64\n      swap1\n      tag_65\n      jump\t// in\n    tag_64:\n      dup1\n      0x1f\n      add\n      0x20\n      dup1\n      swap2\n      div\n      mul\n      0x20\n      add\n      mload(0x40)\n      swap1\n      dup2\n      add\n      0x40\n      mstore\n      dup1\n      swap3\n      swap2\n      swap1\n      dup2\n      dup2\n      mstore\n      0x20\n      add\n      dup3\n      dup1\n      sload\n      tag_66\n      swap1\n      tag_65\n      jump\t// in\n    tag_66:\n      dup1\n      iszero\n      tag_67\n      jumpi\n      dup1\n      0x1f\n      lt\n      tag_68\n      jumpi\n      0x0100\n      dup1\n      dup4\n      sload\n      div\n      mul\n      dup4\n      mstore\n      swap2\n      0x20\n      add\n      swap2\n      jump(tag_67)\n    tag_68:\n      dup3\n      add\n      swap2\n      swap1\n      0x00\n      mstore\n      keccak256(0x00, 0x20)\n      swap1\n    tag_69:\n      dup2\n      sload\n      dup2\n      mstore\n      swap1\n      0x01\n      add\n      swap1\n      0x20\n      add\n      dup1\n      dup4\n      gt\n      tag_69\n      jumpi\n      dup3\n      swap1\n      sub\n      0x1f\n      and\n      dup3\n      add\n      swap2\n    tag_67:\n      pop\n      pop\n      pop\n      pop\n      pop\n      swap1\n      dup1\n      0x03\n      add\n      0x00\n      swap1\n      sload\n      swap1\n      0x0100\n      exp\n      swap1\n      div\n      0xff\n      and\n      swap1\n      pop\n      dup5\n      jump\t// out\n        /* \"contracts/Multisig.sol\":893:913  uint public required */\n    tag_46:\n      sload(0x02)\n      dup2\n      jump\t// out\n    tag_58:\n      dup3\n      dup1\n      sload\n      tag_70\n      swap1\n      tag_65\n      jump\t// in\n    tag_70:\n      swap1\n      0x00\n      mstore\n      keccak256(0x00, 0x20)\n      swap1\n      0x1f\n      add\n      0x20\n      swap1\n      div\n      dup2\n      add\n      swap3\n      dup3\n      tag_72\n      jumpi\n      0x00\n      dup6\n      sstore\n      jump(tag_71)\n    tag_72:\n      dup3\n      0x1f\n      lt\n      tag_73\n      jumpi\n      dup1\n      mload\n      not(0xff)\n      and\n      dup4\n      dup1\n      add\n      or\n      dup6\n      sstore\n      jump(tag_71)\n    tag_73:\n      dup3\n      dup1\n      add\n      0x01\n      add\n      dup6\n      sstore\n      dup3\n      iszero\n      tag_71\n      jumpi\n      swap2\n      dup3\n      add\n    tag_74:\n      dup3\n      dup2\n      gt\n      iszero\n      tag_75\n      jumpi\n      dup3\n      mload\n      dup3\n      sstore\n      swap2\n      0x20\n      add\n      swap2\n      swap1\n      0x01\n      add\n      swap1\n      jump(tag_74)\n    tag_75:\n    tag_71:\n      pop\n      swap1\n      pop\n      tag_76\n      swap2\n      swap1\n      tag_77\n      jump\t// in\n    tag_76:\n      pop\n      swap1\n      jump\t// out\n    tag_77:\n    tag_78:\n      dup1\n      dup3\n      gt\n      iszero\n      tag_79\n      jumpi\n      0x00\n      dup2\n      0x00\n      swap1\n      sstore\n      pop\n      0x01\n      add\n      jump(tag_78)\n    tag_79:\n      pop\n      swap1\n      jump\t// out\n        /* \"#utility.yul\":7:146   */\n    tag_81:\n        /* \"#utility.yul\":53:58   */\n      0x00\n        /* \"#utility.yul\":91:97   */\n      dup2\n        /* \"#utility.yul\":78:98   */\n      calldataload\n        /* \"#utility.yul\":69:98   */\n      swap1\n      pop\n        /* \"#utility.yul\":107:140   */\n      tag_83\n        /* \"#utility.yul\":134:139   */\n      dup2\n        /* \"#utility.yul\":107:140   */\n      tag_84\n      jump\t// in\n    tag_83:\n        /* \"#utility.yul\":7:146   */\n      swap3\n      swap2\n      pop\n      pop\n      jump\t// out\n        /* \"#utility.yul\":165:717   */\n    tag_85:\n        /* \"#utility.yul\":222:230   */\n      0x00\n        /* \"#utility.yul\":232:238   */\n      dup1\n        /* \"#utility.yul\":282:285   */\n      dup4\n        /* \"#utility.yul\":275:279   */\n      0x1f\n        /* \"#utility.yul\":267:273   */\n      dup5\n        /* \"#utility.yul\":263:280   */\n      add\n        /* \"#utility.yul\":259:286   */\n      slt\n        /* \"#utility.yul\":249:371   */\n      tag_87\n      jumpi\n        /* \"#utility.yul\":290:369   */\n      tag_88\n      tag_89\n      jump\t// in\n    tag_88:\n        /* \"#utility.yul\":249:371   */\n    tag_87:\n        /* \"#utility.yul\":403:409   */\n      dup3\n        /* \"#utility.yul\":390:410   */\n      calldataload\n        /* \"#utility.yul\":380:410   */\n      swap1\n      pop\n        /* \"#utility.yul\":433:451   */\n      0xffffffffffffffff\n        /* \"#utility.yul\":425:431   */\n      dup2\n        /* \"#utility.yul\":422:452   */\n      gt\n        /* \"#utility.yul\":419:536   */\n      iszero\n      tag_90\n      jumpi\n        /* \"#utility.yul\":455:534   */\n      tag_91\n      tag_92\n      jump\t// in\n    tag_91:\n        /* \"#utility.yul\":419:536   */\n    tag_90:\n        /* \"#utility.yul\":569:573   */\n      0x20\n        /* \"#utility.yul\":561:567   */\n      dup4\n        /* \"#utility.yul\":557:574   */\n      add\n        /* \"#utility.yul\":545:574   */\n      swap2\n      pop\n        /* \"#utility.yul\":623:626   */\n      dup4\n        /* \"#utility.yul\":615:619   */\n      0x01\n        /* \"#utility.yul\":607:613   */\n      dup3\n        /* \"#utility.yul\":603:620   */\n      mul\n        /* \"#utility.yul\":593:601   */\n      dup4\n        /* \"#utility.yul\":589:621   */\n      add\n        /* \"#utility.yul\":586:627   */\n      gt\n        /* \"#utility.yul\":583:711   */\n      iszero\n      tag_93\n      jumpi\n        /* \"#utility.yul\":630:709   */\n      tag_94\n      tag_95\n      jump\t// in\n    tag_94:\n        /* \"#utility.yul\":583:711   */\n    tag_93:\n        /* \"#utility.yul\":165:717   */\n      swap3\n      pop\n      swap3\n      swap1\n      pop\n      jump\t// out\n        /* \"#utility.yul\":723:862   */\n    tag_96:\n        /* \"#utility.yul\":769:774   */\n      0x00\n        /* \"#utility.yul\":807:813   */\n      dup2\n        /* \"#utility.yul\":794:814   */\n      calldataload\n        /* \"#utility.yul\":785:814   */\n      swap1\n      pop\n        /* \"#utility.yul\":823:856   */\n      tag_98\n        /* \"#utility.yul\":850:855   */\n      dup2\n        /* \"#utility.yul\":823:856   */\n      tag_99\n      jump\t// in\n    tag_98:\n        /* \"#utility.yul\":723:862   */\n      swap3\n      swap2\n      pop\n      pop\n      jump\t// out\n        /* \"#utility.yul\":868:1197   */\n    tag_28:\n        /* \"#utility.yul\":927:933   */\n      0x00\n        /* \"#utility.yul\":976:978   */\n      0x20\n        /* \"#utility.yul\":964:973   */\n      dup3\n        /* \"#utility.yul\":955:962   */\n      dup5\n        /* \"#utility.yul\":951:974   */\n      sub\n        /* \"#utility.yul\":947:979   */\n      slt\n        /* \"#utility.yul\":944:1063   */\n      iszero\n      tag_101\n      jumpi\n        /* \"#utility.yul\":982:1061   */\n      tag_102\n      tag_103\n      jump\t// in\n    tag_102:\n        /* \"#utility.yul\":944:1063   */\n    tag_101:\n        /* \"#utility.yul\":1102:1103   */\n      0x00\n        /* \"#utility.yul\":1127:1180   */\n      tag_104\n        /* \"#utility.yul\":1172:1179   */\n      dup5\n        /* \"#utility.yul\":1163:1169   */\n      dup3\n        /* \"#utility.yul\":1152:1161   */\n      dup6\n        /* \"#utility.yul\":1148:1170   */\n      add\n        /* \"#utility.yul\":1127:1180   */\n      tag_81\n      jump\t// in\n    tag_104:\n        /* \"#utility.yul\":1117:1180   */\n      swap2\n      pop\n        /* \"#utility.yul\":1073:1190   */\n      pop\n        /* \"#utility.yul\":868:1197   */\n      swap3\n      swap2\n      pop\n      pop\n      jump\t// out\n        /* \"#utility.yul\":1203:2020   */\n    tag_23:\n        /* \"#utility.yul\":1291:1297   */\n      0x00\n        /* \"#utility.yul\":1299:1305   */\n      dup1\n        /* \"#utility.yul\":1307:1313   */\n      0x00\n        /* \"#utility.yul\":1315:1321   */\n      dup1\n        /* \"#utility.yul\":1364:1366   */\n      0x60\n        /* \"#utility.yul\":1352:1361   */\n      dup6\n        /* \"#utility.yul\":1343:1350   */\n      dup8\n        /* \"#utility.yul\":1339:1362   */\n      sub\n        /* \"#utility.yul\":1335:1367   */\n      slt\n        /* \"#utility.yul\":1332:1451   */\n      iszero\n      tag_106\n      jumpi\n        /* \"#utility.yul\":1370:1449   */\n      tag_107\n      tag_103\n      jump\t// in\n    tag_107:\n        /* \"#utility.yul\":1332:1451   */\n    tag_106:\n        /* \"#utility.yul\":1490:1491   */\n      0x00\n        /* \"#utility.yul\":1515:1568   */\n      tag_108\n        /* \"#utility.yul\":1560:1567   */\n      dup8\n        /* \"#utility.yul\":1551:1557   */\n      dup3\n        /* \"#utility.yul\":1540:1549   */\n      dup9\n        /* \"#utility.yul\":1536:1558   */\n      add\n        /* \"#utility.yul\":1515:1568   */\n      tag_81\n      jump\t// in\n    tag_108:\n        /* \"#utility.yul\":1505:1568   */\n      swap5\n      pop\n        /* \"#utility.yul\":1461:1578   */\n      pop\n        /* \"#utility.yul\":1617:1619   */\n      0x20\n        /* \"#utility.yul\":1643:1696   */\n      tag_109\n        /* \"#utility.yul\":1688:1695   */\n      dup8\n        /* \"#utility.yul\":1679:1685   */\n      dup3\n        /* \"#utility.yul\":1668:1677   */\n      dup9\n        /* \"#utility.yul\":1664:1686   */\n      add\n        /* \"#utility.yul\":1643:1696   */\n      tag_96\n      jump\t// in\n    tag_109:\n        /* \"#utility.yul\":1633:1696   */\n      swap4\n      pop\n        /* \"#utility.yul\":1588:1706   */\n      pop\n        /* \"#utility.yul\":1773:1775   */\n      0x40\n        /* \"#utility.yul\":1762:1771   */\n      dup6\n        /* \"#utility.yul\":1758:1776   */\n      add\n        /* \"#utility.yul\":1745:1777   */\n      calldataload\n        /* \"#utility.yul\":1804:1822   */\n      0xffffffffffffffff\n        /* \"#utility.yul\":1796:1802   */\n      dup2\n        /* \"#utility.yul\":1793:1823   */\n      gt\n        /* \"#utility.yul\":1790:1907   */\n      iszero\n      tag_110\n      jumpi\n        /* \"#utility.yul\":1826:1905   */\n      tag_111\n      tag_112\n      jump\t// in\n    tag_111:\n        /* \"#utility.yul\":1790:1907   */\n    tag_110:\n        /* \"#utility.yul\":1939:2003   */\n      tag_113\n        /* \"#utility.yul\":1995:2002   */\n      dup8\n        /* \"#utility.yul\":1986:1992   */\n      dup3\n        /* \"#utility.yul\":1975:1984   */\n      dup9\n        /* \"#utility.yul\":1971:1993   */\n      add\n        /* \"#utility.yul\":1939:2003   */\n      tag_85\n      jump\t// in\n    tag_113:\n        /* \"#utility.yul\":1921:2003   */\n      swap3\n      pop\n      swap3\n      pop\n        /* \"#utility.yul\":1716:2013   */\n      pop\n        /* \"#utility.yul\":1203:2020   */\n      swap3\n      swap6\n      swap2\n      swap5\n      pop\n      swap3\n      pop\n      jump\t// out\n        /* \"#utility.yul\":2026:2355   */\n    tag_16:\n        /* \"#utility.yul\":2085:2091   */\n      0x00\n        /* \"#utility.yul\":2134:2136   */\n      0x20\n        /* \"#utility.yul\":2122:2131   */\n      dup3\n        /* \"#utility.yul\":2113:2120   */\n      dup5\n        /* \"#utility.yul\":2109:2132   */\n      sub\n        /* \"#utility.yul\":2105:2137   */\n      slt\n        /* \"#utility.yul\":2102:2221   */\n      iszero\n      tag_115\n      jumpi\n        /* \"#utility.yul\":2140:2219   */\n      tag_116\n      tag_103\n      jump\t// in\n    tag_116:\n        /* \"#utility.yul\":2102:2221   */\n    tag_115:\n        /* \"#utility.yul\":2260:2261   */\n      0x00\n        /* \"#utility.yul\":2285:2338   */\n      tag_117\n        /* \"#utility.yul\":2330:2337   */\n      dup5\n        /* \"#utility.yul\":2321:2327   */\n      dup3\n        /* \"#utility.yul\":2310:2319   */\n      dup6\n        /* \"#utility.yul\":2306:2328   */\n      add\n        /* \"#utility.yul\":2285:2338   */\n      tag_96\n      jump\t// in\n    tag_117:\n        /* \"#utility.yul\":2275:2338   */\n      swap2\n      pop\n        /* \"#utility.yul\":2231:2348   */\n      pop\n        /* \"#utility.yul\":2026:2355   */\n      swap3\n      swap2\n      pop\n      pop\n      jump\t// out\n        /* \"#utility.yul\":2361:2835   */\n    tag_35:\n        /* \"#utility.yul\":2429:2435   */\n      0x00\n        /* \"#utility.yul\":2437:2443   */\n      dup1\n        /* \"#utility.yul\":2486:2488   */\n      0x40\n        /* \"#utility.yul\":2474:2483   */\n      dup4\n        /* \"#utility.yul\":2465:2472   */\n      dup6\n        /* \"#utility.yul\":2461:2484   */\n      sub\n        /* \"#utility.yul\":2457:2489   */\n      slt\n        /* \"#utility.yul\":2454:2573   */\n      iszero\n      tag_119\n      jumpi\n        /* \"#utility.yul\":2492:2571   */\n      tag_120\n      tag_103\n      jump\t// in\n    tag_120:\n        /* \"#utility.yul\":2454:2573   */\n    tag_119:\n        /* \"#utility.yul\":2612:2613   */\n      0x00\n        /* \"#utility.yul\":2637:2690   */\n      tag_121\n        /* \"#utility.yul\":2682:2689   */\n      dup6\n        /* \"#utility.yul\":2673:2679   */\n      dup3\n        /* \"#utility.yul\":2662:2671   */\n      dup7\n        /* \"#utility.yul\":2658:2680   */\n      add\n        /* \"#utility.yul\":2637:2690   */\n      tag_96\n      jump\t// in\n    tag_121:\n        /* \"#utility.yul\":2627:2690   */\n      swap3\n      pop\n        /* \"#utility.yul\":2583:2700   */\n      pop\n        /* \"#utility.yul\":2739:2741   */\n      0x20\n        /* \"#utility.yul\":2765:2818   */\n      tag_122\n        /* \"#utility.yul\":2810:2817   */\n      dup6\n        /* \"#utility.yul\":2801:2807   */\n      dup3\n        /* \"#utility.yul\":2790:2799   */\n      dup7\n        /* \"#utility.yul\":2786:2808   */\n      add\n        /* \"#utility.yul\":2765:2818   */\n      tag_81\n      jump\t// in\n    tag_122:\n        /* \"#utility.yul\":2755:2818   */\n      swap2\n      pop\n        /* \"#utility.yul\":2710:2828   */\n      pop\n        /* \"#utility.yul\":2361:2835   */\n      swap3\n      pop\n      swap3\n      swap1\n      pop\n      jump\t// out\n        /* \"#utility.yul\":2841:2959   */\n    tag_123:\n        /* \"#utility.yul\":2928:2952   */\n      tag_125\n        /* \"#utility.yul\":2946:2951   */\n      dup2\n        /* \"#utility.yul\":2928:2952   */\n      tag_126\n      jump\t// in\n    tag_125:\n        /* \"#utility.yul\":2923:2926   */\n      dup3\n        /* \"#utility.yul\":2916:2953   */\n      mstore\n        /* \"#utility.yul\":2841:2959   */\n      pop\n      pop\n      jump\t// out\n        /* \"#utility.yul\":2965:3074   */\n    tag_127:\n        /* \"#utility.yul\":3046:3067   */\n      tag_129\n        /* \"#utility.yul\":3061:3066   */\n      dup2\n        /* \"#utility.yul\":3046:3067   */\n      tag_130\n      jump\t// in\n    tag_129:\n        /* \"#utility.yul\":3041:3044   */\n      dup3\n        /* \"#utility.yul\":3034:3068   */\n      mstore\n        /* \"#utility.yul\":2965:3074   */\n      pop\n      pop\n      jump\t// out\n        /* \"#utility.yul\":3080:3440   */\n    tag_131:\n        /* \"#utility.yul\":3166:3169   */\n      0x00\n        /* \"#utility.yul\":3194:3232   */\n      tag_133\n        /* \"#utility.yul\":3226:3231   */\n      dup3\n        /* \"#utility.yul\":3194:3232   */\n      tag_134\n      jump\t// in\n    tag_133:\n        /* \"#utility.yul\":3248:3318   */\n      tag_135\n        /* \"#utility.yul\":3311:3317   */\n      dup2\n        /* \"#utility.yul\":3306:3309   */\n      dup6\n        /* \"#utility.yul\":3248:3318   */\n      tag_136\n      jump\t// in\n    tag_135:\n        /* \"#utility.yul\":3241:3318   */\n      swap4\n      pop\n        /* \"#utility.yul\":3327:3379   */\n      tag_137\n        /* \"#utility.yul\":3372:3378   */\n      dup2\n        /* \"#utility.yul\":3367:3370   */\n      dup6\n        /* \"#utility.yul\":3360:3364   */\n      0x20\n        /* \"#utility.yul\":3353:3358   */\n      dup7\n        /* \"#utility.yul\":3349:3365   */\n      add\n        /* \"#utility.yul\":3327:3379   */\n      tag_138\n      jump\t// in\n    tag_137:\n        /* \"#utility.yul\":3404:3433   */\n      tag_139\n        /* \"#utility.yul\":3426:3432   */\n      dup2\n        /* \"#utility.yul\":3404:3433   */\n      tag_140\n      jump\t// in\n    tag_139:\n        /* \"#utility.yul\":3399:3402   */\n      dup5\n        /* \"#utility.yul\":3395:3434   */\n      add\n        /* \"#utility.yul\":3388:3434   */\n      swap2\n      pop\n        /* \"#utility.yul\":3170:3440   */\n      pop\n        /* \"#utility.yul\":3080:3440   */\n      swap3\n      swap2\n      pop\n      pop\n      jump\t// out\n        /* \"#utility.yul\":3446:3812   */\n    tag_141:\n        /* \"#utility.yul\":3588:3591   */\n      0x00\n        /* \"#utility.yul\":3609:3676   */\n      tag_143\n        /* \"#utility.yul\":3673:3675   */\n      0x1c\n        /* \"#utility.yul\":3668:3671   */\n      dup4\n        /* \"#utility.yul\":3609:3676   */\n      tag_144\n      jump\t// in\n    tag_143:\n        /* \"#utility.yul\":3602:3676   */\n      swap2\n      pop\n        /* \"#utility.yul\":3685:3778   */\n      tag_145\n        /* \"#utility.yul\":3774:3777   */\n      dup3\n        /* \"#utility.yul\":3685:3778   */\n      tag_146\n      jump\t// in\n    tag_145:\n        /* \"#utility.yul\":3803:3805   */\n      0x20\n        /* \"#utility.yul\":3798:3801   */\n      dup3\n        /* \"#utility.yul\":3794:3806   */\n      add\n        /* \"#utility.yul\":3787:3806   */\n      swap1\n      pop\n        /* \"#utility.yul\":3446:3812   */\n      swap2\n      swap1\n      pop\n      jump\t// out\n        /* \"#utility.yul\":3818:3936   */\n    tag_147:\n        /* \"#utility.yul\":3905:3929   */\n      tag_149\n        /* \"#utility.yul\":3923:3928   */\n      dup2\n        /* \"#utility.yul\":3905:3929   */\n      tag_150\n      jump\t// in\n    tag_149:\n        /* \"#utility.yul\":3900:3903   */\n      dup3\n        /* \"#utility.yul\":3893:3930   */\n      mstore\n        /* \"#utility.yul\":3818:3936   */\n      pop\n      pop\n      jump\t// out\n        /* \"#utility.yul\":3942:4164   */\n    tag_19:\n        /* \"#utility.yul\":4035:4039   */\n      0x00\n        /* \"#utility.yul\":4073:4075   */\n      0x20\n        /* \"#utility.yul\":4062:4071   */\n      dup3\n        /* \"#utility.yul\":4058:4076   */\n      add\n        /* \"#utility.yul\":4050:4076   */\n      swap1\n      pop\n        /* \"#utility.yul\":4086:4157   */\n      tag_152\n        /* \"#utility.yul\":4154:4155   */\n      0x00\n        /* \"#utility.yul\":4143:4152   */\n      dup4\n        /* \"#utility.yul\":4139:4156   */\n      add\n        /* \"#utility.yul\":4130:4136   */\n      dup5\n        /* \"#utility.yul\":4086:4157   */\n      tag_123\n      jump\t// in\n    tag_152:\n        /* \"#utility.yul\":3942:4164   */\n      swap3\n      swap2\n      pop\n      pop\n      jump\t// out\n        /* \"#utility.yul\":4170:4798   */\n    tag_43:\n        /* \"#utility.yul\":4359:4363   */\n      0x00\n        /* \"#utility.yul\":4397:4400   */\n      0x80\n        /* \"#utility.yul\":4386:4395   */\n      dup3\n        /* \"#utility.yul\":4382:4401   */\n      add\n        /* \"#utility.yul\":4374:4401   */\n      swap1\n      pop\n        /* \"#utility.yul\":4411:4482   */\n      tag_154\n        /* \"#utility.yul\":4479:4480   */\n      0x00\n        /* \"#utility.yul\":4468:4477   */\n      dup4\n        /* \"#utility.yul\":4464:4481   */\n      add\n        /* \"#utility.yul\":4455:4461   */\n      dup8\n        /* \"#utility.yul\":4411:4482   */\n      tag_123\n      jump\t// in\n    tag_154:\n        /* \"#utility.yul\":4492:4564   */\n      tag_155\n        /* \"#utility.yul\":4560:4562   */\n      0x20\n        /* \"#utility.yul\":4549:4558   */\n      dup4\n        /* \"#utility.yul\":4545:4563   */\n      add\n        /* \"#utility.yul\":4536:4542   */\n      dup7\n        /* \"#utility.yul\":4492:4564   */\n      tag_147\n      jump\t// in\n    tag_155:\n        /* \"#utility.yul\":4611:4620   */\n      dup2\n        /* \"#utility.yul\":4605:4609   */\n      dup2\n        /* \"#utility.yul\":4601:4621   */\n      sub\n        /* \"#utility.yul\":4596:4598   */\n      0x40\n        /* \"#utility.yul\":4585:4594   */\n      dup4\n        /* \"#utility.yul\":4581:4599   */\n      add\n        /* \"#utility.yul\":4574:4622   */\n      mstore\n        /* \"#utility.yul\":4639:4715   */\n      tag_156\n        /* \"#utility.yul\":4710:4714   */\n      dup2\n        /* \"#utility.yul\":4701:4707   */\n      dup6\n        /* \"#utility.yul\":4639:4715   */\n      tag_131\n      jump\t// in\n    tag_156:\n        /* \"#utility.yul\":4631:4715   */\n      swap1\n      pop\n        /* \"#utility.yul\":4725:4791   */\n      tag_157\n        /* \"#utility.yul\":4787:4789   */\n      0x60\n        /* \"#utility.yul\":4776:4785   */\n      dup4\n        /* \"#utility.yul\":4772:4790   */\n      add\n        /* \"#utility.yul\":4763:4769   */\n      dup5\n        /* \"#utility.yul\":4725:4791   */\n      tag_127\n      jump\t// in\n    tag_157:\n        /* \"#utility.yul\":4170:4798   */\n      swap6\n      swap5\n      pop\n      pop\n      pop\n      pop\n      pop\n      jump\t// out\n        /* \"#utility.yul\":4804:5246   */\n    tag_12:\n        /* \"#utility.yul\":4953:4957   */\n      0x00\n        /* \"#utility.yul\":4991:4993   */\n      0x60\n        /* \"#utility.yul\":4980:4989   */\n      dup3\n        /* \"#utility.yul\":4976:4994   */\n      add\n        /* \"#utility.yul\":4968:4994   */\n      swap1\n      pop\n        /* \"#utility.yul\":5004:5075   */\n      tag_159\n        /* \"#utility.yul\":5072:5073   */\n      0x00\n        /* \"#utility.yul\":5061:5070   */\n      dup4\n        /* \"#utility.yul\":5057:5074   */\n      add\n        /* \"#utility.yul\":5048:5054   */\n      dup7\n        /* \"#utility.yul\":5004:5075   */\n      tag_123\n      jump\t// in\n    tag_159:\n        /* \"#utility.yul\":5085:5157   */\n      tag_160\n        /* \"#utility.yul\":5153:5155   */\n      0x20\n        /* \"#utility.yul\":5142:5151   */\n      dup4\n        /* \"#utility.yul\":5138:5156   */\n      add\n        /* \"#utility.yul\":5129:5135   */\n      dup6\n        /* \"#utility.yul\":5085:5157   */\n      tag_147\n      jump\t// in\n    tag_160:\n        /* \"#utility.yul\":5167:5239   */\n      tag_161\n        /* \"#utility.yul\":5235:5237   */\n      0x40\n        /* \"#utility.yul\":5224:5233   */\n      dup4\n        /* \"#utility.yul\":5220:5238   */\n      add\n        /* \"#utility.yul\":5211:5217   */\n      dup5\n        /* \"#utility.yul\":5167:5239   */\n      tag_147\n      jump\t// in\n    tag_161:\n        /* \"#utility.yul\":4804:5246   */\n      swap5\n      swap4\n      pop\n      pop\n      pop\n      pop\n      jump\t// out\n        /* \"#utility.yul\":5252:5462   */\n    tag_31:\n        /* \"#utility.yul\":5339:5343   */\n      0x00\n        /* \"#utility.yul\":5377:5379   */\n      0x20\n        /* \"#utility.yul\":5366:5375   */\n      dup3\n        /* \"#utility.yul\":5362:5380   */\n      add\n        /* \"#utility.yul\":5354:5380   */\n      swap1\n      pop\n        /* \"#utility.yul\":5390:5455   */\n      tag_163\n        /* \"#utility.yul\":5452:5453   */\n      0x00\n        /* \"#utility.yul\":5441:5450   */\n      dup4\n        /* \"#utility.yul\":5437:5454   */\n      add\n        /* \"#utility.yul\":5428:5434   */\n      dup5\n        /* \"#utility.yul\":5390:5455   */\n      tag_127\n      jump\t// in\n    tag_163:\n        /* \"#utility.yul\":5252:5462   */\n      swap3\n      swap2\n      pop\n      pop\n      jump\t// out\n        /* \"#utility.yul\":5468:5887   */\n    tag_54:\n        /* \"#utility.yul\":5634:5638   */\n      0x00\n        /* \"#utility.yul\":5672:5674   */\n      0x20\n        /* \"#utility.yul\":5661:5670   */\n      dup3\n        /* \"#utility.yul\":5657:5675   */\n      add\n        /* \"#utility.yul\":5649:5675   */\n      swap1\n      pop\n        /* \"#utility.yul\":5721:5730   */\n      dup2\n        /* \"#utility.yul\":5715:5719   */\n      dup2\n        /* \"#utility.yul\":5711:5731   */\n      sub\n        /* \"#utility.yul\":5707:5708   */\n      0x00\n        /* \"#utility.yul\":5696:5705   */\n      dup4\n        /* \"#utility.yul\":5692:5709   */\n      add\n        /* \"#utility.yul\":5685:5732   */\n      mstore\n        /* \"#utility.yul\":5749:5880   */\n      tag_165\n        /* \"#utility.yul\":5875:5879   */\n      dup2\n        /* \"#utility.yul\":5749:5880   */\n      tag_141\n      jump\t// in\n    tag_165:\n        /* \"#utility.yul\":5741:5880   */\n      swap1\n      pop\n        /* \"#utility.yul\":5468:5887   */\n      swap2\n      swap1\n      pop\n      jump\t// out\n        /* \"#utility.yul\":5893:6115   */\n    tag_48:\n        /* \"#utility.yul\":5986:5990   */\n      0x00\n        /* \"#utility.yul\":6024:6026   */\n      0x20\n        /* \"#utility.yul\":6013:6022   */\n      dup3\n        /* \"#utility.yul\":6009:6027   */\n      add\n        /* \"#utility.yul\":6001:6027   */\n      swap1\n      pop\n        /* \"#utility.yul\":6037:6108   */\n      tag_167\n        /* \"#utility.yul\":6105:6106   */\n      0x00\n        /* \"#utility.yul\":6094:6103   */\n      dup4\n        /* \"#utility.yul\":6090:6107   */\n      add\n        /* \"#utility.yul\":6081:6087   */\n      dup5\n        /* \"#utility.yul\":6037:6108   */\n      tag_147\n      jump\t// in\n    tag_167:\n        /* \"#utility.yul\":5893:6115   */\n      swap3\n      swap2\n      pop\n      pop\n      jump\t// out\n        /* \"#utility.yul\":6202:6300   */\n    tag_134:\n        /* \"#utility.yul\":6253:6259   */\n      0x00\n        /* \"#utility.yul\":6287:6292   */\n      dup2\n        /* \"#utility.yul\":6281:6293   */\n      mload\n        /* \"#utility.yul\":6271:6293   */\n      swap1\n      pop\n        /* \"#utility.yul\":6202:6300   */\n      swap2\n      swap1\n      pop\n      jump\t// out\n        /* \"#utility.yul\":6306:6474   */\n    tag_136:\n        /* \"#utility.yul\":6389:6400   */\n      0x00\n        /* \"#utility.yul\":6423:6429   */\n      dup3\n        /* \"#utility.yul\":6418:6421   */\n      dup3\n        /* \"#utility.yul\":6411:6430   */\n      mstore\n        /* \"#utility.yul\":6463:6467   */\n      0x20\n        /* \"#utility.yul\":6458:6461   */\n      dup3\n        /* \"#utility.yul\":6454:6468   */\n      add\n        /* \"#utility.yul\":6439:6468   */\n      swap1\n      pop\n        /* \"#utility.yul\":6306:6474   */\n      swap3\n      swap2\n      pop\n      pop\n      jump\t// out\n        /* \"#utility.yul\":6480:6649   */\n    tag_144:\n        /* \"#utility.yul\":6564:6575   */\n      0x00\n        /* \"#utility.yul\":6598:6604   */\n      dup3\n        /* \"#utility.yul\":6593:6596   */\n      dup3\n        /* \"#utility.yul\":6586:6605   */\n      mstore\n        /* \"#utility.yul\":6638:6642   */\n      0x20\n        /* \"#utility.yul\":6633:6636   */\n      dup3\n        /* \"#utility.yul\":6629:6643   */\n      add\n        /* \"#utility.yul\":6614:6643   */\n      swap1\n      pop\n        /* \"#utility.yul\":6480:6649   */\n      swap3\n      swap2\n      pop\n      pop\n      jump\t// out\n        /* \"#utility.yul\":6655:6846   */\n    tag_60:\n        /* \"#utility.yul\":6695:6699   */\n      0x00\n        /* \"#utility.yul\":6715:6735   */\n      tag_174\n        /* \"#utility.yul\":6733:6734   */\n      dup3\n        /* \"#utility.yul\":6715:6735   */\n      tag_150\n      jump\t// in\n    tag_174:\n        /* \"#utility.yul\":6710:6735   */\n      swap2\n      pop\n        /* \"#utility.yul\":6749:6769   */\n      tag_175\n        /* \"#utility.yul\":6767:6768   */\n      dup4\n        /* \"#utility.yul\":6749:6769   */\n      tag_150\n      jump\t// in\n    tag_175:\n        /* \"#utility.yul\":6744:6769   */\n      swap3\n      pop\n        /* \"#utility.yul\":6788:6789   */\n      dup3\n        /* \"#utility.yul\":6785:6786   */\n      dup3\n        /* \"#utility.yul\":6782:6790   */\n      lt\n        /* \"#utility.yul\":6779:6813   */\n      iszero\n      tag_176\n      jumpi\n        /* \"#utility.yul\":6793:6811   */\n      tag_177\n      tag_178\n      jump\t// in\n    tag_177:\n        /* \"#utility.yul\":6779:6813   */\n    tag_176:\n        /* \"#utility.yul\":6838:6839   */\n      dup3\n        /* \"#utility.yul\":6835:6836   */\n      dup3\n        /* \"#utility.yul\":6831:6840   */\n      sub\n        /* \"#utility.yul\":6823:6840   */\n      swap1\n      pop\n        /* \"#utility.yul\":6655:6846   */\n      swap3\n      swap2\n      pop\n      pop\n      jump\t// out\n        /* \"#utility.yul\":6852:6948   */\n    tag_126:\n        /* \"#utility.yul\":6889:6896   */\n      0x00\n        /* \"#utility.yul\":6918:6942   */\n      tag_180\n        /* \"#utility.yul\":6936:6941   */\n      dup3\n        /* \"#utility.yul\":6918:6942   */\n      tag_181\n      jump\t// in\n    tag_180:\n        /* \"#utility.yul\":6907:6942   */\n      swap1\n      pop\n        /* \"#utility.yul\":6852:6948   */\n      swap2\n      swap1\n      pop\n      jump\t// out\n        /* \"#utility.yul\":6954:7044   */\n    tag_130:\n        /* \"#utility.yul\":6988:6995   */\n      0x00\n        /* \"#utility.yul\":7031:7036   */\n      dup2\n        /* \"#utility.yul\":7024:7037   */\n      iszero\n        /* \"#utility.yul\":7017:7038   */\n      iszero\n        /* \"#utility.yul\":7006:7038   */\n      swap1\n      pop\n        /* \"#utility.yul\":6954:7044   */\n      swap2\n      swap1\n      pop\n      jump\t// out\n        /* \"#utility.yul\":7050:7176   */\n    tag_181:\n        /* \"#utility.yul\":7087:7094   */\n      0x00\n        /* \"#utility.yul\":7127:7169   */\n      0xffffffffffffffffffffffffffffffffffffffff\n        /* \"#utility.yul\":7120:7125   */\n      dup3\n        /* \"#utility.yul\":7116:7170   */\n      and\n        /* \"#utility.yul\":7105:7170   */\n      swap1\n      pop\n        /* \"#utility.yul\":7050:7176   */\n      swap2\n      swap1\n      pop\n      jump\t// out\n        /* \"#utility.yul\":7182:7259   */\n    tag_150:\n        /* \"#utility.yul\":7219:7226   */\n      0x00\n        /* \"#utility.yul\":7248:7253   */\n      dup2\n        /* \"#utility.yul\":7237:7253   */\n      swap1\n      pop\n        /* \"#utility.yul\":7182:7259   */\n      swap2\n      swap1\n      pop\n      jump\t// out\n        /* \"#utility.yul\":7265:7572   */\n    tag_138:\n        /* \"#utility.yul\":7333:7334   */\n      0x00\n        /* \"#utility.yul\":7343:7456   */\n    tag_186:\n        /* \"#utility.yul\":7357:7363   */\n      dup4\n        /* \"#utility.yul\":7354:7355   */\n      dup2\n        /* \"#utility.yul\":7351:7364   */\n      lt\n        /* \"#utility.yul\":7343:7456   */\n      iszero\n      tag_188\n      jumpi\n        /* \"#utility.yul\":7442:7443   */\n      dup1\n        /* \"#utility.yul\":7437:7440   */\n      dup3\n        /* \"#utility.yul\":7433:7444   */\n      add\n        /* \"#utility.yul\":7427:7445   */\n      mload\n        /* \"#utility.yul\":7423:7424   */\n      dup2\n        /* \"#utility.yul\":7418:7421   */\n      dup5\n        /* \"#utility.yul\":7414:7425   */\n      add\n        /* \"#utility.yul\":7407:7446   */\n      mstore\n        /* \"#utility.yul\":7379:7381   */\n      0x20\n        /* \"#utility.yul\":7376:7377   */\n      dup2\n        /* \"#utility.yul\":7372:7382   */\n      add\n        /* \"#utility.yul\":7367:7382   */\n      swap1\n      pop\n        /* \"#utility.yul\":7343:7456   */\n      jump(tag_186)\n    tag_188:\n        /* \"#utility.yul\":7474:7480   */\n      dup4\n        /* \"#utility.yul\":7471:7472   */\n      dup2\n        /* \"#utility.yul\":7468:7481   */\n      gt\n        /* \"#utility.yul\":7465:7566   */\n      iszero\n      tag_189\n      jumpi\n        /* \"#utility.yul\":7554:7555   */\n      0x00\n        /* \"#utility.yul\":7545:7551   */\n      dup5\n        /* \"#utility.yul\":7540:7543   */\n      dup5\n        /* \"#utility.yul\":7536:7552   */\n      add\n        /* \"#utility.yul\":7529:7556   */\n      mstore\n        /* \"#utility.yul\":7465:7566   */\n    tag_189:\n        /* \"#utility.yul\":7314:7572   */\n      pop\n        /* \"#utility.yul\":7265:7572   */\n      pop\n      pop\n      pop\n      jump\t// out\n        /* \"#utility.yul\":7578:7898   */\n    tag_65:\n        /* \"#utility.yul\":7622:7628   */\n      0x00\n        /* \"#utility.yul\":7659:7660   */\n      0x02\n        /* \"#utility.yul\":7653:7657   */\n      dup3\n        /* \"#utility.yul\":7649:7661   */\n      div\n        /* \"#utility.yul\":7639:7661   */\n      swap1\n      pop\n        /* \"#utility.yul\":7706:7707   */\n      0x01\n        /* \"#utility.yul\":7700:7704   */\n      dup3\n        /* \"#utility.yul\":7696:7708   */\n      and\n        /* \"#utility.yul\":7727:7745   */\n      dup1\n        /* \"#utility.yul\":7717:7798   */\n      tag_191\n      jumpi\n        /* \"#utility.yul\":7783:7787   */\n      0x7f\n        /* \"#utility.yul\":7775:7781   */\n      dup3\n        /* \"#utility.yul\":7771:7788   */\n      and\n        /* \"#utility.yul\":7761:7788   */\n      swap2\n      pop\n        /* \"#utility.yul\":7717:7798   */\n    tag_191:\n        /* \"#utility.yul\":7845:7847   */\n      0x20\n        /* \"#utility.yul\":7837:7843   */\n      dup3\n        /* \"#utility.yul\":7834:7848   */\n      lt\n        /* \"#utility.yul\":7814:7832   */\n      dup2\n        /* \"#utility.yul\":7811:7849   */\n      eq\n        /* \"#utility.yul\":7808:7892   */\n      iszero\n      tag_192\n      jumpi\n        /* \"#utility.yul\":7864:7882   */\n      tag_193\n      tag_194\n      jump\t// in\n    tag_193:\n        /* \"#utility.yul\":7808:7892   */\n    tag_192:\n        /* \"#utility.yul\":7629:7898   */\n      pop\n        /* \"#utility.yul\":7578:7898   */\n      swap2\n      swap1\n      pop\n      jump\t// out\n        /* \"#utility.yul\":7904:8084   */\n    tag_178:\n        /* \"#utility.yul\":7952:8029   */\n      0x4e487b7100000000000000000000000000000000000000000000000000000000\n        /* \"#utility.yul\":7949:7950   */\n      0x00\n        /* \"#utility.yul\":7942:8030   */\n      mstore\n        /* \"#utility.yul\":8049:8053   */\n      0x11\n        /* \"#utility.yul\":8046:8047   */\n      0x04\n        /* \"#utility.yul\":8039:8054   */\n      mstore\n        /* \"#utility.yul\":8073:8077   */\n      0x24\n        /* \"#utility.yul\":8070:8071   */\n      0x00\n        /* \"#utility.yul\":8063:8078   */\n      revert\n        /* \"#utility.yul\":8090:8270   */\n    tag_194:\n        /* \"#utility.yul\":8138:8215   */\n      0x4e487b7100000000000000000000000000000000000000000000000000000000\n        /* \"#utility.yul\":8135:8136   */\n      0x00\n        /* \"#utility.yul\":8128:8216   */\n      mstore\n        /* \"#utility.yul\":8235:8239   */\n      0x22\n        /* \"#utility.yul\":8232:8233   */\n      0x04\n        /* \"#utility.yul\":8225:8240   */\n      mstore\n        /* \"#utility.yul\":8259:8263   */\n      0x24\n        /* \"#utility.yul\":8256:8257   */\n      0x00\n        /* \"#utility.yul\":8249:8264   */\n      revert\n        /* \"#utility.yul\":8276:8393   */\n    tag_92:\n        /* \"#utility.yul\":8385:8386   */\n      0x00\n        /* \"#utility.yul\":8382:8383   */\n      dup1\n        /* \"#utility.yul\":8375:8387   */\n      revert\n        /* \"#utility.yul\":8399:8516   */\n    tag_89:\n        /* \"#utility.yul\":8508:8509   */\n      0x00\n        /* \"#utility.yul\":8505:8506   */\n      dup1\n        /* \"#utility.yul\":8498:8510   */\n      revert\n        /* \"#utility.yul\":8522:8639   */\n    tag_95:\n        /* \"#utility.yul\":8631:8632   */\n      0x00\n        /* \"#utility.yul\":8628:8629   */\n      dup1\n        /* \"#utility.yul\":8621:8633   */\n      revert\n        /* \"#utility.yul\":8645:8762   */\n    tag_112:\n        /* \"#utility.yul\":8754:8755   */\n      0x00\n        /* \"#utility.yul\":8751:8752   */\n      dup1\n        /* \"#utility.yul\":8744:8756   */\n      revert\n        /* \"#utility.yul\":8768:8885   */\n    tag_103:\n        /* \"#utility.yul\":8877:8878   */\n      0x00\n        /* \"#utility.yul\":8874:8875   */\n      dup1\n        /* \"#utility.yul\":8867:8879   */\n      revert\n        /* \"#utility.yul\":8891:8993   */\n    tag_140:\n        /* \"#utility.yul\":8932:8938   */\n      0x00\n        /* \"#utility.yul\":8983:8985   */\n      0x1f\n        /* \"#utility.yul\":8979:8986   */\n      not\n        /* \"#utility.yul\":8974:8976   */\n      0x1f\n        /* \"#utility.yul\":8967:8972   */\n      dup4\n        /* \"#utility.yul\":8963:8977   */\n      add\n        /* \"#utility.yul\":8959:8987   */\n      and\n        /* \"#utility.yul\":8949:8987   */\n      swap1\n      pop\n        /* \"#utility.yul\":8891:8993   */\n      swap2\n      swap1\n      pop\n      jump\t// out\n        /* \"#utility.yul\":8999:9177   */\n    tag_146:\n        /* \"#utility.yul\":9139:9169   */\n      0x4f6e6c79206f776e65722063616e2063616c6c2066756e6374696f6e00000000\n        /* \"#utility.yul\":9135:9136   */\n      0x00\n        /* \"#utility.yul\":9127:9133   */\n      dup3\n        /* \"#utility.yul\":9123:9137   */\n      add\n        /* \"#utility.yul\":9116:9170   */\n      mstore\n        /* \"#utility.yul\":8999:9177   */\n      pop\n      jump\t// out\n        /* \"#utility.yul\":9183:9305   */\n    tag_84:\n        /* \"#utility.yul\":9256:9280   */\n      tag_205\n        /* \"#utility.yul\":9274:9279   */\n      dup2\n        /* \"#utility.yul\":9256:9280   */\n      tag_126\n      jump\t// in\n    tag_205:\n        /* \"#utility.yul\":9249:9254   */\n      dup2\n        /* \"#utility.yul\":9246:9281   */\n      eq\n        /* \"#utility.yul\":9236:9299   */\n      tag_206\n      jumpi\n        /* \"#utility.yul\":9295:9296   */\n      0x00\n        /* \"#utility.yul\":9292:9293   */\n      dup1\n        /* \"#utility.yul\":9285:9297   */\n      revert\n        /* \"#utility.yul\":9236:9299   */\n    tag_206:\n        /* \"#utility.yul\":9183:9305   */\n      pop\n      jump\t// out\n        /* \"#utility.yul\":9311:9433   */\n    tag_99:\n        /* \"#utility.yul\":9384:9408   */\n      tag_208\n        /* \"#utility.yul\":9402:9407   */\n      dup2\n        /* \"#utility.yul\":9384:9408   */\n      tag_150\n      jump\t// in\n    tag_208:\n        /* \"#utility.yul\":9377:9382   */\n      dup2\n        /* \"#utility.yul\":9374:9409   */\n      eq\n        /* \"#utility.yul\":9364:9427   */\n      tag_209\n      jumpi\n        /* \"#utility.yul\":9423:9424   */\n      0x00\n        /* \"#utility.yul\":9420:9421   */\n      dup1\n        /* \"#utility.yul\":9413:9425   */\n      revert\n        /* \"#utility.yul\":9364:9427   */\n    tag_209:\n        /* \"#utility.yul\":9311:9433   */\n      pop\n      jump\t// out\n\n    auxdata: 0xa2646970667358221220787cef790bc0029078b976779dc8b2ab553f7ca2d6092ada88f325935be6aa9064736f6c63430008070033\n}\n",
				"bytecode": {
					"linkReferences": {},
					"object": "60806040523480156200001157600080fd5b506040516200136a3803806200136a8339818101604052810190620000379190620003c3565b60008251116200007e576040517f08c379a0000000000000000000000000000000000000000000000000000000008152600401620000759062000509565b60405180910390fd5b600060025411801562000092575081518111155b620000d4576040517f08c379a0000000000000000000000000000000000000000000000000000000008152600401620000cb906200052b565b60405180910390fd5b60005b8251811015620002d7576000838281518110620000f957620000f8620006a7565b5b60200260200101519050600073ffffffffffffffffffffffffffffffffffffffff168173ffffffffffffffffffffffffffffffffffffffff16141562000176576040517f08c379a00000000000000000000000000000000000000000000000000000000081526004016200016d90620004e7565b60405180910390fd5b600160008273ffffffffffffffffffffffffffffffffffffffff1673ffffffffffffffffffffffffffffffffffffffff16815260200190815260200160002060009054906101000a900460ff161562000206576040517f08c379a0000000000000000000000000000000000000000000000000000000008152600401620001fd90620004c5565b60405180910390fd5b60018060008373ffffffffffffffffffffffffffffffffffffffff1673ffffffffffffffffffffffffffffffffffffffff16815260200190815260200160002060006101000a81548160ff0219169083151502179055506000819080600181540180825580915050600190039060005260206000200160009091909190916101000a81548173ffffffffffffffffffffffffffffffffffffffff021916908373ffffffffffffffffffffffffffffffffffffffff160217905550508080620002ce906200062a565b915050620000d7565b5080600281905550505062000802565b6000620002fe620002f88462000576565b6200054d565b905080838252602082019050828560208602820111156200032457620003236200070a565b5b60005b858110156200035857816200033d888262000362565b84526020840193506020830192505060018101905062000327565b5050509392505050565b6000815190506200037381620007ce565b92915050565b600082601f83011262000391576200039062000705565b5b8151620003a3848260208601620002e7565b91505092915050565b600081519050620003bd81620007e8565b92915050565b60008060408385031215620003dd57620003dc62000714565b5b600083015167ffffffffffffffff811115620003fe57620003fd6200070f565b5b6200040c8582860162000379565b92505060206200041f85828601620003ac565b9150509250929050565b600062000438601383620005a5565b915062000445826200072a565b602082019050919050565b60006200045f600d83620005a5565b91506200046c8262000753565b602082019050919050565b600062000486600f83620005a5565b915062000493826200077c565b602082019050919050565b6000620004ad601883620005a5565b9150620004ba82620007a5565b602082019050919050565b60006020820190508181036000830152620004e08162000429565b9050919050565b60006020820190508181036000830152620005028162000450565b9050919050565b60006020820190508181036000830152620005248162000477565b9050919050565b6000602082019050818103600083015262000546816200049e565b9050919050565b6000620005596200056c565b9050620005678282620005f4565b919050565b6000604051905090565b600067ffffffffffffffff821115620005945762000593620006d6565b5b602082029050602081019050919050565b600082825260208201905092915050565b6000620005c382620005ca565b9050919050565b600073ffffffffffffffffffffffffffffffffffffffff82169050919050565b6000819050919050565b620005ff8262000719565b810181811067ffffffffffffffff82111715620006215762000620620006d6565b5b80604052505050565b60006200063782620005ea565b91507fffffffffffffffffffffffffffffffffffffffffffffffffffffffffffffffff8214156200066d576200066c62000678565b5b600182019050919050565b7f4e487b7100000000000000000000000000000000000000000000000000000000600052601160045260246000fd5b7f4e487b7100000000000000000000000000000000000000000000000000000000600052603260045260246000fd5b7f4e487b7100000000000000000000000000000000000000000000000000000000600052604160045260246000fd5b600080fd5b600080fd5b600080fd5b600080fd5b6000601f19601f8301169050919050565b7f6f776e6572206973206e6f7420756e6971756500000000000000000000000000600082015250565b7f496e76616c6964206f776e657200000000000000000000000000000000000000600082015250565b7f6f776e6572732072657175697265640000000000000000000000000000000000600082015250565b7f496e76616c6964206e756d626572206f66206f776e6572730000000000000000600082015250565b620007d981620005b6565b8114620007e557600080fd5b50565b620007f381620005ea565b8114620007ff57600080fd5b50565b610b5880620008126000396000f3fe6080604052600436106100595760003560e01c8063025e7c27146100a057806314de327f146100dd5780632f54bf6e146101065780638253951a146101435780639ace38c214610180578063dc8452cd146101c05761009b565b3661009b577f90890809c654f11d6e72a28fa60149770a0d11ec6c92319d6ceb2bb0a4ea1a15333447604051610091939291906108a8565b60405180910390a1005b600080fd5b3480156100ac57600080fd5b506100c760048036038101906100c2919061074b565b6101eb565b6040516100d49190610841565b60405180910390f35b3480156100e957600080fd5b5061010460048036038101906100ff91906106d7565b61022a565b005b34801561011257600080fd5b5061012d600480360381019061012891906106aa565b61043d565b60405161013a91906108df565b60405180910390f35b34801561014f57600080fd5b5061016a60048036038101906101659190610778565b61045d565b60405161017791906108df565b60405180910390f35b34801561018c57600080fd5b506101a760048036038101906101a2919061074b565b61048c565b6040516101b7949392919061085c565b60405180910390f35b3480156101cc57600080fd5b506101d5610581565b6040516101e2919061091a565b60405180910390f35b600081815481106101fb57600080fd5b906000526020600020016000915054906101000a900473ffffffffffffffffffffffffffffffffffffffff1681565b600160003373ffffffffffffffffffffffffffffffffffffffff1673ffffffffffffffffffffffffffffffffffffffff16815260200190815260200160002060009054906101000a900460ff166102b6576040517f08c379a00000000000000000000000000000000000000000000000000000000081526004016102ad906108fa565b60405180910390fd5b600360405180608001604052808673ffffffffffffffffffffffffffffffffffffffff16815260200185815260200184848080601f016020809104026020016040519081016040528093929190818152602001838380828437600081840152601f19601f82011690508083019250505050505050815260200160001515815250908060018154018082558091505060019003906000526020600020906004020160009091909190915060008201518160000160006101000a81548173ffffffffffffffffffffffffffffffffffffffff021916908373ffffffffffffffffffffffffffffffffffffffff1602179055506020820151816001015560408201518160020190805190602001906103cc929190610587565b5060608201518160030160006101000a81548160ff02191690831515021790555050507f08324b3d745b914e3abd4ffbfead91e3b78391a98c173202129215ab933adfbe60016003805490506104229190610962565b60405161042f919061091a565b60405180910390a150505050565b60016020528060005260406000206000915054906101000a900460ff1681565b60046020528160005260406000206020528060005260406000206000915091509054906101000a900460ff1681565b6003818154811061049c57600080fd5b90600052602060002090600402016000915090508060000160009054906101000a900473ffffffffffffffffffffffffffffffffffffffff16908060010154908060020180546104eb90610a11565b80601f016020809104026020016040519081016040528092919081815260200182805461051790610a11565b80156105645780601f1061053957610100808354040283529160200191610564565b820191906000526020600020905b81548152906001019060200180831161054757829003601f168201915b5050505050908060030160009054906101000a900460ff16905084565b60025481565b82805461059390610a11565b90600052602060002090601f0160209004810192826105b557600085556105fc565b82601f106105ce57805160ff19168380011785556105fc565b828001600101855582156105fc579182015b828111156105fb5782518255916020019190600101906105e0565b5b509050610609919061060d565b5090565b5b8082111561062657600081600090555060010161060e565b5090565b60008135905061063981610af4565b92915050565b60008083601f84011261065557610654610aa6565b5b8235905067ffffffffffffffff81111561067257610671610aa1565b5b60208301915083600182028301111561068e5761068d610aab565b5b9250929050565b6000813590506106a481610b0b565b92915050565b6000602082840312156106c0576106bf610ab5565b5b60006106ce8482850161062a565b91505092915050565b600080600080606085870312156106f1576106f0610ab5565b5b60006106ff8782880161062a565b945050602061071087828801610695565b935050604085013567ffffffffffffffff81111561073157610730610ab0565b5b61073d8782880161063f565b925092505092959194509250565b60006020828403121561076157610760610ab5565b5b600061076f84828501610695565b91505092915050565b6000806040838503121561078f5761078e610ab5565b5b600061079d85828601610695565b92505060206107ae8582860161062a565b9150509250929050565b6107c181610996565b82525050565b6107d0816109a8565b82525050565b60006107e182610935565b6107eb8185610940565b93506107fb8185602086016109de565b61080481610aba565b840191505092915050565b600061081c601c83610951565b915061082782610acb565b602082019050919050565b61083b816109d4565b82525050565b600060208201905061085660008301846107b8565b92915050565b600060808201905061087160008301876107b8565b61087e6020830186610832565b818103604083015261089081856107d6565b905061089f60608301846107c7565b95945050505050565b60006060820190506108bd60008301866107b8565b6108ca6020830185610832565b6108d76040830184610832565b949350505050565b60006020820190506108f460008301846107c7565b92915050565b600060208201905081810360008301526109138161080f565b9050919050565b600060208201905061092f6000830184610832565b92915050565b600081519050919050565b600082825260208201905092915050565b600082825260208201905092915050565b600061096d826109d4565b9150610978836109d4565b92508282101561098b5761098a610a43565b5b828203905092915050565b60006109a1826109b4565b9050919050565b60008115159050919050565b600073ffffffffffffffffffffffffffffffffffffffff82169050919050565b6000819050919050565b60005b838110156109fc5780820151818401526020810190506109e1565b83811115610a0b576000848401525b50505050565b60006002820490506001821680610a2957607f821691505b60208210811415610a3d57610a3c610a72565b5b50919050565b7f4e487b7100000000000000000000000000000000000000000000000000000000600052601160045260246000fd5b7f4e487b7100000000000000000000000000000000000000000000000000000000600052602260045260246000fd5b600080fd5b600080fd5b600080fd5b600080fd5b600080fd5b6000601f19601f8301169050919050565b7f4f6e6c79206f776e65722063616e2063616c6c2066756e6374696f6e00000000600082015250565b610afd81610996565b8114610b0857600080fd5b50565b610b14816109d4565b8114610b1f57600080fd5b5056fea2646970667358221220787cef790bc0029078b976779dc8b2ab553f7ca2d6092ada88f325935be6aa9064736f6c63430008070033",
					"opcodes": "PUSH1 0x80 PUSH1 0x40 MSTORE CALLVALUE DUP1 ISZERO PUSH3 0x11 JUMPI PUSH1 0x0 DUP1 REVERT JUMPDEST POP PUSH1 0x40 MLOAD PUSH3 0x136A CODESIZE SUB DUP1 PUSH3 0x136A DUP4 CODECOPY DUP2 DUP2 ADD PUSH1 0x40 MSTORE DUP2 ADD SWAP1 PUSH3 0x37 SWAP2 SWAP1 PUSH3 0x3C3 JUMP JUMPDEST PUSH1 0x0 DUP3 MLOAD GT PUSH3 0x7E JUMPI PUSH1 0x40 MLOAD PUSH32 0x8C379A000000000000000000000000000000000000000000000000000000000 DUP2 MSTORE PUSH1 0x4 ADD PUSH3 0x75 SWAP1 PUSH3 0x509 JUMP JUMPDEST PUSH1 0x40 MLOAD DUP1 SWAP2 SUB SWAP1 REVERT JUMPDEST PUSH1 0x0 PUSH1 0x2 SLOAD GT DUP1 ISZERO PUSH3 0x92 JUMPI POP DUP2 MLOAD DUP2 GT ISZERO JUMPDEST PUSH3 0xD4 JUMPI PUSH1 0x40 MLOAD PUSH32 0x8C379A000000000000000000000000000000000000000000000000000000000 DUP2 MSTORE PUSH1 0x4 ADD PUSH3 0xCB SWAP1 PUSH3 0x52B JUMP JUMPDEST PUSH1 0x40 MLOAD DUP1 SWAP2 SUB SWAP1 REVERT JUMPDEST PUSH1 0x0 JUMPDEST DUP3 MLOAD DUP2 LT ISZERO PUSH3 0x2D7 JUMPI PUSH1 0x0 DUP4 DUP3 DUP2 MLOAD DUP2 LT PUSH3 0xF9 JUMPI PUSH3 0xF8 PUSH3 0x6A7 JUMP JUMPDEST JUMPDEST PUSH1 0x20 MUL PUSH1 0x20 ADD ADD MLOAD SWAP1 POP PUSH1 0x0 PUSH20 0xFFFFFFFFFFFFFFFFFFFFFFFFFFFFFFFFFFFFFFFF AND DUP2 PUSH20 0xFFFFFFFFFFFFFFFFFFFFFFFFFFFFFFFFFFFFFFFF AND EQ ISZERO PUSH3 0x176 JUMPI PUSH1 0x40 MLOAD PUSH32 0x8C379A000000000000000000000000000000000000000000000000000000000 DUP2 MSTORE PUSH1 0x4 ADD PUSH3 0x16D SWAP1 PUSH3 0x4E7 JUMP JUMPDEST PUSH1 0x40 MLOAD DUP1 SWAP2 SUB SWAP1 REVERT JUMPDEST PUSH1 0x1 PUSH1 0x0 DUP3 PUSH20 0xFFFFFFFFFFFFFFFFFFFFFFFFFFFFFFFFFFFFFFFF AND PUSH20 0xFFFFFFFFFFFFFFFFFFFFFFFFFFFFFFFFFFFFFFFF AND DUP2 MSTORE PUSH1 0x20 ADD SWAP1 DUP2 MSTORE PUSH1 0x20 ADD PUSH1 0x0 KECCAK256 PUSH1 0x0 SWAP1 SLOAD SWAP1 PUSH2 0x100 EXP SWAP1 DIV PUSH1 0xFF AND ISZERO PUSH3 0x206 JUMPI PUSH1 0x40 MLOAD PUSH32 0x8C379A000000000000000000000000000000000000000000000000000000000 DUP2 MSTORE PUSH1 0x4 ADD PUSH3 0x1FD SWAP1 PUSH3 0x4C5 JUMP JUMPDEST PUSH1 0x40 MLOAD DUP1 SWAP2 SUB SWAP1 REVERT JUMPDEST PUSH1 0x1 DUP1 PUSH1 0x0 DUP4 PUSH20 0xFFFFFFFFFFFFFFFFFFFFFFFFFFFFFFFFFFFFFFFF AND PUSH20 0xFFFFFFFFFFFFFFFFFFFFFFFFFFFFFFFFFFFFFFFF AND DUP2 MSTORE PUSH1 0x20 ADD SWAP1 DUP2 MSTORE PUSH1 0x20 ADD PUSH1 0x0 KECCAK256 PUSH1 0x0 PUSH2 0x100 EXP DUP2 SLOAD DUP2 PUSH1 0xFF MUL NOT AND SWAP1 DUP4 ISZERO ISZERO MUL OR SWAP1 SSTORE POP PUSH1 0x0 DUP2 SWAP1 DUP1 PUSH1 0x1 DUP2 SLOAD ADD DUP1 DUP3 SSTORE DUP1 SWAP2 POP POP PUSH1 0x1 SWAP1 SUB SWAP1 PUSH1 0x0 MSTORE PUSH1 0x20 PUSH1 0x0 KECCAK256 ADD PUSH1 0x0 SWAP1 SWAP2 SWAP1 SWAP2 SWAP1 SWAP2 PUSH2 0x100 EXP DUP2 SLOAD DUP2 PUSH20 0xFFFFFFFFFFFFFFFFFFFFFFFFFFFFFFFFFFFFFFFF MUL NOT AND SWAP1 DUP4 PUSH20 0xFFFFFFFFFFFFFFFFFFFFFFFFFFFFFFFFFFFFFFFF AND MUL OR SWAP1 SSTORE POP POP DUP1 DUP1 PUSH3 0x2CE SWAP1 PUSH3 0x62A JUMP JUMPDEST SWAP2 POP POP PUSH3 0xD7 JUMP JUMPDEST POP DUP1 PUSH1 0x2 DUP2 SWAP1 SSTORE POP POP POP PUSH3 0x802 JUMP JUMPDEST PUSH1 0x0 PUSH3 0x2FE PUSH3 0x2F8 DUP5 PUSH3 0x576 JUMP JUMPDEST PUSH3 0x54D JUMP JUMPDEST SWAP1 POP DUP1 DUP4 DUP3 MSTORE PUSH1 0x20 DUP3 ADD SWAP1 POP DUP3 DUP6 PUSH1 0x20 DUP7 MUL DUP3 ADD GT ISZERO PUSH3 0x324 JUMPI PUSH3 0x323 PUSH3 0x70A JUMP JUMPDEST JUMPDEST PUSH1 0x0 JUMPDEST DUP6 DUP2 LT ISZERO PUSH3 0x358 JUMPI DUP2 PUSH3 0x33D DUP9 DUP3 PUSH3 0x362 JUMP JUMPDEST DUP5 MSTORE PUSH1 0x20 DUP5 ADD SWAP4 POP PUSH1 0x20 DUP4 ADD SWAP3 POP POP PUSH1 0x1 DUP2 ADD SWAP1 POP PUSH3 0x327 JUMP JUMPDEST POP POP POP SWAP4 SWAP3 POP POP POP JUMP JUMPDEST PUSH1 0x0 DUP2 MLOAD SWAP1 POP PUSH3 0x373 DUP2 PUSH3 0x7CE JUMP JUMPDEST SWAP3 SWAP2 POP POP JUMP JUMPDEST PUSH1 0x0 DUP3 PUSH1 0x1F DUP4 ADD SLT PUSH3 0x391 JUMPI PUSH3 0x390 PUSH3 0x705 JUMP JUMPDEST JUMPDEST DUP2 MLOAD PUSH3 0x3A3 DUP5 DUP3 PUSH1 0x20 DUP7 ADD PUSH3 0x2E7 JUMP JUMPDEST SWAP2 POP POP SWAP3 SWAP2 POP POP JUMP JUMPDEST PUSH1 0x0 DUP2 MLOAD SWAP1 POP PUSH3 0x3BD DUP2 PUSH3 0x7E8 JUMP JUMPDEST SWAP3 SWAP2 POP POP JUMP JUMPDEST PUSH1 0x0 DUP1 PUSH1 0x40 DUP4 DUP6 SUB SLT ISZERO PUSH3 0x3DD JUMPI PUSH3 0x3DC PUSH3 0x714 JUMP JUMPDEST JUMPDEST PUSH1 0x0 DUP4 ADD MLOAD PUSH8 0xFFFFFFFFFFFFFFFF DUP2 GT ISZERO PUSH3 0x3FE JUMPI PUSH3 0x3FD PUSH3 0x70F JUMP JUMPDEST JUMPDEST PUSH3 0x40C DUP6 DUP3 DUP7 ADD PUSH3 0x379 JUMP JUMPDEST SWAP3 POP POP PUSH1 0x20 PUSH3 0x41F DUP6 DUP3 DUP7 ADD PUSH3 0x3AC JUMP JUMPDEST SWAP2 POP POP SWAP3 POP SWAP3 SWAP1 POP JUMP JUMPDEST PUSH1 0x0 PUSH3 0x438 PUSH1 0x13 DUP4 PUSH3 0x5A5 JUMP JUMPDEST SWAP2 POP PUSH3 0x445 DUP3 PUSH3 0x72A JUMP JUMPDEST PUSH1 0x20 DUP3 ADD SWAP1 POP SWAP2 SWAP1 POP JUMP JUMPDEST PUSH1 0x0 PUSH3 0x45F PUSH1 0xD DUP4 PUSH3 0x5A5 JUMP JUMPDEST SWAP2 POP PUSH3 0x46C DUP3 PUSH3 0x753 JUMP JUMPDEST PUSH1 0x20 DUP3 ADD SWAP1 POP SWAP2 SWAP1 POP JUMP JUMPDEST PUSH1 0x0 PUSH3 0x486 PUSH1 0xF DUP4 PUSH3 0x5A5 JUMP JUMPDEST SWAP2 POP PUSH3 0x493 DUP3 PUSH3 0x77C JUMP JUMPDEST PUSH1 0x20 DUP3 ADD SWAP1 POP SWAP2 SWAP1 POP JUMP JUMPDEST PUSH1 0x0 PUSH3 0x4AD PUSH1 0x18 DUP4 PUSH3 0x5A5 JUMP JUMPDEST SWAP2 POP PUSH3 0x4BA DUP3 PUSH3 0x7A5 JUMP JUMPDEST PUSH1 0x20 DUP3 ADD SWAP1 POP SWAP2 SWAP1 POP JUMP JUMPDEST PUSH1 0x0 PUSH1 0x20 DUP3 ADD SWAP1 POP DUP2 DUP2 SUB PUSH1 0x0 DUP4 ADD MSTORE PUSH3 0x4E0 DUP2 PUSH3 0x429 JUMP JUMPDEST SWAP1 POP SWAP2 SWAP1 POP JUMP JUMPDEST PUSH1 0x0 PUSH1 0x20 DUP3 ADD SWAP1 POP DUP2 DUP2 SUB PUSH1 0x0 DUP4 ADD MSTORE PUSH3 0x502 DUP2 PUSH3 0x450 JUMP JUMPDEST SWAP1 POP SWAP2 SWAP1 POP JUMP JUMPDEST PUSH1 0x0 PUSH1 0x20 DUP3 ADD SWAP1 POP DUP2 DUP2 SUB PUSH1 0x0 DUP4 ADD MSTORE PUSH3 0x524 DUP2 PUSH3 0x477 JUMP JUMPDEST SWAP1 POP SWAP2 SWAP1 POP JUMP JUMPDEST PUSH1 0x0 PUSH1 0x20 DUP3 ADD SWAP1 POP DUP2 DUP2 SUB PUSH1 0x0 DUP4 ADD MSTORE PUSH3 0x546 DUP2 PUSH3 0x49E JUMP JUMPDEST SWAP1 POP SWAP2 SWAP1 POP JUMP JUMPDEST PUSH1 0x0 PUSH3 0x559 PUSH3 0x56C JUMP JUMPDEST SWAP1 POP PUSH3 0x567 DUP3 DUP3 PUSH3 0x5F4 JUMP JUMPDEST SWAP2 SWAP1 POP JUMP JUMPDEST PUSH1 0x0 PUSH1 0x40 MLOAD SWAP1 POP SWAP1 JUMP JUMPDEST PUSH1 0x0 PUSH8 0xFFFFFFFFFFFFFFFF DUP3 GT ISZERO PUSH3 0x594 JUMPI PUSH3 0x593 PUSH3 0x6D6 JUMP JUMPDEST JUMPDEST PUSH1 0x20 DUP3 MUL SWAP1 POP PUSH1 0x20 DUP2 ADD SWAP1 POP SWAP2 SWAP1 POP JUMP JUMPDEST PUSH1 0x0 DUP3 DUP3 MSTORE PUSH1 0x20 DUP3 ADD SWAP1 POP SWAP3 SWAP2 POP POP JUMP JUMPDEST PUSH1 0x0 PUSH3 0x5C3 DUP3 PUSH3 0x5CA JUMP JUMPDEST SWAP1 POP SWAP2 SWAP1 POP JUMP JUMPDEST PUSH1 0x0 PUSH20 0xFFFFFFFFFFFFFFFFFFFFFFFFFFFFFFFFFFFFFFFF DUP3 AND SWAP1 POP SWAP2 SWAP1 POP JUMP JUMPDEST PUSH1 0x0 DUP2 SWAP1 POP SWAP2 SWAP1 POP JUMP JUMPDEST PUSH3 0x5FF DUP3 PUSH3 0x719 JUMP JUMPDEST DUP2 ADD DUP2 DUP2 LT PUSH8 0xFFFFFFFFFFFFFFFF DUP3 GT OR ISZERO PUSH3 0x621 JUMPI PUSH3 0x620 PUSH3 0x6D6 JUMP JUMPDEST JUMPDEST DUP1 PUSH1 0x40 MSTORE POP POP POP JUMP JUMPDEST PUSH1 0x0 PUSH3 0x637 DUP3 PUSH3 0x5EA JUMP JUMPDEST SWAP2 POP PUSH32 0xFFFFFFFFFFFFFFFFFFFFFFFFFFFFFFFFFFFFFFFFFFFFFFFFFFFFFFFFFFFFFFFF DUP3 EQ ISZERO PUSH3 0x66D JUMPI PUSH3 0x66C PUSH3 0x678 JUMP JUMPDEST JUMPDEST PUSH1 0x1 DUP3 ADD SWAP1 POP SWAP2 SWAP1 POP JUMP JUMPDEST PUSH32 0x4E487B7100000000000000000000000000000000000000000000000000000000 PUSH1 0x0 MSTORE PUSH1 0x11 PUSH1 0x4 MSTORE PUSH1 0x24 PUSH1 0x0 REVERT JUMPDEST PUSH32 0x4E487B7100000000000000000000000000000000000000000000000000000000 PUSH1 0x0 MSTORE PUSH1 0x32 PUSH1 0x4 MSTORE PUSH1 0x24 PUSH1 0x0 REVERT JUMPDEST PUSH32 0x4E487B7100000000000000000000000000000000000000000000000000000000 PUSH1 0x0 MSTORE PUSH1 0x41 PUSH1 0x4 MSTORE PUSH1 0x24 PUSH1 0x0 REVERT JUMPDEST PUSH1 0x0 DUP1 REVERT JUMPDEST PUSH1 0x0 DUP1 REVERT JUMPDEST PUSH1 0x0 DUP1 REVERT JUMPDEST PUSH1 0x0 DUP1 REVERT JUMPDEST PUSH1 0x0 PUSH1 0x1F NOT PUSH1 0x1F DUP4 ADD AND SWAP1 POP SWAP2 SWAP1 POP JUMP JUMPDEST PUSH32 0x6F776E6572206973206E6F7420756E6971756500000000000000000000000000 PUSH1 0x0 DUP3 ADD MSTORE POP JUMP JUMPDEST PUSH32 0x496E76616C6964206F776E657200000000000000000000000000000000000000 PUSH1 0x0 DUP3 ADD MSTORE POP JUMP JUMPDEST PUSH32 0x6F776E6572732072657175697265640000000000000000000000000000000000 PUSH1 0x0 DUP3 ADD MSTORE POP JUMP JUMPDEST PUSH32 0x496E76616C6964206E756D626572206F66206F776E6572730000000000000000 PUSH1 0x0 DUP3 ADD MSTORE POP JUMP JUMPDEST PUSH3 0x7D9 DUP2 PUSH3 0x5B6 JUMP JUMPDEST DUP2 EQ PUSH3 0x7E5 JUMPI PUSH1 0x0 DUP1 REVERT JUMPDEST POP JUMP JUMPDEST PUSH3 0x7F3 DUP2 PUSH3 0x5EA JUMP JUMPDEST DUP2 EQ PUSH3 0x7FF JUMPI PUSH1 0x0 DUP1 REVERT JUMPDEST POP JUMP JUMPDEST PUSH2 0xB58 DUP1 PUSH3 0x812 PUSH1 0x0 CODECOPY PUSH1 0x0 RETURN INVALID PUSH1 0x80 PUSH1 0x40 MSTORE PUSH1 0x4 CALLDATASIZE LT PUSH2 0x59 JUMPI PUSH1 0x0 CALLDATALOAD PUSH1 0xE0 SHR DUP1 PUSH4 0x25E7C27 EQ PUSH2 0xA0 JUMPI DUP1 PUSH4 0x14DE327F EQ PUSH2 0xDD JUMPI DUP1 PUSH4 0x2F54BF6E EQ PUSH2 0x106 JUMPI DUP1 PUSH4 0x8253951A EQ PUSH2 0x143 JUMPI DUP1 PUSH4 0x9ACE38C2 EQ PUSH2 0x180 JUMPI DUP1 PUSH4 0xDC8452CD EQ PUSH2 0x1C0 JUMPI PUSH2 0x9B JUMP JUMPDEST CALLDATASIZE PUSH2 0x9B JUMPI PUSH32 0x90890809C654F11D6E72A28FA60149770A0D11EC6C92319D6CEB2BB0A4EA1A15 CALLER CALLVALUE SELFBALANCE PUSH1 0x40 MLOAD PUSH2 0x91 SWAP4 SWAP3 SWAP2 SWAP1 PUSH2 0x8A8 JUMP JUMPDEST PUSH1 0x40 MLOAD DUP1 SWAP2 SUB SWAP1 LOG1 STOP JUMPDEST PUSH1 0x0 DUP1 REVERT JUMPDEST CALLVALUE DUP1 ISZERO PUSH2 0xAC JUMPI PUSH1 0x0 DUP1 REVERT JUMPDEST POP PUSH2 0xC7 PUSH1 0x4 DUP1 CALLDATASIZE SUB DUP2 ADD SWAP1 PUSH2 0xC2 SWAP2 SWAP1 PUSH2 0x74B JUMP JUMPDEST PUSH2 0x1EB JUMP JUMPDEST PUSH1 0x40 MLOAD PUSH2 0xD4 SWAP2 SWAP1 PUSH2 0x841 JUMP JUMPDEST PUSH1 0x40 MLOAD DUP1 SWAP2 SUB SWAP1 RETURN JUMPDEST CALLVALUE DUP1 ISZERO PUSH2 0xE9 JUMPI PUSH1 0x0 DUP1 REVERT JUMPDEST POP PUSH2 0x104 PUSH1 0x4 DUP1 CALLDATASIZE SUB DUP2 ADD SWAP1 PUSH2 0xFF SWAP2 SWAP1 PUSH2 0x6D7 JUMP JUMPDEST PUSH2 0x22A JUMP JUMPDEST STOP JUMPDEST CALLVALUE DUP1 ISZERO PUSH2 0x112 JUMPI PUSH1 0x0 DUP1 REVERT JUMPDEST POP PUSH2 0x12D PUSH1 0x4 DUP1 CALLDATASIZE SUB DUP2 ADD SWAP1 PUSH2 0x128 SWAP2 SWAP1 PUSH2 0x6AA JUMP JUMPDEST PUSH2 0x43D JUMP JUMPDEST PUSH1 0x40 MLOAD PUSH2 0x13A SWAP2 SWAP1 PUSH2 0x8DF JUMP JUMPDEST PUSH1 0x40 MLOAD DUP1 SWAP2 SUB SWAP1 RETURN JUMPDEST CALLVALUE DUP1 ISZERO PUSH2 0x14F JUMPI PUSH1 0x0 DUP1 REVERT JUMPDEST POP PUSH2 0x16A PUSH1 0x4 DUP1 CALLDATASIZE SUB DUP2 ADD SWAP1 PUSH2 0x165 SWAP2 SWAP1 PUSH2 0x778 JUMP JUMPDEST PUSH2 0x45D JUMP JUMPDEST PUSH1 0x40 MLOAD PUSH2 0x177 SWAP2 SWAP1 PUSH2 0x8DF JUMP JUMPDEST PUSH1 0x40 MLOAD DUP1 SWAP2 SUB SWAP1 RETURN JUMPDEST CALLVALUE DUP1 ISZERO PUSH2 0x18C JUMPI PUSH1 0x0 DUP1 REVERT JUMPDEST POP PUSH2 0x1A7 PUSH1 0x4 DUP1 CALLDATASIZE SUB DUP2 ADD SWAP1 PUSH2 0x1A2 SWAP2 SWAP1 PUSH2 0x74B JUMP JUMPDEST PUSH2 0x48C JUMP JUMPDEST PUSH1 0x40 MLOAD PUSH2 0x1B7 SWAP5 SWAP4 SWAP3 SWAP2 SWAP1 PUSH2 0x85C JUMP JUMPDEST PUSH1 0x40 MLOAD DUP1 SWAP2 SUB SWAP1 RETURN JUMPDEST CALLVALUE DUP1 ISZERO PUSH2 0x1CC JUMPI PUSH1 0x0 DUP1 REVERT JUMPDEST POP PUSH2 0x1D5 PUSH2 0x581 JUMP JUMPDEST PUSH1 0x40 MLOAD PUSH2 0x1E2 SWAP2 SWAP1 PUSH2 0x91A JUMP JUMPDEST PUSH1 0x40 MLOAD DUP1 SWAP2 SUB SWAP1 RETURN JUMPDEST PUSH1 0x0 DUP2 DUP2 SLOAD DUP2 LT PUSH2 0x1FB JUMPI PUSH1 0x0 DUP1 REVERT JUMPDEST SWAP1 PUSH1 0x0 MSTORE PUSH1 0x20 PUSH1 0x0 KECCAK256 ADD PUSH1 0x0 SWAP2 POP SLOAD SWAP1 PUSH2 0x100 EXP SWAP1 DIV PUSH20 0xFFFFFFFFFFFFFFFFFFFFFFFFFFFFFFFFFFFFFFFF AND DUP2 JUMP JUMPDEST PUSH1 0x1 PUSH1 0x0 CALLER PUSH20 0xFFFFFFFFFFFFFFFFFFFFFFFFFFFFFFFFFFFFFFFF AND PUSH20 0xFFFFFFFFFFFFFFFFFFFFFFFFFFFFFFFFFFFFFFFF AND DUP2 MSTORE PUSH1 0x20 ADD SWAP1 DUP2 MSTORE PUSH1 0x20 ADD PUSH1 0x0 KECCAK256 PUSH1 0x0 SWAP1 SLOAD SWAP1 PUSH2 0x100 EXP SWAP1 DIV PUSH1 0xFF AND PUSH2 0x2B6 JUMPI PUSH1 0x40 MLOAD PUSH32 0x8C379A000000000000000000000000000000000000000000000000000000000 DUP2 MSTORE PUSH1 0x4 ADD PUSH2 0x2AD SWAP1 PUSH2 0x8FA JUMP JUMPDEST PUSH1 0x40 MLOAD DUP1 SWAP2 SUB SWAP1 REVERT JUMPDEST PUSH1 0x3 PUSH1 0x40 MLOAD DUP1 PUSH1 0x80 ADD PUSH1 0x40 MSTORE DUP1 DUP7 PUSH20 0xFFFFFFFFFFFFFFFFFFFFFFFFFFFFFFFFFFFFFFFF AND DUP2 MSTORE PUSH1 0x20 ADD DUP6 DUP2 MSTORE PUSH1 0x20 ADD DUP5 DUP5 DUP1 DUP1 PUSH1 0x1F ADD PUSH1 0x20 DUP1 SWAP2 DIV MUL PUSH1 0x20 ADD PUSH1 0x40 MLOAD SWAP1 DUP2 ADD PUSH1 0x40 MSTORE DUP1 SWAP4 SWAP3 SWAP2 SWAP1 DUP2 DUP2 MSTORE PUSH1 0x20 ADD DUP4 DUP4 DUP1 DUP3 DUP5 CALLDATACOPY PUSH1 0x0 DUP2 DUP5 ADD MSTORE PUSH1 0x1F NOT PUSH1 0x1F DUP3 ADD AND SWAP1 POP DUP1 DUP4 ADD SWAP3 POP POP POP POP POP POP POP DUP2 MSTORE PUSH1 0x20 ADD PUSH1 0x0 ISZERO ISZERO DUP2 MSTORE POP SWAP1 DUP1 PUSH1 0x1 DUP2 SLOAD ADD DUP1 DUP3 SSTORE DUP1 SWAP2 POP POP PUSH1 0x1 SWAP1 SUB SWAP1 PUSH1 0x0 MSTORE PUSH1 0x20 PUSH1 0x0 KECCAK256 SWAP1 PUSH1 0x4 MUL ADD PUSH1 0x0 SWAP1 SWAP2 SWAP1 SWAP2 SWAP1 SWAP2 POP PUSH1 0x0 DUP3 ADD MLOAD DUP2 PUSH1 0x0 ADD PUSH1 0x0 PUSH2 0x100 EXP DUP2 SLOAD DUP2 PUSH20 0xFFFFFFFFFFFFFFFFFFFFFFFFFFFFFFFFFFFFFFFF MUL NOT AND SWAP1 DUP4 PUSH20 0xFFFFFFFFFFFFFFFFFFFFFFFFFFFFFFFFFFFFFFFF AND MUL OR SWAP1 SSTORE POP PUSH1 0x20 DUP3 ADD MLOAD DUP2 PUSH1 0x1 ADD SSTORE PUSH1 0x40 DUP3 ADD MLOAD DUP2 PUSH1 0x2 ADD SWAP1 DUP1 MLOAD SWAP1 PUSH1 0x20 ADD SWAP1 PUSH2 0x3CC SWAP3 SWAP2 SWAP1 PUSH2 0x587 JUMP JUMPDEST POP PUSH1 0x60 DUP3 ADD MLOAD DUP2 PUSH1 0x3 ADD PUSH1 0x0 PUSH2 0x100 EXP DUP2 SLOAD DUP2 PUSH1 0xFF MUL NOT AND SWAP1 DUP4 ISZERO ISZERO MUL OR SWAP1 SSTORE POP POP POP PUSH32 0x8324B3D745B914E3ABD4FFBFEAD91E3B78391A98C173202129215AB933ADFBE PUSH1 0x1 PUSH1 0x3 DUP1 SLOAD SWAP1 POP PUSH2 0x422 SWAP2 SWAP1 PUSH2 0x962 JUMP JUMPDEST PUSH1 0x40 MLOAD PUSH2 0x42F SWAP2 SWAP1 PUSH2 0x91A JUMP JUMPDEST PUSH1 0x40 MLOAD DUP1 SWAP2 SUB SWAP1 LOG1 POP POP POP POP JUMP JUMPDEST PUSH1 0x1 PUSH1 0x20 MSTORE DUP1 PUSH1 0x0 MSTORE PUSH1 0x40 PUSH1 0x0 KECCAK256 PUSH1 0x0 SWAP2 POP SLOAD SWAP1 PUSH2 0x100 EXP SWAP1 DIV PUSH1 0xFF AND DUP2 JUMP JUMPDEST PUSH1 0x4 PUSH1 0x20 MSTORE DUP2 PUSH1 0x0 MSTORE PUSH1 0x40 PUSH1 0x0 KECCAK256 PUSH1 0x20 MSTORE DUP1 PUSH1 0x0 MSTORE PUSH1 0x40 PUSH1 0x0 KECCAK256 PUSH1 0x0 SWAP2 POP SWAP2 POP SWAP1 SLOAD SWAP1 PUSH2 0x100 EXP SWAP1 DIV PUSH1 0xFF AND DUP2 JUMP JUMPDEST PUSH1 0x3 DUP2 DUP2 SLOAD DUP2 LT PUSH2 0x49C JUMPI PUSH1 0x0 DUP1 REVERT JUMPDEST SWAP1 PUSH1 0x0 MSTORE PUSH1 0x20 PUSH1 0x0 KECCAK256 SWAP1 PUSH1 0x4 MUL ADD PUSH1 0x0 SWAP2 POP SWAP1 POP DUP1 PUSH1 0x0 ADD PUSH1 0x0 SWAP1 SLOAD SWAP1 PUSH2 0x100 EXP SWAP1 DIV PUSH20 0xFFFFFFFFFFFFFFFFFFFFFFFFFFFFFFFFFFFFFFFF AND SWAP1 DUP1 PUSH1 0x1 ADD SLOAD SWAP1 DUP1 PUSH1 0x2 ADD DUP1 SLOAD PUSH2 0x4EB SWAP1 PUSH2 0xA11 JUMP JUMPDEST DUP1 PUSH1 0x1F ADD PUSH1 0x20 DUP1 SWAP2 DIV MUL PUSH1 0x20 ADD PUSH1 0x40 MLOAD SWAP1 DUP2 ADD PUSH1 0x40 MSTORE DUP1 SWAP3 SWAP2 SWAP1 DUP2 DUP2 MSTORE PUSH1 0x20 ADD DUP3 DUP1 SLOAD PUSH2 0x517 SWAP1 PUSH2 0xA11 JUMP JUMPDEST DUP1 ISZERO PUSH2 0x564 JUMPI DUP1 PUSH1 0x1F LT PUSH2 0x539 JUMPI PUSH2 0x100 DUP1 DUP4 SLOAD DIV MUL DUP4 MSTORE SWAP2 PUSH1 0x20 ADD SWAP2 PUSH2 0x564 JUMP JUMPDEST DUP3 ADD SWAP2 SWAP1 PUSH1 0x0 MSTORE PUSH1 0x20 PUSH1 0x0 KECCAK256 SWAP1 JUMPDEST DUP2 SLOAD DUP2 MSTORE SWAP1 PUSH1 0x1 ADD SWAP1 PUSH1 0x20 ADD DUP1 DUP4 GT PUSH2 0x547 JUMPI DUP3 SWAP1 SUB PUSH1 0x1F AND DUP3 ADD SWAP2 JUMPDEST POP POP POP POP POP SWAP1 DUP1 PUSH1 0x3 ADD PUSH1 0x0 SWAP1 SLOAD SWAP1 PUSH2 0x100 EXP SWAP1 DIV PUSH1 0xFF AND SWAP1 POP DUP5 JUMP JUMPDEST PUSH1 0x2 SLOAD DUP2 JUMP JUMPDEST DUP3 DUP1 SLOAD PUSH2 0x593 SWAP1 PUSH2 0xA11 JUMP JUMPDEST SWAP1 PUSH1 0x0 MSTORE PUSH1 0x20 PUSH1 0x0 KECCAK256 SWAP1 PUSH1 0x1F ADD PUSH1 0x20 SWAP1 DIV DUP2 ADD SWAP3 DUP3 PUSH2 0x5B5 JUMPI PUSH1 0x0 DUP6 SSTORE PUSH2 0x5FC JUMP JUMPDEST DUP3 PUSH1 0x1F LT PUSH2 0x5CE JUMPI DUP1 MLOAD PUSH1 0xFF NOT AND DUP4 DUP1 ADD OR DUP6 SSTORE PUSH2 0x5FC JUMP JUMPDEST DUP3 DUP1 ADD PUSH1 0x1 ADD DUP6 SSTORE DUP3 ISZERO PUSH2 0x5FC JUMPI SWAP2 DUP3 ADD JUMPDEST DUP3 DUP2 GT ISZERO PUSH2 0x5FB JUMPI DUP3 MLOAD DUP3 SSTORE SWAP2 PUSH1 0x20 ADD SWAP2 SWAP1 PUSH1 0x1 ADD SWAP1 PUSH2 0x5E0 JUMP JUMPDEST JUMPDEST POP SWAP1 POP PUSH2 0x609 SWAP2 SWAP1 PUSH2 0x60D JUMP JUMPDEST POP SWAP1 JUMP JUMPDEST JUMPDEST DUP1 DUP3 GT ISZERO PUSH2 0x626 JUMPI PUSH1 0x0 DUP2 PUSH1 0x0 SWAP1 SSTORE POP PUSH1 0x1 ADD PUSH2 0x60E JUMP JUMPDEST POP SWAP1 JUMP JUMPDEST PUSH1 0x0 DUP2 CALLDATALOAD SWAP1 POP PUSH2 0x639 DUP2 PUSH2 0xAF4 JUMP JUMPDEST SWAP3 SWAP2 POP POP JUMP JUMPDEST PUSH1 0x0 DUP1 DUP4 PUSH1 0x1F DUP5 ADD SLT PUSH2 0x655 JUMPI PUSH2 0x654 PUSH2 0xAA6 JUMP JUMPDEST JUMPDEST DUP3 CALLDATALOAD SWAP1 POP PUSH8 0xFFFFFFFFFFFFFFFF DUP2 GT ISZERO PUSH2 0x672 JUMPI PUSH2 0x671 PUSH2 0xAA1 JUMP JUMPDEST JUMPDEST PUSH1 0x20 DUP4 ADD SWAP2 POP DUP4 PUSH1 0x1 DUP3 MUL DUP4 ADD GT ISZERO PUSH2 0x68E JUMPI PUSH2 0x68D PUSH2 0xAAB JUMP JUMPDEST JUMPDEST SWAP3 POP SWAP3 SWAP1 POP JUMP JUMPDEST PUSH1 0x0 DUP2 CALLDATALOAD SWAP1 POP PUSH2 0x6A4 DUP2 PUSH2 0xB0B JUMP JUMPDEST SWAP3 SWAP2 POP POP JUMP JUMPDEST PUSH1 0x0 PUSH1 0x20 DUP3 DUP5 SUB SLT ISZERO PUSH2 0x6C0 JUMPI PUSH2 0x6BF PUSH2 0xAB5 JUMP JUMPDEST JUMPDEST PUSH1 0x0 PUSH2 0x6CE DUP5 DUP3 DUP6 ADD PUSH2 0x62A JUMP JUMPDEST SWAP2 POP POP SWAP3 SWAP2 POP POP JUMP JUMPDEST PUSH1 0x0 DUP1 PUSH1 0x0 DUP1 PUSH1 0x60 DUP6 DUP8 SUB SLT ISZERO PUSH2 0x6F1 JUMPI PUSH2 0x6F0 PUSH2 0xAB5 JUMP JUMPDEST JUMPDEST PUSH1 0x0 PUSH2 0x6FF DUP8 DUP3 DUP9 ADD PUSH2 0x62A JUMP JUMPDEST SWAP5 POP POP PUSH1 0x20 PUSH2 0x710 DUP8 DUP3 DUP9 ADD PUSH2 0x695 JUMP JUMPDEST SWAP4 POP POP PUSH1 0x40 DUP6 ADD CALLDATALOAD PUSH8 0xFFFFFFFFFFFFFFFF DUP2 GT ISZERO PUSH2 0x731 JUMPI PUSH2 0x730 PUSH2 0xAB0 JUMP JUMPDEST JUMPDEST PUSH2 0x73D DUP8 DUP3 DUP9 ADD PUSH2 0x63F JUMP JUMPDEST SWAP3 POP SWAP3 POP POP SWAP3 SWAP6 SWAP2 SWAP5 POP SWAP3 POP JUMP JUMPDEST PUSH1 0x0 PUSH1 0x20 DUP3 DUP5 SUB SLT ISZERO PUSH2 0x761 JUMPI PUSH2 0x760 PUSH2 0xAB5 JUMP JUMPDEST JUMPDEST PUSH1 0x0 PUSH2 0x76F DUP5 DUP3 DUP6 ADD PUSH2 0x695 JUMP JUMPDEST SWAP2 POP POP SWAP3 SWAP2 POP POP JUMP JUMPDEST PUSH1 0x0 DUP1 PUSH1 0x40 DUP4 DUP6 SUB SLT ISZERO PUSH2 0x78F JUMPI PUSH2 0x78E PUSH2 0xAB5 JUMP JUMPDEST JUMPDEST PUSH1 0x0 PUSH2 0x79D DUP6 DUP3 DUP7 ADD PUSH2 0x695 JUMP JUMPDEST SWAP3 POP POP PUSH1 0x20 PUSH2 0x7AE DUP6 DUP3 DUP7 ADD PUSH2 0x62A JUMP JUMPDEST SWAP2 POP POP SWAP3 POP SWAP3 SWAP1 POP JUMP JUMPDEST PUSH2 0x7C1 DUP2 PUSH2 0x996 JUMP JUMPDEST DUP3 MSTORE POP POP JUMP JUMPDEST PUSH2 0x7D0 DUP2 PUSH2 0x9A8 JUMP JUMPDEST DUP3 MSTORE POP POP JUMP JUMPDEST PUSH1 0x0 PUSH2 0x7E1 DUP3 PUSH2 0x935 JUMP JUMPDEST PUSH2 0x7EB DUP2 DUP6 PUSH2 0x940 JUMP JUMPDEST SWAP4 POP PUSH2 0x7FB DUP2 DUP6 PUSH1 0x20 DUP7 ADD PUSH2 0x9DE JUMP JUMPDEST PUSH2 0x804 DUP2 PUSH2 0xABA JUMP JUMPDEST DUP5 ADD SWAP2 POP POP SWAP3 SWAP2 POP POP JUMP JUMPDEST PUSH1 0x0 PUSH2 0x81C PUSH1 0x1C DUP4 PUSH2 0x951 JUMP JUMPDEST SWAP2 POP PUSH2 0x827 DUP3 PUSH2 0xACB JUMP JUMPDEST PUSH1 0x20 DUP3 ADD SWAP1 POP SWAP2 SWAP1 POP JUMP JUMPDEST PUSH2 0x83B DUP2 PUSH2 0x9D4 JUMP JUMPDEST DUP3 MSTORE POP POP JUMP JUMPDEST PUSH1 0x0 PUSH1 0x20 DUP3 ADD SWAP1 POP PUSH2 0x856 PUSH1 0x0 DUP4 ADD DUP5 PUSH2 0x7B8 JUMP JUMPDEST SWAP3 SWAP2 POP POP JUMP JUMPDEST PUSH1 0x0 PUSH1 0x80 DUP3 ADD SWAP1 POP PUSH2 0x871 PUSH1 0x0 DUP4 ADD DUP8 PUSH2 0x7B8 JUMP JUMPDEST PUSH2 0x87E PUSH1 0x20 DUP4 ADD DUP7 PUSH2 0x832 JUMP JUMPDEST DUP2 DUP2 SUB PUSH1 0x40 DUP4 ADD MSTORE PUSH2 0x890 DUP2 DUP6 PUSH2 0x7D6 JUMP JUMPDEST SWAP1 POP PUSH2 0x89F PUSH1 0x60 DUP4 ADD DUP5 PUSH2 0x7C7 JUMP JUMPDEST SWAP6 SWAP5 POP POP POP POP POP JUMP JUMPDEST PUSH1 0x0 PUSH1 0x60 DUP3 ADD SWAP1 POP PUSH2 0x8BD PUSH1 0x0 DUP4 ADD DUP7 PUSH2 0x7B8 JUMP JUMPDEST PUSH2 0x8CA PUSH1 0x20 DUP4 ADD DUP6 PUSH2 0x832 JUMP JUMPDEST PUSH2 0x8D7 PUSH1 0x40 DUP4 ADD DUP5 PUSH2 0x832 JUMP JUMPDEST SWAP5 SWAP4 POP POP POP POP JUMP JUMPDEST PUSH1 0x0 PUSH1 0x20 DUP3 ADD SWAP1 POP PUSH2 0x8F4 PUSH1 0x0 DUP4 ADD DUP5 PUSH2 0x7C7 JUMP JUMPDEST SWAP3 SWAP2 POP POP JUMP JUMPDEST PUSH1 0x0 PUSH1 0x20 DUP3 ADD SWAP1 POP DUP2 DUP2 SUB PUSH1 0x0 DUP4 ADD MSTORE PUSH2 0x913 DUP2 PUSH2 0x80F JUMP JUMPDEST SWAP1 POP SWAP2 SWAP1 POP JUMP JUMPDEST PUSH1 0x0 PUSH1 0x20 DUP3 ADD SWAP1 POP PUSH2 0x92F PUSH1 0x0 DUP4 ADD DUP5 PUSH2 0x832 JUMP JUMPDEST SWAP3 SWAP2 POP POP JUMP JUMPDEST PUSH1 0x0 DUP2 MLOAD SWAP1 POP SWAP2 SWAP1 POP JUMP JUMPDEST PUSH1 0x0 DUP3 DUP3 MSTORE PUSH1 0x20 DUP3 ADD SWAP1 POP SWAP3 SWAP2 POP POP JUMP JUMPDEST PUSH1 0x0 DUP3 DUP3 MSTORE PUSH1 0x20 DUP3 ADD SWAP1 POP SWAP3 SWAP2 POP POP JUMP JUMPDEST PUSH1 0x0 PUSH2 0x96D DUP3 PUSH2 0x9D4 JUMP JUMPDEST SWAP2 POP PUSH2 0x978 DUP4 PUSH2 0x9D4 JUMP JUMPDEST SWAP3 POP DUP3 DUP3 LT ISZERO PUSH2 0x98B JUMPI PUSH2 0x98A PUSH2 0xA43 JUMP JUMPDEST JUMPDEST DUP3 DUP3 SUB SWAP1 POP SWAP3 SWAP2 POP POP JUMP JUMPDEST PUSH1 0x0 PUSH2 0x9A1 DUP3 PUSH2 0x9B4 JUMP JUMPDEST SWAP1 POP SWAP2 SWAP1 POP JUMP JUMPDEST PUSH1 0x0 DUP2 ISZERO ISZERO SWAP1 POP SWAP2 SWAP1 POP JUMP JUMPDEST PUSH1 0x0 PUSH20 0xFFFFFFFFFFFFFFFFFFFFFFFFFFFFFFFFFFFFFFFF DUP3 AND SWAP1 POP SWAP2 SWAP1 POP JUMP JUMPDEST PUSH1 0x0 DUP2 SWAP1 POP SWAP2 SWAP1 POP JUMP JUMPDEST PUSH1 0x0 JUMPDEST DUP4 DUP2 LT ISZERO PUSH2 0x9FC JUMPI DUP1 DUP3 ADD MLOAD DUP2 DUP5 ADD MSTORE PUSH1 0x20 DUP2 ADD SWAP1 POP PUSH2 0x9E1 JUMP JUMPDEST DUP4 DUP2 GT ISZERO PUSH2 0xA0B JUMPI PUSH1 0x0 DUP5 DUP5 ADD MSTORE JUMPDEST POP POP POP POP JUMP JUMPDEST PUSH1 0x0 PUSH1 0x2 DUP3 DIV SWAP1 POP PUSH1 0x1 DUP3 AND DUP1 PUSH2 0xA29 JUMPI PUSH1 0x7F DUP3 AND SWAP2 POP JUMPDEST PUSH1 0x20 DUP3 LT DUP2 EQ ISZERO PUSH2 0xA3D JUMPI PUSH2 0xA3C PUSH2 0xA72 JUMP JUMPDEST JUMPDEST POP SWAP2 SWAP1 POP JUMP JUMPDEST PUSH32 0x4E487B7100000000000000000000000000000000000000000000000000000000 PUSH1 0x0 MSTORE PUSH1 0x11 PUSH1 0x4 MSTORE PUSH1 0x24 PUSH1 0x0 REVERT JUMPDEST PUSH32 0x4E487B7100000000000000000000000000000000000000000000000000000000 PUSH1 0x0 MSTORE PUSH1 0x22 PUSH1 0x4 MSTORE PUSH1 0x24 PUSH1 0x0 REVERT JUMPDEST PUSH1 0x0 DUP1 REVERT JUMPDEST PUSH1 0x0 DUP1 REVERT JUMPDEST PUSH1 0x0 DUP1 REVERT JUMPDEST PUSH1 0x0 DUP1 REVERT JUMPDEST PUSH1 0x0 DUP1 REVERT JUMPDEST PUSH1 0x0 PUSH1 0x1F NOT PUSH1 0x1F DUP4 ADD AND SWAP1 POP SWAP2 SWAP1 POP JUMP JUMPDEST PUSH32 0x4F6E6C79206F776E65722063616E2063616C6C2066756E6374696F6E00000000 PUSH1 0x0 DUP3 ADD MSTORE POP JUMP JUMPDEST PUSH2 0xAFD DUP2 PUSH2 0x996 JUMP JUMPDEST DUP2 EQ PUSH2 0xB08 JUMPI PUSH1 0x0 DUP1 REVERT JUMPDEST POP JUMP JUMPDEST PUSH2 0xB14 DUP2 PUSH2 0x9D4 JUMP JUMPDEST DUP2 EQ PUSH2 0xB1F JUMPI PUSH1 0x0 DUP1 REVERT JUMPDEST POP JUMP INVALID LOG2 PUSH5 0x6970667358 0x22 SLT KECCAK256 PUSH25 0x7CEF790BC0029078B976779DC8B2AB553F7CA2D6092ADA88F3 0x25 SWAP4 JUMPDEST 0xE6 0xAA SWAP1 PUSH5 0x736F6C6343 STOP ADDMOD SMOD STOP CALLER "
				},
				"gasEstimates": {
					"creation": {
						"codeDepositCost": "580800",
						"executionCost": "infinite",
						"totalCost": "infinite"
					},
					"external": {
						"approved(uint256,address)": "3131",
						"isOwner(address)": "2867",
						"owners(uint256)": "4934",
						"required()": "2517",
						"submit(address,uint256,bytes)": "infinite",
						"transactions(uint256)": "infinite"
					}
				},
				"methodIdentifiers": {
					"approved(uint256,address)": "8253951a",
					"isOwner(address)": "2f54bf6e",
					"owners(uint256)": "025e7c27",
					"required()": "dc8452cd",
					"submit(address,uint256,bytes)": "14de327f",
					"transactions(uint256)": "9ace38c2"
				}
			},
			"userdoc": {
				"kind": "user",
				"methods": {},
				"version": 1
			}
		}
	}
}