{
	"contracts/Multisig.sol": {
		"MultiSigWallet": {
			"abi": [
				{
					"inputs": [
						{
							"internalType": "address[]",
							"name": "_owners",
							"type": "address[]"
						},
						{
							"internalType": "uint256",
							"name": "_required",
							"type": "uint256"
						}
					],
					"stateMutability": "nonpayable",
					"type": "constructor"
				},
				{
					"anonymous": false,
					"inputs": [
						{
							"indexed": false,
							"internalType": "address",
							"name": "owner",
							"type": "address"
						},
						{
							"indexed": false,
							"internalType": "uint256",
							"name": "txId",
							"type": "uint256"
						}
					],
					"name": "Approve",
					"type": "event"
				},
				{
					"anonymous": false,
					"inputs": [
						{
							"indexed": false,
							"internalType": "address",
							"name": "sender",
							"type": "address"
						},
						{
							"indexed": false,
							"internalType": "uint256",
							"name": "amount",
							"type": "uint256"
						},
						{
							"indexed": false,
							"internalType": "uint256",
							"name": "balance",
							"type": "uint256"
						}
					],
					"name": "Deposit",
					"type": "event"
				},
				{
					"anonymous": false,
					"inputs": [
						{
							"indexed": false,
							"internalType": "address",
							"name": "executer",
							"type": "address"
						},
						{
							"indexed": false,
							"internalType": "uint256",
							"name": "txId",
							"type": "uint256"
						}
					],
					"name": "Execute",
					"type": "event"
				},
				{
					"anonymous": false,
					"inputs": [
						{
							"indexed": false,
							"internalType": "address",
							"name": "owner",
							"type": "address"
						},
						{
							"indexed": false,
							"internalType": "uint256",
							"name": "txId",
							"type": "uint256"
						}
					],
					"name": "Revoke",
					"type": "event"
				},
				{
					"anonymous": false,
					"inputs": [
						{
							"indexed": false,
							"internalType": "uint256",
							"name": "txId",
							"type": "uint256"
						}
					],
					"name": "Submit",
					"type": "event"
				},
				{
					"inputs": [
						{
							"internalType": "uint256",
							"name": "",
							"type": "uint256"
						},
						{
							"internalType": "address",
							"name": "",
							"type": "address"
						}
					],
					"name": "approved",
					"outputs": [
						{
							"internalType": "bool",
							"name": "",
							"type": "bool"
						}
					],
					"stateMutability": "view",
					"type": "function"
				},
				{
					"inputs": [
						{
							"internalType": "address",
							"name": "",
							"type": "address"
						}
					],
					"name": "isOwner",
					"outputs": [
						{
							"internalType": "bool",
							"name": "",
							"type": "bool"
						}
					],
					"stateMutability": "view",
					"type": "function"
				},
				{
					"inputs": [
						{
							"internalType": "uint256",
							"name": "",
							"type": "uint256"
						}
					],
					"name": "owners",
					"outputs": [
						{
							"internalType": "address",
							"name": "",
							"type": "address"
						}
					],
					"stateMutability": "view",
					"type": "function"
				},
				{
					"inputs": [],
					"name": "required",
					"outputs": [
						{
							"internalType": "uint256",
							"name": "",
							"type": "uint256"
						}
					],
					"stateMutability": "view",
					"type": "function"
				},
				{
					"inputs": [
						{
							"internalType": "uint256",
							"name": "",
							"type": "uint256"
						}
					],
					"name": "transactions",
					"outputs": [
						{
							"internalType": "address",
							"name": "to",
							"type": "address"
						},
						{
							"internalType": "uint256",
							"name": "value",
							"type": "uint256"
						},
						{
							"internalType": "bytes",
							"name": "data",
							"type": "bytes"
						},
						{
							"internalType": "bool",
							"name": "executed",
							"type": "bool"
						}
					],
					"stateMutability": "view",
					"type": "function"
				}
			],
			"devdoc": {
				"kind": "dev",
				"methods": {},
				"version": 1
			},
			"evm": {
				"assembly": "    /* \"contracts/Multisig.sol\":59:1605  contract MultiSigWallet {\r... */\n  mstore(0x40, 0x80)\n    /* \"contracts/Multisig.sol\":1316:1600  constructor(address[] memory _owners, uint _required) {\r... */\n  callvalue\n  dup1\n  iszero\n  tag_1\n  jumpi\n  0x00\n  dup1\n  revert\ntag_1:\n  pop\n  mload(0x40)\n  sub(codesize, bytecodeSize)\n  dup1\n  bytecodeSize\n  dup4\n  codecopy\n  dup2\n  dup2\n  add\n  0x40\n  mstore\n  dup2\n  add\n  swap1\n  tag_2\n  swap2\n  swap1\n  tag_3\n  jump\t// in\ntag_2:\n    /* \"contracts/Multisig.sol\":1406:1407  0 */\n  0x00\n    /* \"contracts/Multisig.sol\":1389:1396  _owners */\n  dup3\n    /* \"contracts/Multisig.sol\":1389:1403  _owners.length */\n  mload\n    /* \"contracts/Multisig.sol\":1389:1407  _owners.length > 0 */\n  gt\n    /* \"contracts/Multisig.sol\":1381:1427  require(_owners.length > 0, \"owners required\") */\n  tag_6\n  jumpi\n  mload(0x40)\n  0x08c379a000000000000000000000000000000000000000000000000000000000\n  dup2\n  mstore\n  0x04\n  add\n  tag_7\n  swap1\n  tag_8\n  jump\t// in\ntag_7:\n  mload(0x40)\n  dup1\n  swap2\n  sub\n  swap1\n  revert\ntag_6:\n    /* \"contracts/Multisig.sol\":1458:1459  0 */\n  0x00\n    /* \"contracts/Multisig.sol\":1447:1455  required */\n  sload(0x02)\n    /* \"contracts/Multisig.sol\":1447:1459  required > 0 */\n  gt\n    /* \"contracts/Multisig.sol\":1447:1490  required > 0 && _required <= _owners.length */\n  dup1\n  iszero\n  tag_9\n  jumpi\n  pop\n    /* \"contracts/Multisig.sol\":1476:1483  _owners */\n  dup2\n    /* \"contracts/Multisig.sol\":1476:1490  _owners.length */\n  mload\n    /* \"contracts/Multisig.sol\":1463:1472  _required */\n  dup2\n    /* \"contracts/Multisig.sol\":1463:1490  _required <= _owners.length */\n  gt\n  iszero\n    /* \"contracts/Multisig.sol\":1447:1490  required > 0 && _required <= _owners.length */\ntag_9:\n    /* \"contracts/Multisig.sol\":1438:1519  require( required > 0 && _required <= _owners.length, \"Invalid number of owners\") */\n  tag_10\n  jumpi\n  mload(0x40)\n  0x08c379a000000000000000000000000000000000000000000000000000000000\n  dup2\n  mstore\n  0x04\n  add\n  tag_11\n  swap1\n  tag_12\n  jump\t// in\ntag_11:\n  mload(0x40)\n  dup1\n  swap2\n  sub\n  swap1\n  revert\ntag_10:\n    /* \"contracts/Multisig.sol\":1546:1552  uint i */\n  0x00\n    /* \"contracts/Multisig.sol\":1541:1593  for (uint i; i < _owners.length; i++) {\r... */\ntag_13:\n    /* \"contracts/Multisig.sol\":1558:1565  _owners */\n  dup3\n    /* \"contracts/Multisig.sol\":1558:1572  _owners.length */\n  mload\n    /* \"contracts/Multisig.sol\":1554:1555  i */\n  dup2\n    /* \"contracts/Multisig.sol\":1554:1572  i < _owners.length */\n  lt\n    /* \"contracts/Multisig.sol\":1541:1593  for (uint i; i < _owners.length; i++) {\r... */\n  iszero\n  tag_14\n  jumpi\n    /* \"contracts/Multisig.sol\":1574:1577  i++ */\n  dup1\n  dup1\n  tag_16\n  swap1\n  tag_17\n  jump\t// in\ntag_16:\n  swap2\n  pop\n  pop\n    /* \"contracts/Multisig.sol\":1541:1593  for (uint i; i < _owners.length; i++) {\r... */\n  jump(tag_13)\ntag_14:\n  pop\n    /* \"contracts/Multisig.sol\":1316:1600  constructor(address[] memory _owners, uint _required) {\r... */\n  pop\n  pop\n    /* \"contracts/Multisig.sol\":59:1605  contract MultiSigWallet {\r... */\n  jump(tag_18)\n    /* \"#utility.yul\":24:768   */\ntag_20:\n    /* \"#utility.yul\":131:136   */\n  0x00\n    /* \"#utility.yul\":156:237   */\n  tag_22\n    /* \"#utility.yul\":172:236   */\n  tag_23\n    /* \"#utility.yul\":229:235   */\n  dup5\n    /* \"#utility.yul\":172:236   */\n  tag_24\n  jump\t// in\ntag_23:\n    /* \"#utility.yul\":156:237   */\n  tag_25\n  jump\t// in\ntag_22:\n    /* \"#utility.yul\":147:237   */\n  swap1\n  pop\n    /* \"#utility.yul\":257:262   */\n  dup1\n    /* \"#utility.yul\":286:292   */\n  dup4\n    /* \"#utility.yul\":279:284   */\n  dup3\n    /* \"#utility.yul\":272:293   */\n  mstore\n    /* \"#utility.yul\":320:324   */\n  0x20\n    /* \"#utility.yul\":313:318   */\n  dup3\n    /* \"#utility.yul\":309:325   */\n  add\n    /* \"#utility.yul\":302:325   */\n  swap1\n  pop\n    /* \"#utility.yul\":346:352   */\n  dup3\n    /* \"#utility.yul\":396:399   */\n  dup6\n    /* \"#utility.yul\":388:392   */\n  0x20\n    /* \"#utility.yul\":380:386   */\n  dup7\n    /* \"#utility.yul\":376:393   */\n  mul\n    /* \"#utility.yul\":371:374   */\n  dup3\n    /* \"#utility.yul\":367:394   */\n  add\n    /* \"#utility.yul\":364:400   */\n  gt\n    /* \"#utility.yul\":361:504   */\n  iszero\n  tag_26\n  jumpi\n    /* \"#utility.yul\":415:494   */\n  tag_27\n  tag_28\n  jump\t// in\ntag_27:\n    /* \"#utility.yul\":361:504   */\ntag_26:\n    /* \"#utility.yul\":528:529   */\n  0x00\n    /* \"#utility.yul\":513:762   */\ntag_29:\n    /* \"#utility.yul\":538:544   */\n  dup6\n    /* \"#utility.yul\":535:536   */\n  dup2\n    /* \"#utility.yul\":532:545   */\n  lt\n    /* \"#utility.yul\":513:762   */\n  iszero\n  tag_31\n  jumpi\n    /* \"#utility.yul\":606:609   */\n  dup2\n    /* \"#utility.yul\":635:683   */\n  tag_32\n    /* \"#utility.yul\":679:682   */\n  dup9\n    /* \"#utility.yul\":667:677   */\n  dup3\n    /* \"#utility.yul\":635:683   */\n  tag_33\n  jump\t// in\ntag_32:\n    /* \"#utility.yul\":630:633   */\n  dup5\n    /* \"#utility.yul\":623:684   */\n  mstore\n    /* \"#utility.yul\":713:717   */\n  0x20\n    /* \"#utility.yul\":708:711   */\n  dup5\n    /* \"#utility.yul\":704:718   */\n  add\n    /* \"#utility.yul\":697:718   */\n  swap4\n  pop\n    /* \"#utility.yul\":747:751   */\n  0x20\n    /* \"#utility.yul\":742:745   */\n  dup4\n    /* \"#utility.yul\":738:752   */\n  add\n    /* \"#utility.yul\":731:752   */\n  swap3\n  pop\n    /* \"#utility.yul\":573:762   */\n  pop\n    /* \"#utility.yul\":560:561   */\n  0x01\n    /* \"#utility.yul\":557:558   */\n  dup2\n    /* \"#utility.yul\":553:562   */\n  add\n    /* \"#utility.yul\":548:562   */\n  swap1\n  pop\n    /* \"#utility.yul\":513:762   */\n  jump(tag_29)\ntag_31:\n    /* \"#utility.yul\":517:531   */\n  pop\n    /* \"#utility.yul\":137:768   */\n  pop\n  pop\n    /* \"#utility.yul\":24:768   */\n  swap4\n  swap3\n  pop\n  pop\n  pop\n  jump\t// out\n    /* \"#utility.yul\":774:917   */\ntag_33:\n    /* \"#utility.yul\":831:836   */\n  0x00\n    /* \"#utility.yul\":862:868   */\n  dup2\n    /* \"#utility.yul\":856:869   */\n  mload\n    /* \"#utility.yul\":847:869   */\n  swap1\n  pop\n    /* \"#utility.yul\":878:911   */\n  tag_35\n    /* \"#utility.yul\":905:910   */\n  dup2\n    /* \"#utility.yul\":878:911   */\n  tag_36\n  jump\t// in\ntag_35:\n    /* \"#utility.yul\":774:917   */\n  swap3\n  swap2\n  pop\n  pop\n  jump\t// out\n    /* \"#utility.yul\":940:1325   */\ntag_37:\n    /* \"#utility.yul\":1022:1027   */\n  0x00\n    /* \"#utility.yul\":1071:1074   */\n  dup3\n    /* \"#utility.yul\":1064:1068   */\n  0x1f\n    /* \"#utility.yul\":1056:1062   */\n  dup4\n    /* \"#utility.yul\":1052:1069   */\n  add\n    /* \"#utility.yul\":1048:1075   */\n  slt\n    /* \"#utility.yul\":1038:1160   */\n  tag_39\n  jumpi\n    /* \"#utility.yul\":1079:1158   */\n  tag_40\n  tag_41\n  jump\t// in\ntag_40:\n    /* \"#utility.yul\":1038:1160   */\ntag_39:\n    /* \"#utility.yul\":1189:1195   */\n  dup2\n    /* \"#utility.yul\":1183:1196   */\n  mload\n    /* \"#utility.yul\":1214:1319   */\n  tag_42\n    /* \"#utility.yul\":1315:1318   */\n  dup5\n    /* \"#utility.yul\":1307:1313   */\n  dup3\n    /* \"#utility.yul\":1300:1304   */\n  0x20\n    /* \"#utility.yul\":1292:1298   */\n  dup7\n    /* \"#utility.yul\":1288:1305   */\n  add\n    /* \"#utility.yul\":1214:1319   */\n  tag_20\n  jump\t// in\ntag_42:\n    /* \"#utility.yul\":1205:1319   */\n  swap2\n  pop\n    /* \"#utility.yul\":1028:1325   */\n  pop\n    /* \"#utility.yul\":940:1325   */\n  swap3\n  swap2\n  pop\n  pop\n  jump\t// out\n    /* \"#utility.yul\":1331:1474   */\ntag_43:\n    /* \"#utility.yul\":1388:1393   */\n  0x00\n    /* \"#utility.yul\":1419:1425   */\n  dup2\n    /* \"#utility.yul\":1413:1426   */\n  mload\n    /* \"#utility.yul\":1404:1426   */\n  swap1\n  pop\n    /* \"#utility.yul\":1435:1468   */\n  tag_45\n    /* \"#utility.yul\":1462:1467   */\n  dup2\n    /* \"#utility.yul\":1435:1468   */\n  tag_46\n  jump\t// in\ntag_45:\n    /* \"#utility.yul\":1331:1474   */\n  swap3\n  swap2\n  pop\n  pop\n  jump\t// out\n    /* \"#utility.yul\":1480:2190   */\ntag_3:\n    /* \"#utility.yul\":1584:1590   */\n  0x00\n    /* \"#utility.yul\":1592:1598   */\n  dup1\n    /* \"#utility.yul\":1641:1643   */\n  0x40\n    /* \"#utility.yul\":1629:1638   */\n  dup4\n    /* \"#utility.yul\":1620:1627   */\n  dup6\n    /* \"#utility.yul\":1616:1639   */\n  sub\n    /* \"#utility.yul\":1612:1644   */\n  slt\n    /* \"#utility.yul\":1609:1728   */\n  iszero\n  tag_48\n  jumpi\n    /* \"#utility.yul\":1647:1726   */\n  tag_49\n  tag_50\n  jump\t// in\ntag_49:\n    /* \"#utility.yul\":1609:1728   */\ntag_48:\n    /* \"#utility.yul\":1788:1789   */\n  0x00\n    /* \"#utility.yul\":1777:1786   */\n  dup4\n    /* \"#utility.yul\":1773:1790   */\n  add\n    /* \"#utility.yul\":1767:1791   */\n  mload\n    /* \"#utility.yul\":1818:1836   */\n  0xffffffffffffffff\n    /* \"#utility.yul\":1810:1816   */\n  dup2\n    /* \"#utility.yul\":1807:1837   */\n  gt\n    /* \"#utility.yul\":1804:1921   */\n  iszero\n  tag_51\n  jumpi\n    /* \"#utility.yul\":1840:1919   */\n  tag_52\n  tag_53\n  jump\t// in\ntag_52:\n    /* \"#utility.yul\":1804:1921   */\ntag_51:\n    /* \"#utility.yul\":1945:2034   */\n  tag_54\n    /* \"#utility.yul\":2026:2033   */\n  dup6\n    /* \"#utility.yul\":2017:2023   */\n  dup3\n    /* \"#utility.yul\":2006:2015   */\n  dup7\n    /* \"#utility.yul\":2002:2024   */\n  add\n    /* \"#utility.yul\":1945:2034   */\n  tag_37\n  jump\t// in\ntag_54:\n    /* \"#utility.yul\":1935:2034   */\n  swap3\n  pop\n    /* \"#utility.yul\":1738:2044   */\n  pop\n    /* \"#utility.yul\":2083:2085   */\n  0x20\n    /* \"#utility.yul\":2109:2173   */\n  tag_55\n    /* \"#utility.yul\":2165:2172   */\n  dup6\n    /* \"#utility.yul\":2156:2162   */\n  dup3\n    /* \"#utility.yul\":2145:2154   */\n  dup7\n    /* \"#utility.yul\":2141:2163   */\n  add\n    /* \"#utility.yul\":2109:2173   */\n  tag_43\n  jump\t// in\ntag_55:\n    /* \"#utility.yul\":2099:2173   */\n  swap2\n  pop\n    /* \"#utility.yul\":2054:2183   */\n  pop\n    /* \"#utility.yul\":1480:2190   */\n  swap3\n  pop\n  swap3\n  swap1\n  pop\n  jump\t// out\n    /* \"#utility.yul\":2196:2562   */\ntag_56:\n    /* \"#utility.yul\":2338:2341   */\n  0x00\n    /* \"#utility.yul\":2359:2426   */\n  tag_58\n    /* \"#utility.yul\":2423:2425   */\n  0x0f\n    /* \"#utility.yul\":2418:2421   */\n  dup4\n    /* \"#utility.yul\":2359:2426   */\n  tag_59\n  jump\t// in\ntag_58:\n    /* \"#utility.yul\":2352:2426   */\n  swap2\n  pop\n    /* \"#utility.yul\":2435:2528   */\n  tag_60\n    /* \"#utility.yul\":2524:2527   */\n  dup3\n    /* \"#utility.yul\":2435:2528   */\n  tag_61\n  jump\t// in\ntag_60:\n    /* \"#utility.yul\":2553:2555   */\n  0x20\n    /* \"#utility.yul\":2548:2551   */\n  dup3\n    /* \"#utility.yul\":2544:2556   */\n  add\n    /* \"#utility.yul\":2537:2556   */\n  swap1\n  pop\n    /* \"#utility.yul\":2196:2562   */\n  swap2\n  swap1\n  pop\n  jump\t// out\n    /* \"#utility.yul\":2568:2934   */\ntag_62:\n    /* \"#utility.yul\":2710:2713   */\n  0x00\n    /* \"#utility.yul\":2731:2798   */\n  tag_64\n    /* \"#utility.yul\":2795:2797   */\n  0x18\n    /* \"#utility.yul\":2790:2793   */\n  dup4\n    /* \"#utility.yul\":2731:2798   */\n  tag_59\n  jump\t// in\ntag_64:\n    /* \"#utility.yul\":2724:2798   */\n  swap2\n  pop\n    /* \"#utility.yul\":2807:2900   */\n  tag_65\n    /* \"#utility.yul\":2896:2899   */\n  dup3\n    /* \"#utility.yul\":2807:2900   */\n  tag_66\n  jump\t// in\ntag_65:\n    /* \"#utility.yul\":2925:2927   */\n  0x20\n    /* \"#utility.yul\":2920:2923   */\n  dup3\n    /* \"#utility.yul\":2916:2928   */\n  add\n    /* \"#utility.yul\":2909:2928   */\n  swap1\n  pop\n    /* \"#utility.yul\":2568:2934   */\n  swap2\n  swap1\n  pop\n  jump\t// out\n    /* \"#utility.yul\":2940:3359   */\ntag_8:\n    /* \"#utility.yul\":3106:3110   */\n  0x00\n    /* \"#utility.yul\":3144:3146   */\n  0x20\n    /* \"#utility.yul\":3133:3142   */\n  dup3\n    /* \"#utility.yul\":3129:3147   */\n  add\n    /* \"#utility.yul\":3121:3147   */\n  swap1\n  pop\n    /* \"#utility.yul\":3193:3202   */\n  dup2\n    /* \"#utility.yul\":3187:3191   */\n  dup2\n    /* \"#utility.yul\":3183:3203   */\n  sub\n    /* \"#utility.yul\":3179:3180   */\n  0x00\n    /* \"#utility.yul\":3168:3177   */\n  dup4\n    /* \"#utility.yul\":3164:3181   */\n  add\n    /* \"#utility.yul\":3157:3204   */\n  mstore\n    /* \"#utility.yul\":3221:3352   */\n  tag_68\n    /* \"#utility.yul\":3347:3351   */\n  dup2\n    /* \"#utility.yul\":3221:3352   */\n  tag_56\n  jump\t// in\ntag_68:\n    /* \"#utility.yul\":3213:3352   */\n  swap1\n  pop\n    /* \"#utility.yul\":2940:3359   */\n  swap2\n  swap1\n  pop\n  jump\t// out\n    /* \"#utility.yul\":3365:3784   */\ntag_12:\n    /* \"#utility.yul\":3531:3535   */\n  0x00\n    /* \"#utility.yul\":3569:3571   */\n  0x20\n    /* \"#utility.yul\":3558:3567   */\n  dup3\n    /* \"#utility.yul\":3554:3572   */\n  add\n    /* \"#utility.yul\":3546:3572   */\n  swap1\n  pop\n    /* \"#utility.yul\":3618:3627   */\n  dup2\n    /* \"#utility.yul\":3612:3616   */\n  dup2\n    /* \"#utility.yul\":3608:3628   */\n  sub\n    /* \"#utility.yul\":3604:3605   */\n  0x00\n    /* \"#utility.yul\":3593:3602   */\n  dup4\n    /* \"#utility.yul\":3589:3606   */\n  add\n    /* \"#utility.yul\":3582:3629   */\n  mstore\n    /* \"#utility.yul\":3646:3777   */\n  tag_70\n    /* \"#utility.yul\":3772:3776   */\n  dup2\n    /* \"#utility.yul\":3646:3777   */\n  tag_62\n  jump\t// in\ntag_70:\n    /* \"#utility.yul\":3638:3777   */\n  swap1\n  pop\n    /* \"#utility.yul\":3365:3784   */\n  swap2\n  swap1\n  pop\n  jump\t// out\n    /* \"#utility.yul\":3790:3919   */\ntag_25:\n    /* \"#utility.yul\":3824:3830   */\n  0x00\n    /* \"#utility.yul\":3851:3871   */\n  tag_72\n  tag_73\n  jump\t// in\ntag_72:\n    /* \"#utility.yul\":3841:3871   */\n  swap1\n  pop\n    /* \"#utility.yul\":3880:3913   */\n  tag_74\n    /* \"#utility.yul\":3908:3912   */\n  dup3\n    /* \"#utility.yul\":3900:3906   */\n  dup3\n    /* \"#utility.yul\":3880:3913   */\n  tag_75\n  jump\t// in\ntag_74:\n    /* \"#utility.yul\":3790:3919   */\n  swap2\n  swap1\n  pop\n  jump\t// out\n    /* \"#utility.yul\":3925:4000   */\ntag_73:\n    /* \"#utility.yul\":3958:3964   */\n  0x00\n    /* \"#utility.yul\":3991:3993   */\n  0x40\n    /* \"#utility.yul\":3985:3994   */\n  mload\n    /* \"#utility.yul\":3975:3994   */\n  swap1\n  pop\n    /* \"#utility.yul\":3925:4000   */\n  swap1\n  jump\t// out\n    /* \"#utility.yul\":4006:4317   */\ntag_24:\n    /* \"#utility.yul\":4083:4087   */\n  0x00\n    /* \"#utility.yul\":4173:4191   */\n  0xffffffffffffffff\n    /* \"#utility.yul\":4165:4171   */\n  dup3\n    /* \"#utility.yul\":4162:4192   */\n  gt\n    /* \"#utility.yul\":4159:4215   */\n  iszero\n  tag_78\n  jumpi\n    /* \"#utility.yul\":4195:4213   */\n  tag_79\n  tag_80\n  jump\t// in\ntag_79:\n    /* \"#utility.yul\":4159:4215   */\ntag_78:\n    /* \"#utility.yul\":4245:4249   */\n  0x20\n    /* \"#utility.yul\":4237:4243   */\n  dup3\n    /* \"#utility.yul\":4233:4250   */\n  mul\n    /* \"#utility.yul\":4225:4250   */\n  swap1\n  pop\n    /* \"#utility.yul\":4305:4309   */\n  0x20\n    /* \"#utility.yul\":4299:4303   */\n  dup2\n    /* \"#utility.yul\":4295:4310   */\n  add\n    /* \"#utility.yul\":4287:4310   */\n  swap1\n  pop\n    /* \"#utility.yul\":4006:4317   */\n  swap2\n  swap1\n  pop\n  jump\t// out\n    /* \"#utility.yul\":4323:4492   */\ntag_59:\n    /* \"#utility.yul\":4407:4418   */\n  0x00\n    /* \"#utility.yul\":4441:4447   */\n  dup3\n    /* \"#utility.yul\":4436:4439   */\n  dup3\n    /* \"#utility.yul\":4429:4448   */\n  mstore\n    /* \"#utility.yul\":4481:4485   */\n  0x20\n    /* \"#utility.yul\":4476:4479   */\n  dup3\n    /* \"#utility.yul\":4472:4486   */\n  add\n    /* \"#utility.yul\":4457:4486   */\n  swap1\n  pop\n    /* \"#utility.yul\":4323:4492   */\n  swap3\n  swap2\n  pop\n  pop\n  jump\t// out\n    /* \"#utility.yul\":4498:4594   */\ntag_82:\n    /* \"#utility.yul\":4535:4542   */\n  0x00\n    /* \"#utility.yul\":4564:4588   */\n  tag_84\n    /* \"#utility.yul\":4582:4587   */\n  dup3\n    /* \"#utility.yul\":4564:4588   */\n  tag_85\n  jump\t// in\ntag_84:\n    /* \"#utility.yul\":4553:4588   */\n  swap1\n  pop\n    /* \"#utility.yul\":4498:4594   */\n  swap2\n  swap1\n  pop\n  jump\t// out\n    /* \"#utility.yul\":4600:4726   */\ntag_85:\n    /* \"#utility.yul\":4637:4644   */\n  0x00\n    /* \"#utility.yul\":4677:4719   */\n  0xffffffffffffffffffffffffffffffffffffffff\n    /* \"#utility.yul\":4670:4675   */\n  dup3\n    /* \"#utility.yul\":4666:4720   */\n  and\n    /* \"#utility.yul\":4655:4720   */\n  swap1\n  pop\n    /* \"#utility.yul\":4600:4726   */\n  swap2\n  swap1\n  pop\n  jump\t// out\n    /* \"#utility.yul\":4732:4809   */\ntag_87:\n    /* \"#utility.yul\":4769:4776   */\n  0x00\n    /* \"#utility.yul\":4798:4803   */\n  dup2\n    /* \"#utility.yul\":4787:4803   */\n  swap1\n  pop\n    /* \"#utility.yul\":4732:4809   */\n  swap2\n  swap1\n  pop\n  jump\t// out\n    /* \"#utility.yul\":4815:5096   */\ntag_75:\n    /* \"#utility.yul\":4898:4925   */\n  tag_90\n    /* \"#utility.yul\":4920:4924   */\n  dup3\n    /* \"#utility.yul\":4898:4925   */\n  tag_91\n  jump\t// in\ntag_90:\n    /* \"#utility.yul\":4890:4896   */\n  dup2\n    /* \"#utility.yul\":4886:4926   */\n  add\n    /* \"#utility.yul\":5028:5034   */\n  dup2\n    /* \"#utility.yul\":5016:5026   */\n  dup2\n    /* \"#utility.yul\":5013:5035   */\n  lt\n    /* \"#utility.yul\":4992:5010   */\n  0xffffffffffffffff\n    /* \"#utility.yul\":4980:4990   */\n  dup3\n    /* \"#utility.yul\":4977:5011   */\n  gt\n    /* \"#utility.yul\":4974:5036   */\n  or\n    /* \"#utility.yul\":4971:5059   */\n  iszero\n  tag_92\n  jumpi\n    /* \"#utility.yul\":5039:5057   */\n  tag_93\n  tag_80\n  jump\t// in\ntag_93:\n    /* \"#utility.yul\":4971:5059   */\ntag_92:\n    /* \"#utility.yul\":5079:5089   */\n  dup1\n    /* \"#utility.yul\":5075:5077   */\n  0x40\n    /* \"#utility.yul\":5068:5090   */\n  mstore\n    /* \"#utility.yul\":4858:5096   */\n  pop\n    /* \"#utility.yul\":4815:5096   */\n  pop\n  pop\n  jump\t// out\n    /* \"#utility.yul\":5102:5335   */\ntag_17:\n    /* \"#utility.yul\":5141:5144   */\n  0x00\n    /* \"#utility.yul\":5164:5188   */\n  tag_95\n    /* \"#utility.yul\":5182:5187   */\n  dup3\n    /* \"#utility.yul\":5164:5188   */\n  tag_87\n  jump\t// in\ntag_95:\n    /* \"#utility.yul\":5155:5188   */\n  swap2\n  pop\n    /* \"#utility.yul\":5210:5276   */\n  0xffffffffffffffffffffffffffffffffffffffffffffffffffffffffffffffff\n    /* \"#utility.yul\":5203:5208   */\n  dup3\n    /* \"#utility.yul\":5200:5277   */\n  eq\n    /* \"#utility.yul\":5197:5300   */\n  iszero\n  tag_96\n  jumpi\n    /* \"#utility.yul\":5280:5298   */\n  tag_97\n  tag_98\n  jump\t// in\ntag_97:\n    /* \"#utility.yul\":5197:5300   */\ntag_96:\n    /* \"#utility.yul\":5327:5328   */\n  0x01\n    /* \"#utility.yul\":5320:5325   */\n  dup3\n    /* \"#utility.yul\":5316:5329   */\n  add\n    /* \"#utility.yul\":5309:5329   */\n  swap1\n  pop\n    /* \"#utility.yul\":5102:5335   */\n  swap2\n  swap1\n  pop\n  jump\t// out\n    /* \"#utility.yul\":5341:5521   */\ntag_98:\n    /* \"#utility.yul\":5389:5466   */\n  0x4e487b7100000000000000000000000000000000000000000000000000000000\n    /* \"#utility.yul\":5386:5387   */\n  0x00\n    /* \"#utility.yul\":5379:5467   */\n  mstore\n    /* \"#utility.yul\":5486:5490   */\n  0x11\n    /* \"#utility.yul\":5483:5484   */\n  0x04\n    /* \"#utility.yul\":5476:5491   */\n  mstore\n    /* \"#utility.yul\":5510:5514   */\n  0x24\n    /* \"#utility.yul\":5507:5508   */\n  0x00\n    /* \"#utility.yul\":5500:5515   */\n  revert\n    /* \"#utility.yul\":5527:5707   */\ntag_80:\n    /* \"#utility.yul\":5575:5652   */\n  0x4e487b7100000000000000000000000000000000000000000000000000000000\n    /* \"#utility.yul\":5572:5573   */\n  0x00\n    /* \"#utility.yul\":5565:5653   */\n  mstore\n    /* \"#utility.yul\":5672:5676   */\n  0x41\n    /* \"#utility.yul\":5669:5670   */\n  0x04\n    /* \"#utility.yul\":5662:5677   */\n  mstore\n    /* \"#utility.yul\":5696:5700   */\n  0x24\n    /* \"#utility.yul\":5693:5694   */\n  0x00\n    /* \"#utility.yul\":5686:5701   */\n  revert\n    /* \"#utility.yul\":5713:5830   */\ntag_41:\n    /* \"#utility.yul\":5822:5823   */\n  0x00\n    /* \"#utility.yul\":5819:5820   */\n  dup1\n    /* \"#utility.yul\":5812:5824   */\n  revert\n    /* \"#utility.yul\":5836:5953   */\ntag_28:\n    /* \"#utility.yul\":5945:5946   */\n  0x00\n    /* \"#utility.yul\":5942:5943   */\n  dup1\n    /* \"#utility.yul\":5935:5947   */\n  revert\n    /* \"#utility.yul\":5959:6076   */\ntag_53:\n    /* \"#utility.yul\":6068:6069   */\n  0x00\n    /* \"#utility.yul\":6065:6066   */\n  dup1\n    /* \"#utility.yul\":6058:6070   */\n  revert\n    /* \"#utility.yul\":6082:6199   */\ntag_50:\n    /* \"#utility.yul\":6191:6192   */\n  0x00\n    /* \"#utility.yul\":6188:6189   */\n  dup1\n    /* \"#utility.yul\":6181:6193   */\n  revert\n    /* \"#utility.yul\":6205:6307   */\ntag_91:\n    /* \"#utility.yul\":6246:6252   */\n  0x00\n    /* \"#utility.yul\":6297:6299   */\n  0x1f\n    /* \"#utility.yul\":6293:6300   */\n  not\n    /* \"#utility.yul\":6288:6290   */\n  0x1f\n    /* \"#utility.yul\":6281:6286   */\n  dup4\n    /* \"#utility.yul\":6277:6291   */\n  add\n    /* \"#utility.yul\":6273:6301   */\n  and\n    /* \"#utility.yul\":6263:6301   */\n  swap1\n  pop\n    /* \"#utility.yul\":6205:6307   */\n  swap2\n  swap1\n  pop\n  jump\t// out\n    /* \"#utility.yul\":6313:6478   */\ntag_61:\n    /* \"#utility.yul\":6453:6470   */\n  0x6f776e6572732072657175697265640000000000000000000000000000000000\n    /* \"#utility.yul\":6449:6450   */\n  0x00\n    /* \"#utility.yul\":6441:6447   */\n  dup3\n    /* \"#utility.yul\":6437:6451   */\n  add\n    /* \"#utility.yul\":6430:6471   */\n  mstore\n    /* \"#utility.yul\":6313:6478   */\n  pop\n  jump\t// out\n    /* \"#utility.yul\":6484:6658   */\ntag_66:\n    /* \"#utility.yul\":6624:6650   */\n  0x496e76616c6964206e756d626572206f66206f776e6572730000000000000000\n    /* \"#utility.yul\":6620:6621   */\n  0x00\n    /* \"#utility.yul\":6612:6618   */\n  dup3\n    /* \"#utility.yul\":6608:6622   */\n  add\n    /* \"#utility.yul\":6601:6651   */\n  mstore\n    /* \"#utility.yul\":6484:6658   */\n  pop\n  jump\t// out\n    /* \"#utility.yul\":6664:6786   */\ntag_36:\n    /* \"#utility.yul\":6737:6761   */\n  tag_109\n    /* \"#utility.yul\":6755:6760   */\n  dup2\n    /* \"#utility.yul\":6737:6761   */\n  tag_82\n  jump\t// in\ntag_109:\n    /* \"#utility.yul\":6730:6735   */\n  dup2\n    /* \"#utility.yul\":6727:6762   */\n  eq\n    /* \"#utility.yul\":6717:6780   */\n  tag_110\n  jumpi\n    /* \"#utility.yul\":6776:6777   */\n  0x00\n    /* \"#utility.yul\":6773:6774   */\n  dup1\n    /* \"#utility.yul\":6766:6778   */\n  revert\n    /* \"#utility.yul\":6717:6780   */\ntag_110:\n    /* \"#utility.yul\":6664:6786   */\n  pop\n  jump\t// out\n    /* \"#utility.yul\":6792:6914   */\ntag_46:\n    /* \"#utility.yul\":6865:6889   */\n  tag_112\n    /* \"#utility.yul\":6883:6888   */\n  dup2\n    /* \"#utility.yul\":6865:6889   */\n  tag_87\n  jump\t// in\ntag_112:\n    /* \"#utility.yul\":6858:6863   */\n  dup2\n    /* \"#utility.yul\":6855:6890   */\n  eq\n    /* \"#utility.yul\":6845:6908   */\n  tag_113\n  jumpi\n    /* \"#utility.yul\":6904:6905   */\n  0x00\n    /* \"#utility.yul\":6901:6902   */\n  dup1\n    /* \"#utility.yul\":6894:6906   */\n  revert\n    /* \"#utility.yul\":6845:6908   */\ntag_113:\n    /* \"#utility.yul\":6792:6914   */\n  pop\n  jump\t// out\n    /* \"contracts/Multisig.sol\":59:1605  contract MultiSigWallet {\r... */\ntag_18:\n  dataSize(sub_0)\n  dup1\n  dataOffset(sub_0)\n  0x00\n  codecopy\n  0x00\n  return\nstop\n\nsub_0: assembly {\n        /* \"contracts/Multisig.sol\":59:1605  contract MultiSigWallet {\r... */\n      mstore(0x40, 0x80)\n      callvalue\n      dup1\n      iszero\n      tag_1\n      jumpi\n      0x00\n      dup1\n      revert\n    tag_1:\n      pop\n      jumpi(tag_2, lt(calldatasize, 0x04))\n      shr(0xe0, calldataload(0x00))\n      dup1\n      0x025e7c27\n      eq\n      tag_3\n      jumpi\n      dup1\n      0x2f54bf6e\n      eq\n      tag_4\n      jumpi\n      dup1\n      0x8253951a\n      eq\n      tag_5\n      jumpi\n      dup1\n      0x9ace38c2\n      eq\n      tag_6\n      jumpi\n      dup1\n      0xdc8452cd\n      eq\n      tag_7\n      jumpi\n    tag_2:\n      0x00\n      dup1\n      revert\n        /* \"contracts/Multisig.sol\":816:840  address [] public owners */\n    tag_3:\n      tag_8\n      0x04\n      dup1\n      calldatasize\n      sub\n      dup2\n      add\n      swap1\n      tag_9\n      swap2\n      swap1\n      tag_10\n      jump\t// in\n    tag_9:\n      tag_11\n      jump\t// in\n    tag_8:\n      mload(0x40)\n      tag_12\n      swap2\n      swap1\n      tag_13\n      jump\t// in\n    tag_12:\n      mload(0x40)\n      dup1\n      swap2\n      sub\n      swap1\n      return\n        /* \"contracts/Multisig.sol\":847:886  mapping(address => bool) public isOwner */\n    tag_4:\n      tag_14\n      0x04\n      dup1\n      calldatasize\n      sub\n      dup2\n      add\n      swap1\n      tag_15\n      swap2\n      swap1\n      tag_16\n      jump\t// in\n    tag_15:\n      tag_17\n      jump\t// in\n    tag_14:\n      mload(0x40)\n      tag_18\n      swap2\n      swap1\n      tag_19\n      jump\t// in\n    tag_18:\n      mload(0x40)\n      dup1\n      swap2\n      sub\n      swap1\n      return\n        /* \"contracts/Multisig.sol\":1170:1228  mapping (uint => mapping(address => bool)) public approved */\n    tag_5:\n      tag_20\n      0x04\n      dup1\n      calldatasize\n      sub\n      dup2\n      add\n      swap1\n      tag_21\n      swap2\n      swap1\n      tag_22\n      jump\t// in\n    tag_21:\n      tag_23\n      jump\t// in\n    tag_20:\n      mload(0x40)\n      tag_24\n      swap2\n      swap1\n      tag_19\n      jump\t// in\n    tag_24:\n      mload(0x40)\n      dup1\n      swap2\n      sub\n      swap1\n      return\n        /* \"contracts/Multisig.sol\":1027:1061  Transaction [] public transactions */\n    tag_6:\n      tag_25\n      0x04\n      dup1\n      calldatasize\n      sub\n      dup2\n      add\n      swap1\n      tag_26\n      swap2\n      swap1\n      tag_10\n      jump\t// in\n    tag_26:\n      tag_27\n      jump\t// in\n    tag_25:\n      mload(0x40)\n      tag_28\n      swap5\n      swap4\n      swap3\n      swap2\n      swap1\n      tag_29\n      jump\t// in\n    tag_28:\n      mload(0x40)\n      dup1\n      swap2\n      sub\n      swap1\n      return\n        /* \"contracts/Multisig.sol\":893:913  uint public required */\n    tag_7:\n      tag_30\n      tag_31\n      jump\t// in\n    tag_30:\n      mload(0x40)\n      tag_32\n      swap2\n      swap1\n      tag_33\n      jump\t// in\n    tag_32:\n      mload(0x40)\n      dup1\n      swap2\n      sub\n      swap1\n      return\n        /* \"contracts/Multisig.sol\":816:840  address [] public owners */\n    tag_11:\n      0x00\n      dup2\n      dup2\n      sload\n      dup2\n      lt\n      tag_34\n      jumpi\n      0x00\n      dup1\n      revert\n    tag_34:\n      swap1\n      0x00\n      mstore\n      keccak256(0x00, 0x20)\n      add\n      0x00\n      swap2\n      pop\n      sload\n      swap1\n      0x0100\n      exp\n      swap1\n      div\n      0xffffffffffffffffffffffffffffffffffffffff\n      and\n      dup2\n      jump\t// out\n        /* \"contracts/Multisig.sol\":847:886  mapping(address => bool) public isOwner */\n    tag_17:\n      mstore(0x20, 0x01)\n      dup1\n      0x00\n      mstore\n      keccak256(0x00, 0x40)\n      0x00\n      swap2\n      pop\n      sload\n      swap1\n      0x0100\n      exp\n      swap1\n      div\n      0xff\n      and\n      dup2\n      jump\t// out\n        /* \"contracts/Multisig.sol\":1170:1228  mapping (uint => mapping(address => bool)) public approved */\n    tag_23:\n      mstore(0x20, 0x04)\n      dup2\n      0x00\n      mstore\n      mstore(0x20, keccak256(0x00, 0x40))\n      dup1\n      0x00\n      mstore\n      keccak256(0x00, 0x40)\n      0x00\n      swap2\n      pop\n      swap2\n      pop\n      swap1\n      sload\n      swap1\n      0x0100\n      exp\n      swap1\n      div\n      0xff\n      and\n      dup2\n      jump\t// out\n        /* \"contracts/Multisig.sol\":1027:1061  Transaction [] public transactions */\n    tag_27:\n      0x03\n      dup2\n      dup2\n      sload\n      dup2\n      lt\n      tag_36\n      jumpi\n      0x00\n      dup1\n      revert\n    tag_36:\n      swap1\n      0x00\n      mstore\n      keccak256(0x00, 0x20)\n      swap1\n      0x04\n      mul\n      add\n      0x00\n      swap2\n      pop\n      swap1\n      pop\n      dup1\n      0x00\n      add\n      0x00\n      swap1\n      sload\n      swap1\n      0x0100\n      exp\n      swap1\n      div\n      0xffffffffffffffffffffffffffffffffffffffff\n      and\n      swap1\n      dup1\n      0x01\n      add\n      sload\n      swap1\n      dup1\n      0x02\n      add\n      dup1\n      sload\n      tag_38\n      swap1\n      tag_39\n      jump\t// in\n    tag_38:\n      dup1\n      0x1f\n      add\n      0x20\n      dup1\n      swap2\n      div\n      mul\n      0x20\n      add\n      mload(0x40)\n      swap1\n      dup2\n      add\n      0x40\n      mstore\n      dup1\n      swap3\n      swap2\n      swap1\n      dup2\n      dup2\n      mstore\n      0x20\n      add\n      dup3\n      dup1\n      sload\n      tag_40\n      swap1\n      tag_39\n      jump\t// in\n    tag_40:\n      dup1\n      iszero\n      tag_41\n      jumpi\n      dup1\n      0x1f\n      lt\n      tag_42\n      jumpi\n      0x0100\n      dup1\n      dup4\n      sload\n      div\n      mul\n      dup4\n      mstore\n      swap2\n      0x20\n      add\n      swap2\n      jump(tag_41)\n    tag_42:\n      dup3\n      add\n      swap2\n      swap1\n      0x00\n      mstore\n      keccak256(0x00, 0x20)\n      swap1\n    tag_43:\n      dup2\n      sload\n      dup2\n      mstore\n      swap1\n      0x01\n      add\n      swap1\n      0x20\n      add\n      dup1\n      dup4\n      gt\n      tag_43\n      jumpi\n      dup3\n      swap1\n      sub\n      0x1f\n      and\n      dup3\n      add\n      swap2\n    tag_41:\n      pop\n      pop\n      pop\n      pop\n      pop\n      swap1\n      dup1\n      0x03\n      add\n      0x00\n      swap1\n      sload\n      swap1\n      0x0100\n      exp\n      swap1\n      div\n      0xff\n      and\n      swap1\n      pop\n      dup5\n      jump\t// out\n        /* \"contracts/Multisig.sol\":893:913  uint public required */\n    tag_31:\n      sload(0x02)\n      dup2\n      jump\t// out\n        /* \"#utility.yul\":7:146   */\n    tag_45:\n        /* \"#utility.yul\":53:58   */\n      0x00\n        /* \"#utility.yul\":91:97   */\n      dup2\n        /* \"#utility.yul\":78:98   */\n      calldataload\n        /* \"#utility.yul\":69:98   */\n      swap1\n      pop\n        /* \"#utility.yul\":107:140   */\n      tag_47\n        /* \"#utility.yul\":134:139   */\n      dup2\n        /* \"#utility.yul\":107:140   */\n      tag_48\n      jump\t// in\n    tag_47:\n        /* \"#utility.yul\":7:146   */\n      swap3\n      swap2\n      pop\n      pop\n      jump\t// out\n        /* \"#utility.yul\":152:291   */\n    tag_49:\n        /* \"#utility.yul\":198:203   */\n      0x00\n        /* \"#utility.yul\":236:242   */\n      dup2\n        /* \"#utility.yul\":223:243   */\n      calldataload\n        /* \"#utility.yul\":214:243   */\n      swap1\n      pop\n        /* \"#utility.yul\":252:285   */\n      tag_51\n        /* \"#utility.yul\":279:284   */\n      dup2\n        /* \"#utility.yul\":252:285   */\n      tag_52\n      jump\t// in\n    tag_51:\n        /* \"#utility.yul\":152:291   */\n      swap3\n      swap2\n      pop\n      pop\n      jump\t// out\n        /* \"#utility.yul\":297:626   */\n    tag_16:\n        /* \"#utility.yul\":356:362   */\n      0x00\n        /* \"#utility.yul\":405:407   */\n      0x20\n        /* \"#utility.yul\":393:402   */\n      dup3\n        /* \"#utility.yul\":384:391   */\n      dup5\n        /* \"#utility.yul\":380:403   */\n      sub\n        /* \"#utility.yul\":376:408   */\n      slt\n        /* \"#utility.yul\":373:492   */\n      iszero\n      tag_54\n      jumpi\n        /* \"#utility.yul\":411:490   */\n      tag_55\n      tag_56\n      jump\t// in\n    tag_55:\n        /* \"#utility.yul\":373:492   */\n    tag_54:\n        /* \"#utility.yul\":531:532   */\n      0x00\n        /* \"#utility.yul\":556:609   */\n      tag_57\n        /* \"#utility.yul\":601:608   */\n      dup5\n        /* \"#utility.yul\":592:598   */\n      dup3\n        /* \"#utility.yul\":581:590   */\n      dup6\n        /* \"#utility.yul\":577:599   */\n      add\n        /* \"#utility.yul\":556:609   */\n      tag_45\n      jump\t// in\n    tag_57:\n        /* \"#utility.yul\":546:609   */\n      swap2\n      pop\n        /* \"#utility.yul\":502:619   */\n      pop\n        /* \"#utility.yul\":297:626   */\n      swap3\n      swap2\n      pop\n      pop\n      jump\t// out\n        /* \"#utility.yul\":632:961   */\n    tag_10:\n        /* \"#utility.yul\":691:697   */\n      0x00\n        /* \"#utility.yul\":740:742   */\n      0x20\n        /* \"#utility.yul\":728:737   */\n      dup3\n        /* \"#utility.yul\":719:726   */\n      dup5\n        /* \"#utility.yul\":715:738   */\n      sub\n        /* \"#utility.yul\":711:743   */\n      slt\n        /* \"#utility.yul\":708:827   */\n      iszero\n      tag_59\n      jumpi\n        /* \"#utility.yul\":746:825   */\n      tag_60\n      tag_56\n      jump\t// in\n    tag_60:\n        /* \"#utility.yul\":708:827   */\n    tag_59:\n        /* \"#utility.yul\":866:867   */\n      0x00\n        /* \"#utility.yul\":891:944   */\n      tag_61\n        /* \"#utility.yul\":936:943   */\n      dup5\n        /* \"#utility.yul\":927:933   */\n      dup3\n        /* \"#utility.yul\":916:925   */\n      dup6\n        /* \"#utility.yul\":912:934   */\n      add\n        /* \"#utility.yul\":891:944   */\n      tag_49\n      jump\t// in\n    tag_61:\n        /* \"#utility.yul\":881:944   */\n      swap2\n      pop\n        /* \"#utility.yul\":837:954   */\n      pop\n        /* \"#utility.yul\":632:961   */\n      swap3\n      swap2\n      pop\n      pop\n      jump\t// out\n        /* \"#utility.yul\":967:1441   */\n    tag_22:\n        /* \"#utility.yul\":1035:1041   */\n      0x00\n        /* \"#utility.yul\":1043:1049   */\n      dup1\n        /* \"#utility.yul\":1092:1094   */\n      0x40\n        /* \"#utility.yul\":1080:1089   */\n      dup4\n        /* \"#utility.yul\":1071:1078   */\n      dup6\n        /* \"#utility.yul\":1067:1090   */\n      sub\n        /* \"#utility.yul\":1063:1095   */\n      slt\n        /* \"#utility.yul\":1060:1179   */\n      iszero\n      tag_63\n      jumpi\n        /* \"#utility.yul\":1098:1177   */\n      tag_64\n      tag_56\n      jump\t// in\n    tag_64:\n        /* \"#utility.yul\":1060:1179   */\n    tag_63:\n        /* \"#utility.yul\":1218:1219   */\n      0x00\n        /* \"#utility.yul\":1243:1296   */\n      tag_65\n        /* \"#utility.yul\":1288:1295   */\n      dup6\n        /* \"#utility.yul\":1279:1285   */\n      dup3\n        /* \"#utility.yul\":1268:1277   */\n      dup7\n        /* \"#utility.yul\":1264:1286   */\n      add\n        /* \"#utility.yul\":1243:1296   */\n      tag_49\n      jump\t// in\n    tag_65:\n        /* \"#utility.yul\":1233:1296   */\n      swap3\n      pop\n        /* \"#utility.yul\":1189:1306   */\n      pop\n        /* \"#utility.yul\":1345:1347   */\n      0x20\n        /* \"#utility.yul\":1371:1424   */\n      tag_66\n        /* \"#utility.yul\":1416:1423   */\n      dup6\n        /* \"#utility.yul\":1407:1413   */\n      dup3\n        /* \"#utility.yul\":1396:1405   */\n      dup7\n        /* \"#utility.yul\":1392:1414   */\n      add\n        /* \"#utility.yul\":1371:1424   */\n      tag_45\n      jump\t// in\n    tag_66:\n        /* \"#utility.yul\":1361:1424   */\n      swap2\n      pop\n        /* \"#utility.yul\":1316:1434   */\n      pop\n        /* \"#utility.yul\":967:1441   */\n      swap3\n      pop\n      swap3\n      swap1\n      pop\n      jump\t// out\n        /* \"#utility.yul\":1447:1565   */\n    tag_67:\n        /* \"#utility.yul\":1534:1558   */\n      tag_69\n        /* \"#utility.yul\":1552:1557   */\n      dup2\n        /* \"#utility.yul\":1534:1558   */\n      tag_70\n      jump\t// in\n    tag_69:\n        /* \"#utility.yul\":1529:1532   */\n      dup3\n        /* \"#utility.yul\":1522:1559   */\n      mstore\n        /* \"#utility.yul\":1447:1565   */\n      pop\n      pop\n      jump\t// out\n        /* \"#utility.yul\":1571:1680   */\n    tag_71:\n        /* \"#utility.yul\":1652:1673   */\n      tag_73\n        /* \"#utility.yul\":1667:1672   */\n      dup2\n        /* \"#utility.yul\":1652:1673   */\n      tag_74\n      jump\t// in\n    tag_73:\n        /* \"#utility.yul\":1647:1650   */\n      dup3\n        /* \"#utility.yul\":1640:1674   */\n      mstore\n        /* \"#utility.yul\":1571:1680   */\n      pop\n      pop\n      jump\t// out\n        /* \"#utility.yul\":1686:2046   */\n    tag_75:\n        /* \"#utility.yul\":1772:1775   */\n      0x00\n        /* \"#utility.yul\":1800:1838   */\n      tag_77\n        /* \"#utility.yul\":1832:1837   */\n      dup3\n        /* \"#utility.yul\":1800:1838   */\n      tag_78\n      jump\t// in\n    tag_77:\n        /* \"#utility.yul\":1854:1924   */\n      tag_79\n        /* \"#utility.yul\":1917:1923   */\n      dup2\n        /* \"#utility.yul\":1912:1915   */\n      dup6\n        /* \"#utility.yul\":1854:1924   */\n      tag_80\n      jump\t// in\n    tag_79:\n        /* \"#utility.yul\":1847:1924   */\n      swap4\n      pop\n        /* \"#utility.yul\":1933:1985   */\n      tag_81\n        /* \"#utility.yul\":1978:1984   */\n      dup2\n        /* \"#utility.yul\":1973:1976   */\n      dup6\n        /* \"#utility.yul\":1966:1970   */\n      0x20\n        /* \"#utility.yul\":1959:1964   */\n      dup7\n        /* \"#utility.yul\":1955:1971   */\n      add\n        /* \"#utility.yul\":1933:1985   */\n      tag_82\n      jump\t// in\n    tag_81:\n        /* \"#utility.yul\":2010:2039   */\n      tag_83\n        /* \"#utility.yul\":2032:2038   */\n      dup2\n        /* \"#utility.yul\":2010:2039   */\n      tag_84\n      jump\t// in\n    tag_83:\n        /* \"#utility.yul\":2005:2008   */\n      dup5\n        /* \"#utility.yul\":2001:2040   */\n      add\n        /* \"#utility.yul\":1994:2040   */\n      swap2\n      pop\n        /* \"#utility.yul\":1776:2046   */\n      pop\n        /* \"#utility.yul\":1686:2046   */\n      swap3\n      swap2\n      pop\n      pop\n      jump\t// out\n        /* \"#utility.yul\":2052:2170   */\n    tag_85:\n        /* \"#utility.yul\":2139:2163   */\n      tag_87\n        /* \"#utility.yul\":2157:2162   */\n      dup2\n        /* \"#utility.yul\":2139:2163   */\n      tag_88\n      jump\t// in\n    tag_87:\n        /* \"#utility.yul\":2134:2137   */\n      dup3\n        /* \"#utility.yul\":2127:2164   */\n      mstore\n        /* \"#utility.yul\":2052:2170   */\n      pop\n      pop\n      jump\t// out\n        /* \"#utility.yul\":2176:2398   */\n    tag_13:\n        /* \"#utility.yul\":2269:2273   */\n      0x00\n        /* \"#utility.yul\":2307:2309   */\n      0x20\n        /* \"#utility.yul\":2296:2305   */\n      dup3\n        /* \"#utility.yul\":2292:2310   */\n      add\n        /* \"#utility.yul\":2284:2310   */\n      swap1\n      pop\n        /* \"#utility.yul\":2320:2391   */\n      tag_90\n        /* \"#utility.yul\":2388:2389   */\n      0x00\n        /* \"#utility.yul\":2377:2386   */\n      dup4\n        /* \"#utility.yul\":2373:2390   */\n      add\n        /* \"#utility.yul\":2364:2370   */\n      dup5\n        /* \"#utility.yul\":2320:2391   */\n      tag_67\n      jump\t// in\n    tag_90:\n        /* \"#utility.yul\":2176:2398   */\n      swap3\n      swap2\n      pop\n      pop\n      jump\t// out\n        /* \"#utility.yul\":2404:3032   */\n    tag_29:\n        /* \"#utility.yul\":2593:2597   */\n      0x00\n        /* \"#utility.yul\":2631:2634   */\n      0x80\n        /* \"#utility.yul\":2620:2629   */\n      dup3\n        /* \"#utility.yul\":2616:2635   */\n      add\n        /* \"#utility.yul\":2608:2635   */\n      swap1\n      pop\n        /* \"#utility.yul\":2645:2716   */\n      tag_92\n        /* \"#utility.yul\":2713:2714   */\n      0x00\n        /* \"#utility.yul\":2702:2711   */\n      dup4\n        /* \"#utility.yul\":2698:2715   */\n      add\n        /* \"#utility.yul\":2689:2695   */\n      dup8\n        /* \"#utility.yul\":2645:2716   */\n      tag_67\n      jump\t// in\n    tag_92:\n        /* \"#utility.yul\":2726:2798   */\n      tag_93\n        /* \"#utility.yul\":2794:2796   */\n      0x20\n        /* \"#utility.yul\":2783:2792   */\n      dup4\n        /* \"#utility.yul\":2779:2797   */\n      add\n        /* \"#utility.yul\":2770:2776   */\n      dup7\n        /* \"#utility.yul\":2726:2798   */\n      tag_85\n      jump\t// in\n    tag_93:\n        /* \"#utility.yul\":2845:2854   */\n      dup2\n        /* \"#utility.yul\":2839:2843   */\n      dup2\n        /* \"#utility.yul\":2835:2855   */\n      sub\n        /* \"#utility.yul\":2830:2832   */\n      0x40\n        /* \"#utility.yul\":2819:2828   */\n      dup4\n        /* \"#utility.yul\":2815:2833   */\n      add\n        /* \"#utility.yul\":2808:2856   */\n      mstore\n        /* \"#utility.yul\":2873:2949   */\n      tag_94\n        /* \"#utility.yul\":2944:2948   */\n      dup2\n        /* \"#utility.yul\":2935:2941   */\n      dup6\n        /* \"#utility.yul\":2873:2949   */\n      tag_75\n      jump\t// in\n    tag_94:\n        /* \"#utility.yul\":2865:2949   */\n      swap1\n      pop\n        /* \"#utility.yul\":2959:3025   */\n      tag_95\n        /* \"#utility.yul\":3021:3023   */\n      0x60\n        /* \"#utility.yul\":3010:3019   */\n      dup4\n        /* \"#utility.yul\":3006:3024   */\n      add\n        /* \"#utility.yul\":2997:3003   */\n      dup5\n        /* \"#utility.yul\":2959:3025   */\n      tag_71\n      jump\t// in\n    tag_95:\n        /* \"#utility.yul\":2404:3032   */\n      swap6\n      swap5\n      pop\n      pop\n      pop\n      pop\n      pop\n      jump\t// out\n        /* \"#utility.yul\":3038:3248   */\n    tag_19:\n        /* \"#utility.yul\":3125:3129   */\n      0x00\n        /* \"#utility.yul\":3163:3165   */\n      0x20\n        /* \"#utility.yul\":3152:3161   */\n      dup3\n        /* \"#utility.yul\":3148:3166   */\n      add\n        /* \"#utility.yul\":3140:3166   */\n      swap1\n      pop\n        /* \"#utility.yul\":3176:3241   */\n      tag_97\n        /* \"#utility.yul\":3238:3239   */\n      0x00\n        /* \"#utility.yul\":3227:3236   */\n      dup4\n        /* \"#utility.yul\":3223:3240   */\n      add\n        /* \"#utility.yul\":3214:3220   */\n      dup5\n        /* \"#utility.yul\":3176:3241   */\n      tag_71\n      jump\t// in\n    tag_97:\n        /* \"#utility.yul\":3038:3248   */\n      swap3\n      swap2\n      pop\n      pop\n      jump\t// out\n        /* \"#utility.yul\":3254:3476   */\n    tag_33:\n        /* \"#utility.yul\":3347:3351   */\n      0x00\n        /* \"#utility.yul\":3385:3387   */\n      0x20\n        /* \"#utility.yul\":3374:3383   */\n      dup3\n        /* \"#utility.yul\":3370:3388   */\n      add\n        /* \"#utility.yul\":3362:3388   */\n      swap1\n      pop\n        /* \"#utility.yul\":3398:3469   */\n      tag_99\n        /* \"#utility.yul\":3466:3467   */\n      0x00\n        /* \"#utility.yul\":3455:3464   */\n      dup4\n        /* \"#utility.yul\":3451:3468   */\n      add\n        /* \"#utility.yul\":3442:3448   */\n      dup5\n        /* \"#utility.yul\":3398:3469   */\n      tag_85\n      jump\t// in\n    tag_99:\n        /* \"#utility.yul\":3254:3476   */\n      swap3\n      swap2\n      pop\n      pop\n      jump\t// out\n        /* \"#utility.yul\":3563:3661   */\n    tag_78:\n        /* \"#utility.yul\":3614:3620   */\n      0x00\n        /* \"#utility.yul\":3648:3653   */\n      dup2\n        /* \"#utility.yul\":3642:3654   */\n      mload\n        /* \"#utility.yul\":3632:3654   */\n      swap1\n      pop\n        /* \"#utility.yul\":3563:3661   */\n      swap2\n      swap1\n      pop\n      jump\t// out\n        /* \"#utility.yul\":3667:3835   */\n    tag_80:\n        /* \"#utility.yul\":3750:3761   */\n      0x00\n        /* \"#utility.yul\":3784:3790   */\n      dup3\n        /* \"#utility.yul\":3779:3782   */\n      dup3\n        /* \"#utility.yul\":3772:3791   */\n      mstore\n        /* \"#utility.yul\":3824:3828   */\n      0x20\n        /* \"#utility.yul\":3819:3822   */\n      dup3\n        /* \"#utility.yul\":3815:3829   */\n      add\n        /* \"#utility.yul\":3800:3829   */\n      swap1\n      pop\n        /* \"#utility.yul\":3667:3835   */\n      swap3\n      swap2\n      pop\n      pop\n      jump\t// out\n        /* \"#utility.yul\":3841:3937   */\n    tag_70:\n        /* \"#utility.yul\":3878:3885   */\n      0x00\n        /* \"#utility.yul\":3907:3931   */\n      tag_105\n        /* \"#utility.yul\":3925:3930   */\n      dup3\n        /* \"#utility.yul\":3907:3931   */\n      tag_106\n      jump\t// in\n    tag_105:\n        /* \"#utility.yul\":3896:3931   */\n      swap1\n      pop\n        /* \"#utility.yul\":3841:3937   */\n      swap2\n      swap1\n      pop\n      jump\t// out\n        /* \"#utility.yul\":3943:4033   */\n    tag_74:\n        /* \"#utility.yul\":3977:3984   */\n      0x00\n        /* \"#utility.yul\":4020:4025   */\n      dup2\n        /* \"#utility.yul\":4013:4026   */\n      iszero\n        /* \"#utility.yul\":4006:4027   */\n      iszero\n        /* \"#utility.yul\":3995:4027   */\n      swap1\n      pop\n        /* \"#utility.yul\":3943:4033   */\n      swap2\n      swap1\n      pop\n      jump\t// out\n        /* \"#utility.yul\":4039:4165   */\n    tag_106:\n        /* \"#utility.yul\":4076:4083   */\n      0x00\n        /* \"#utility.yul\":4116:4158   */\n      0xffffffffffffffffffffffffffffffffffffffff\n        /* \"#utility.yul\":4109:4114   */\n      dup3\n        /* \"#utility.yul\":4105:4159   */\n      and\n        /* \"#utility.yul\":4094:4159   */\n      swap1\n      pop\n        /* \"#utility.yul\":4039:4165   */\n      swap2\n      swap1\n      pop\n      jump\t// out\n        /* \"#utility.yul\":4171:4248   */\n    tag_88:\n        /* \"#utility.yul\":4208:4215   */\n      0x00\n        /* \"#utility.yul\":4237:4242   */\n      dup2\n        /* \"#utility.yul\":4226:4242   */\n      swap1\n      pop\n        /* \"#utility.yul\":4171:4248   */\n      swap2\n      swap1\n      pop\n      jump\t// out\n        /* \"#utility.yul\":4254:4561   */\n    tag_82:\n        /* \"#utility.yul\":4322:4323   */\n      0x00\n        /* \"#utility.yul\":4332:4445   */\n    tag_111:\n        /* \"#utility.yul\":4346:4352   */\n      dup4\n        /* \"#utility.yul\":4343:4344   */\n      dup2\n        /* \"#utility.yul\":4340:4353   */\n      lt\n        /* \"#utility.yul\":4332:4445   */\n      iszero\n      tag_113\n      jumpi\n        /* \"#utility.yul\":4431:4432   */\n      dup1\n        /* \"#utility.yul\":4426:4429   */\n      dup3\n        /* \"#utility.yul\":4422:4433   */\n      add\n        /* \"#utility.yul\":4416:4434   */\n      mload\n        /* \"#utility.yul\":4412:4413   */\n      dup2\n        /* \"#utility.yul\":4407:4410   */\n      dup5\n        /* \"#utility.yul\":4403:4414   */\n      add\n        /* \"#utility.yul\":4396:4435   */\n      mstore\n        /* \"#utility.yul\":4368:4370   */\n      0x20\n        /* \"#utility.yul\":4365:4366   */\n      dup2\n        /* \"#utility.yul\":4361:4371   */\n      add\n        /* \"#utility.yul\":4356:4371   */\n      swap1\n      pop\n        /* \"#utility.yul\":4332:4445   */\n      jump(tag_111)\n    tag_113:\n        /* \"#utility.yul\":4463:4469   */\n      dup4\n        /* \"#utility.yul\":4460:4461   */\n      dup2\n        /* \"#utility.yul\":4457:4470   */\n      gt\n        /* \"#utility.yul\":4454:4555   */\n      iszero\n      tag_114\n      jumpi\n        /* \"#utility.yul\":4543:4544   */\n      0x00\n        /* \"#utility.yul\":4534:4540   */\n      dup5\n        /* \"#utility.yul\":4529:4532   */\n      dup5\n        /* \"#utility.yul\":4525:4541   */\n      add\n        /* \"#utility.yul\":4518:4545   */\n      mstore\n        /* \"#utility.yul\":4454:4555   */\n    tag_114:\n        /* \"#utility.yul\":4303:4561   */\n      pop\n        /* \"#utility.yul\":4254:4561   */\n      pop\n      pop\n      pop\n      jump\t// out\n        /* \"#utility.yul\":4567:4887   */\n    tag_39:\n        /* \"#utility.yul\":4611:4617   */\n      0x00\n        /* \"#utility.yul\":4648:4649   */\n      0x02\n        /* \"#utility.yul\":4642:4646   */\n      dup3\n        /* \"#utility.yul\":4638:4650   */\n      div\n        /* \"#utility.yul\":4628:4650   */\n      swap1\n      pop\n        /* \"#utility.yul\":4695:4696   */\n      0x01\n        /* \"#utility.yul\":4689:4693   */\n      dup3\n        /* \"#utility.yul\":4685:4697   */\n      and\n        /* \"#utility.yul\":4716:4734   */\n      dup1\n        /* \"#utility.yul\":4706:4787   */\n      tag_116\n      jumpi\n        /* \"#utility.yul\":4772:4776   */\n      0x7f\n        /* \"#utility.yul\":4764:4770   */\n      dup3\n        /* \"#utility.yul\":4760:4777   */\n      and\n        /* \"#utility.yul\":4750:4777   */\n      swap2\n      pop\n        /* \"#utility.yul\":4706:4787   */\n    tag_116:\n        /* \"#utility.yul\":4834:4836   */\n      0x20\n        /* \"#utility.yul\":4826:4832   */\n      dup3\n        /* \"#utility.yul\":4823:4837   */\n      lt\n        /* \"#utility.yul\":4803:4821   */\n      dup2\n        /* \"#utility.yul\":4800:4838   */\n      eq\n        /* \"#utility.yul\":4797:4881   */\n      iszero\n      tag_117\n      jumpi\n        /* \"#utility.yul\":4853:4871   */\n      tag_118\n      tag_119\n      jump\t// in\n    tag_118:\n        /* \"#utility.yul\":4797:4881   */\n    tag_117:\n        /* \"#utility.yul\":4618:4887   */\n      pop\n        /* \"#utility.yul\":4567:4887   */\n      swap2\n      swap1\n      pop\n      jump\t// out\n        /* \"#utility.yul\":4893:5073   */\n    tag_119:\n        /* \"#utility.yul\":4941:5018   */\n      0x4e487b7100000000000000000000000000000000000000000000000000000000\n        /* \"#utility.yul\":4938:4939   */\n      0x00\n        /* \"#utility.yul\":4931:5019   */\n      mstore\n        /* \"#utility.yul\":5038:5042   */\n      0x22\n        /* \"#utility.yul\":5035:5036   */\n      0x04\n        /* \"#utility.yul\":5028:5043   */\n      mstore\n        /* \"#utility.yul\":5062:5066   */\n      0x24\n        /* \"#utility.yul\":5059:5060   */\n      0x00\n        /* \"#utility.yul\":5052:5067   */\n      revert\n        /* \"#utility.yul\":5202:5319   */\n    tag_56:\n        /* \"#utility.yul\":5311:5312   */\n      0x00\n        /* \"#utility.yul\":5308:5309   */\n      dup1\n        /* \"#utility.yul\":5301:5313   */\n      revert\n        /* \"#utility.yul\":5325:5427   */\n    tag_84:\n        /* \"#utility.yul\":5366:5372   */\n      0x00\n        /* \"#utility.yul\":5417:5419   */\n      0x1f\n        /* \"#utility.yul\":5413:5420   */\n      not\n        /* \"#utility.yul\":5408:5410   */\n      0x1f\n        /* \"#utility.yul\":5401:5406   */\n      dup4\n        /* \"#utility.yul\":5397:5411   */\n      add\n        /* \"#utility.yul\":5393:5421   */\n      and\n        /* \"#utility.yul\":5383:5421   */\n      swap1\n      pop\n        /* \"#utility.yul\":5325:5427   */\n      swap2\n      swap1\n      pop\n      jump\t// out\n        /* \"#utility.yul\":5433:5555   */\n    tag_48:\n        /* \"#utility.yul\":5506:5530   */\n      tag_126\n        /* \"#utility.yul\":5524:5529   */\n      dup2\n        /* \"#utility.yul\":5506:5530   */\n      tag_70\n      jump\t// in\n    tag_126:\n        /* \"#utility.yul\":5499:5504   */\n      dup2\n        /* \"#utility.yul\":5496:5531   */\n      eq\n        /* \"#utility.yul\":5486:5549   */\n      tag_127\n      jumpi\n        /* \"#utility.yul\":5545:5546   */\n      0x00\n        /* \"#utility.yul\":5542:5543   */\n      dup1\n        /* \"#utility.yul\":5535:5547   */\n      revert\n        /* \"#utility.yul\":5486:5549   */\n    tag_127:\n        /* \"#utility.yul\":5433:5555   */\n      pop\n      jump\t// out\n        /* \"#utility.yul\":5561:5683   */\n    tag_52:\n        /* \"#utility.yul\":5634:5658   */\n      tag_129\n        /* \"#utility.yul\":5652:5657   */\n      dup2\n        /* \"#utility.yul\":5634:5658   */\n      tag_88\n      jump\t// in\n    tag_129:\n        /* \"#utility.yul\":5627:5632   */\n      dup2\n        /* \"#utility.yul\":5624:5659   */\n      eq\n        /* \"#utility.yul\":5614:5677   */\n      tag_130\n      jumpi\n        /* \"#utility.yul\":5673:5674   */\n      0x00\n        /* \"#utility.yul\":5670:5671   */\n      dup1\n        /* \"#utility.yul\":5663:5675   */\n      revert\n        /* \"#utility.yul\":5614:5677   */\n    tag_130:\n        /* \"#utility.yul\":5561:5683   */\n      pop\n      jump\t// out\n\n    auxdata: 0xa264697066735822122034aae7e8475683a072bd8d8791a150f333dfa250f528fd34e04c0b0aa97e747e64736f6c63430008070033\n}\n",
				"bytecode": {
					"linkReferences": {},
					"object": "60806040523480156200001157600080fd5b5060405162000b1738038062000b178339818101604052810190620000379190620001dc565b60008251116200007e576040517f08c379a0000000000000000000000000000000000000000000000000000000008152600401620000759062000290565b60405180910390fd5b600060025411801562000092575081518111155b620000d4576040517f08c379a0000000000000000000000000000000000000000000000000000000008152600401620000cb90620002b2565b60405180910390fd5b60005b8251811015620000f7578080620000ee90620003b1565b915050620000d7565b50505062000508565b6000620001176200011184620002fd565b620002d4565b905080838252602082019050828560208602820111156200013d576200013c62000462565b5b60005b858110156200017157816200015688826200017b565b84526020840193506020830192505060018101905062000140565b5050509392505050565b6000815190506200018c81620004d4565b92915050565b600082601f830112620001aa57620001a96200045d565b5b8151620001bc84826020860162000100565b91505092915050565b600081519050620001d681620004ee565b92915050565b60008060408385031215620001f657620001f56200046c565b5b600083015167ffffffffffffffff81111562000217576200021662000467565b5b620002258582860162000192565b92505060206200023885828601620001c5565b9150509250929050565b600062000251600f836200032c565b91506200025e8262000482565b602082019050919050565b6000620002786018836200032c565b91506200028582620004ab565b602082019050919050565b60006020820190508181036000830152620002ab8162000242565b9050919050565b60006020820190508181036000830152620002cd8162000269565b9050919050565b6000620002e0620002f3565b9050620002ee82826200037b565b919050565b6000604051905090565b600067ffffffffffffffff8211156200031b576200031a6200042e565b5b602082029050602081019050919050565b600082825260208201905092915050565b60006200034a8262000351565b9050919050565b600073ffffffffffffffffffffffffffffffffffffffff82169050919050565b6000819050919050565b620003868262000471565b810181811067ffffffffffffffff82111715620003a857620003a76200042e565b5b80604052505050565b6000620003be8262000371565b91507fffffffffffffffffffffffffffffffffffffffffffffffffffffffffffffffff821415620003f457620003f3620003ff565b5b600182019050919050565b7f4e487b7100000000000000000000000000000000000000000000000000000000600052601160045260246000fd5b7f4e487b7100000000000000000000000000000000000000000000000000000000600052604160045260246000fd5b600080fd5b600080fd5b600080fd5b600080fd5b6000601f19601f8301169050919050565b7f6f776e6572732072657175697265640000000000000000000000000000000000600082015250565b7f496e76616c6964206e756d626572206f66206f776e6572730000000000000000600082015250565b620004df816200033d565b8114620004eb57600080fd5b50565b620004f98162000371565b81146200050557600080fd5b50565b6105ff80620005186000396000f3fe608060405234801561001057600080fd5b50600436106100575760003560e01c8063025e7c271461005c5780632f54bf6e1461008c5780638253951a146100bc5780639ace38c2146100ec578063dc8452cd1461011f575b600080fd5b6100766004803603810190610071919061031d565b61013d565b60405161008391906103f0565b60405180910390f35b6100a660048036038101906100a191906102f0565b61017c565b6040516100b39190610457565b60405180910390f35b6100d660048036038101906100d1919061034a565b61019c565b6040516100e39190610457565b60405180910390f35b6101066004803603810190610101919061031d565b6101cb565b604051610116949392919061040b565b60405180910390f35b6101276102c0565b6040516101349190610472565b60405180910390f35b6000818154811061014d57600080fd5b906000526020600020016000915054906101000a900473ffffffffffffffffffffffffffffffffffffffff1681565b60016020528060005260406000206000915054906101000a900460ff1681565b60046020528160005260406000206020528060005260406000206000915091509054906101000a900460ff1681565b600381815481106101db57600080fd5b90600052602060002090600402016000915090508060000160009054906101000a900473ffffffffffffffffffffffffffffffffffffffff169080600101549080600201805461022a90610524565b80601f016020809104026020016040519081016040528092919081815260200182805461025690610524565b80156102a35780601f10610278576101008083540402835291602001916102a3565b820191906000526020600020905b81548152906001019060200180831161028657829003601f168201915b5050505050908060030160009054906101000a900460ff16905084565b60025481565b6000813590506102d58161059b565b92915050565b6000813590506102ea816105b2565b92915050565b60006020828403121561030657610305610585565b5b6000610314848285016102c6565b91505092915050565b60006020828403121561033357610332610585565b5b6000610341848285016102db565b91505092915050565b6000806040838503121561036157610360610585565b5b600061036f858286016102db565b9250506020610380858286016102c6565b9150509250929050565b610393816104a9565b82525050565b6103a2816104bb565b82525050565b60006103b38261048d565b6103bd8185610498565b93506103cd8185602086016104f1565b6103d68161058a565b840191505092915050565b6103ea816104e7565b82525050565b6000602082019050610405600083018461038a565b92915050565b6000608082019050610420600083018761038a565b61042d60208301866103e1565b818103604083015261043f81856103a8565b905061044e6060830184610399565b95945050505050565b600060208201905061046c6000830184610399565b92915050565b600060208201905061048760008301846103e1565b92915050565b600081519050919050565b600082825260208201905092915050565b60006104b4826104c7565b9050919050565b60008115159050919050565b600073ffffffffffffffffffffffffffffffffffffffff82169050919050565b6000819050919050565b60005b8381101561050f5780820151818401526020810190506104f4565b8381111561051e576000848401525b50505050565b6000600282049050600182168061053c57607f821691505b602082108114156105505761054f610556565b5b50919050565b7f4e487b7100000000000000000000000000000000000000000000000000000000600052602260045260246000fd5b600080fd5b6000601f19601f8301169050919050565b6105a4816104a9565b81146105af57600080fd5b50565b6105bb816104e7565b81146105c657600080fd5b5056fea264697066735822122034aae7e8475683a072bd8d8791a150f333dfa250f528fd34e04c0b0aa97e747e64736f6c63430008070033",
					"opcodes": "PUSH1 0x80 PUSH1 0x40 MSTORE CALLVALUE DUP1 ISZERO PUSH3 0x11 JUMPI PUSH1 0x0 DUP1 REVERT JUMPDEST POP PUSH1 0x40 MLOAD PUSH3 0xB17 CODESIZE SUB DUP1 PUSH3 0xB17 DUP4 CODECOPY DUP2 DUP2 ADD PUSH1 0x40 MSTORE DUP2 ADD SWAP1 PUSH3 0x37 SWAP2 SWAP1 PUSH3 0x1DC JUMP JUMPDEST PUSH1 0x0 DUP3 MLOAD GT PUSH3 0x7E JUMPI PUSH1 0x40 MLOAD PUSH32 0x8C379A000000000000000000000000000000000000000000000000000000000 DUP2 MSTORE PUSH1 0x4 ADD PUSH3 0x75 SWAP1 PUSH3 0x290 JUMP JUMPDEST PUSH1 0x40 MLOAD DUP1 SWAP2 SUB SWAP1 REVERT JUMPDEST PUSH1 0x0 PUSH1 0x2 SLOAD GT DUP1 ISZERO PUSH3 0x92 JUMPI POP DUP2 MLOAD DUP2 GT ISZERO JUMPDEST PUSH3 0xD4 JUMPI PUSH1 0x40 MLOAD PUSH32 0x8C379A000000000000000000000000000000000000000000000000000000000 DUP2 MSTORE PUSH1 0x4 ADD PUSH3 0xCB SWAP1 PUSH3 0x2B2 JUMP JUMPDEST PUSH1 0x40 MLOAD DUP1 SWAP2 SUB SWAP1 REVERT JUMPDEST PUSH1 0x0 JUMPDEST DUP3 MLOAD DUP2 LT ISZERO PUSH3 0xF7 JUMPI DUP1 DUP1 PUSH3 0xEE SWAP1 PUSH3 0x3B1 JUMP JUMPDEST SWAP2 POP POP PUSH3 0xD7 JUMP JUMPDEST POP POP POP PUSH3 0x508 JUMP JUMPDEST PUSH1 0x0 PUSH3 0x117 PUSH3 0x111 DUP5 PUSH3 0x2FD JUMP JUMPDEST PUSH3 0x2D4 JUMP JUMPDEST SWAP1 POP DUP1 DUP4 DUP3 MSTORE PUSH1 0x20 DUP3 ADD SWAP1 POP DUP3 DUP6 PUSH1 0x20 DUP7 MUL DUP3 ADD GT ISZERO PUSH3 0x13D JUMPI PUSH3 0x13C PUSH3 0x462 JUMP JUMPDEST JUMPDEST PUSH1 0x0 JUMPDEST DUP6 DUP2 LT ISZERO PUSH3 0x171 JUMPI DUP2 PUSH3 0x156 DUP9 DUP3 PUSH3 0x17B JUMP JUMPDEST DUP5 MSTORE PUSH1 0x20 DUP5 ADD SWAP4 POP PUSH1 0x20 DUP4 ADD SWAP3 POP POP PUSH1 0x1 DUP2 ADD SWAP1 POP PUSH3 0x140 JUMP JUMPDEST POP POP POP SWAP4 SWAP3 POP POP POP JUMP JUMPDEST PUSH1 0x0 DUP2 MLOAD SWAP1 POP PUSH3 0x18C DUP2 PUSH3 0x4D4 JUMP JUMPDEST SWAP3 SWAP2 POP POP JUMP JUMPDEST PUSH1 0x0 DUP3 PUSH1 0x1F DUP4 ADD SLT PUSH3 0x1AA JUMPI PUSH3 0x1A9 PUSH3 0x45D JUMP JUMPDEST JUMPDEST DUP2 MLOAD PUSH3 0x1BC DUP5 DUP3 PUSH1 0x20 DUP7 ADD PUSH3 0x100 JUMP JUMPDEST SWAP2 POP POP SWAP3 SWAP2 POP POP JUMP JUMPDEST PUSH1 0x0 DUP2 MLOAD SWAP1 POP PUSH3 0x1D6 DUP2 PUSH3 0x4EE JUMP JUMPDEST SWAP3 SWAP2 POP POP JUMP JUMPDEST PUSH1 0x0 DUP1 PUSH1 0x40 DUP4 DUP6 SUB SLT ISZERO PUSH3 0x1F6 JUMPI PUSH3 0x1F5 PUSH3 0x46C JUMP JUMPDEST JUMPDEST PUSH1 0x0 DUP4 ADD MLOAD PUSH8 0xFFFFFFFFFFFFFFFF DUP2 GT ISZERO PUSH3 0x217 JUMPI PUSH3 0x216 PUSH3 0x467 JUMP JUMPDEST JUMPDEST PUSH3 0x225 DUP6 DUP3 DUP7 ADD PUSH3 0x192 JUMP JUMPDEST SWAP3 POP POP PUSH1 0x20 PUSH3 0x238 DUP6 DUP3 DUP7 ADD PUSH3 0x1C5 JUMP JUMPDEST SWAP2 POP POP SWAP3 POP SWAP3 SWAP1 POP JUMP JUMPDEST PUSH1 0x0 PUSH3 0x251 PUSH1 0xF DUP4 PUSH3 0x32C JUMP JUMPDEST SWAP2 POP PUSH3 0x25E DUP3 PUSH3 0x482 JUMP JUMPDEST PUSH1 0x20 DUP3 ADD SWAP1 POP SWAP2 SWAP1 POP JUMP JUMPDEST PUSH1 0x0 PUSH3 0x278 PUSH1 0x18 DUP4 PUSH3 0x32C JUMP JUMPDEST SWAP2 POP PUSH3 0x285 DUP3 PUSH3 0x4AB JUMP JUMPDEST PUSH1 0x20 DUP3 ADD SWAP1 POP SWAP2 SWAP1 POP JUMP JUMPDEST PUSH1 0x0 PUSH1 0x20 DUP3 ADD SWAP1 POP DUP2 DUP2 SUB PUSH1 0x0 DUP4 ADD MSTORE PUSH3 0x2AB DUP2 PUSH3 0x242 JUMP JUMPDEST SWAP1 POP SWAP2 SWAP1 POP JUMP JUMPDEST PUSH1 0x0 PUSH1 0x20 DUP3 ADD SWAP1 POP DUP2 DUP2 SUB PUSH1 0x0 DUP4 ADD MSTORE PUSH3 0x2CD DUP2 PUSH3 0x269 JUMP JUMPDEST SWAP1 POP SWAP2 SWAP1 POP JUMP JUMPDEST PUSH1 0x0 PUSH3 0x2E0 PUSH3 0x2F3 JUMP JUMPDEST SWAP1 POP PUSH3 0x2EE DUP3 DUP3 PUSH3 0x37B JUMP JUMPDEST SWAP2 SWAP1 POP JUMP JUMPDEST PUSH1 0x0 PUSH1 0x40 MLOAD SWAP1 POP SWAP1 JUMP JUMPDEST PUSH1 0x0 PUSH8 0xFFFFFFFFFFFFFFFF DUP3 GT ISZERO PUSH3 0x31B JUMPI PUSH3 0x31A PUSH3 0x42E JUMP JUMPDEST JUMPDEST PUSH1 0x20 DUP3 MUL SWAP1 POP PUSH1 0x20 DUP2 ADD SWAP1 POP SWAP2 SWAP1 POP JUMP JUMPDEST PUSH1 0x0 DUP3 DUP3 MSTORE PUSH1 0x20 DUP3 ADD SWAP1 POP SWAP3 SWAP2 POP POP JUMP JUMPDEST PUSH1 0x0 PUSH3 0x34A DUP3 PUSH3 0x351 JUMP JUMPDEST SWAP1 POP SWAP2 SWAP1 POP JUMP JUMPDEST PUSH1 0x0 PUSH20 0xFFFFFFFFFFFFFFFFFFFFFFFFFFFFFFFFFFFFFFFF DUP3 AND SWAP1 POP SWAP2 SWAP1 POP JUMP JUMPDEST PUSH1 0x0 DUP2 SWAP1 POP SWAP2 SWAP1 POP JUMP JUMPDEST PUSH3 0x386 DUP3 PUSH3 0x471 JUMP JUMPDEST DUP2 ADD DUP2 DUP2 LT PUSH8 0xFFFFFFFFFFFFFFFF DUP3 GT OR ISZERO PUSH3 0x3A8 JUMPI PUSH3 0x3A7 PUSH3 0x42E JUMP JUMPDEST JUMPDEST DUP1 PUSH1 0x40 MSTORE POP POP POP JUMP JUMPDEST PUSH1 0x0 PUSH3 0x3BE DUP3 PUSH3 0x371 JUMP JUMPDEST SWAP2 POP PUSH32 0xFFFFFFFFFFFFFFFFFFFFFFFFFFFFFFFFFFFFFFFFFFFFFFFFFFFFFFFFFFFFFFFF DUP3 EQ ISZERO PUSH3 0x3F4 JUMPI PUSH3 0x3F3 PUSH3 0x3FF JUMP JUMPDEST JUMPDEST PUSH1 0x1 DUP3 ADD SWAP1 POP SWAP2 SWAP1 POP JUMP JUMPDEST PUSH32 0x4E487B7100000000000000000000000000000000000000000000000000000000 PUSH1 0x0 MSTORE PUSH1 0x11 PUSH1 0x4 MSTORE PUSH1 0x24 PUSH1 0x0 REVERT JUMPDEST PUSH32 0x4E487B7100000000000000000000000000000000000000000000000000000000 PUSH1 0x0 MSTORE PUSH1 0x41 PUSH1 0x4 MSTORE PUSH1 0x24 PUSH1 0x0 REVERT JUMPDEST PUSH1 0x0 DUP1 REVERT JUMPDEST PUSH1 0x0 DUP1 REVERT JUMPDEST PUSH1 0x0 DUP1 REVERT JUMPDEST PUSH1 0x0 DUP1 REVERT JUMPDEST PUSH1 0x0 PUSH1 0x1F NOT PUSH1 0x1F DUP4 ADD AND SWAP1 POP SWAP2 SWAP1 POP JUMP JUMPDEST PUSH32 0x6F776E6572732072657175697265640000000000000000000000000000000000 PUSH1 0x0 DUP3 ADD MSTORE POP JUMP JUMPDEST PUSH32 0x496E76616C6964206E756D626572206F66206F776E6572730000000000000000 PUSH1 0x0 DUP3 ADD MSTORE POP JUMP JUMPDEST PUSH3 0x4DF DUP2 PUSH3 0x33D JUMP JUMPDEST DUP2 EQ PUSH3 0x4EB JUMPI PUSH1 0x0 DUP1 REVERT JUMPDEST POP JUMP JUMPDEST PUSH3 0x4F9 DUP2 PUSH3 0x371 JUMP JUMPDEST DUP2 EQ PUSH3 0x505 JUMPI PUSH1 0x0 DUP1 REVERT JUMPDEST POP JUMP JUMPDEST PUSH2 0x5FF DUP1 PUSH3 0x518 PUSH1 0x0 CODECOPY PUSH1 0x0 RETURN INVALID PUSH1 0x80 PUSH1 0x40 MSTORE CALLVALUE DUP1 ISZERO PUSH2 0x10 JUMPI PUSH1 0x0 DUP1 REVERT JUMPDEST POP PUSH1 0x4 CALLDATASIZE LT PUSH2 0x57 JUMPI PUSH1 0x0 CALLDATALOAD PUSH1 0xE0 SHR DUP1 PUSH4 0x25E7C27 EQ PUSH2 0x5C JUMPI DUP1 PUSH4 0x2F54BF6E EQ PUSH2 0x8C JUMPI DUP1 PUSH4 0x8253951A EQ PUSH2 0xBC JUMPI DUP1 PUSH4 0x9ACE38C2 EQ PUSH2 0xEC JUMPI DUP1 PUSH4 0xDC8452CD EQ PUSH2 0x11F JUMPI JUMPDEST PUSH1 0x0 DUP1 REVERT JUMPDEST PUSH2 0x76 PUSH1 0x4 DUP1 CALLDATASIZE SUB DUP2 ADD SWAP1 PUSH2 0x71 SWAP2 SWAP1 PUSH2 0x31D JUMP JUMPDEST PUSH2 0x13D JUMP JUMPDEST PUSH1 0x40 MLOAD PUSH2 0x83 SWAP2 SWAP1 PUSH2 0x3F0 JUMP JUMPDEST PUSH1 0x40 MLOAD DUP1 SWAP2 SUB SWAP1 RETURN JUMPDEST PUSH2 0xA6 PUSH1 0x4 DUP1 CALLDATASIZE SUB DUP2 ADD SWAP1 PUSH2 0xA1 SWAP2 SWAP1 PUSH2 0x2F0 JUMP JUMPDEST PUSH2 0x17C JUMP JUMPDEST PUSH1 0x40 MLOAD PUSH2 0xB3 SWAP2 SWAP1 PUSH2 0x457 JUMP JUMPDEST PUSH1 0x40 MLOAD DUP1 SWAP2 SUB SWAP1 RETURN JUMPDEST PUSH2 0xD6 PUSH1 0x4 DUP1 CALLDATASIZE SUB DUP2 ADD SWAP1 PUSH2 0xD1 SWAP2 SWAP1 PUSH2 0x34A JUMP JUMPDEST PUSH2 0x19C JUMP JUMPDEST PUSH1 0x40 MLOAD PUSH2 0xE3 SWAP2 SWAP1 PUSH2 0x457 JUMP JUMPDEST PUSH1 0x40 MLOAD DUP1 SWAP2 SUB SWAP1 RETURN JUMPDEST PUSH2 0x106 PUSH1 0x4 DUP1 CALLDATASIZE SUB DUP2 ADD SWAP1 PUSH2 0x101 SWAP2 SWAP1 PUSH2 0x31D JUMP JUMPDEST PUSH2 0x1CB JUMP JUMPDEST PUSH1 0x40 MLOAD PUSH2 0x116 SWAP5 SWAP4 SWAP3 SWAP2 SWAP1 PUSH2 0x40B JUMP JUMPDEST PUSH1 0x40 MLOAD DUP1 SWAP2 SUB SWAP1 RETURN JUMPDEST PUSH2 0x127 PUSH2 0x2C0 JUMP JUMPDEST PUSH1 0x40 MLOAD PUSH2 0x134 SWAP2 SWAP1 PUSH2 0x472 JUMP JUMPDEST PUSH1 0x40 MLOAD DUP1 SWAP2 SUB SWAP1 RETURN JUMPDEST PUSH1 0x0 DUP2 DUP2 SLOAD DUP2 LT PUSH2 0x14D JUMPI PUSH1 0x0 DUP1 REVERT JUMPDEST SWAP1 PUSH1 0x0 MSTORE PUSH1 0x20 PUSH1 0x0 KECCAK256 ADD PUSH1 0x0 SWAP2 POP SLOAD SWAP1 PUSH2 0x100 EXP SWAP1 DIV PUSH20 0xFFFFFFFFFFFFFFFFFFFFFFFFFFFFFFFFFFFFFFFF AND DUP2 JUMP JUMPDEST PUSH1 0x1 PUSH1 0x20 MSTORE DUP1 PUSH1 0x0 MSTORE PUSH1 0x40 PUSH1 0x0 KECCAK256 PUSH1 0x0 SWAP2 POP SLOAD SWAP1 PUSH2 0x100 EXP SWAP1 DIV PUSH1 0xFF AND DUP2 JUMP JUMPDEST PUSH1 0x4 PUSH1 0x20 MSTORE DUP2 PUSH1 0x0 MSTORE PUSH1 0x40 PUSH1 0x0 KECCAK256 PUSH1 0x20 MSTORE DUP1 PUSH1 0x0 MSTORE PUSH1 0x40 PUSH1 0x0 KECCAK256 PUSH1 0x0 SWAP2 POP SWAP2 POP SWAP1 SLOAD SWAP1 PUSH2 0x100 EXP SWAP1 DIV PUSH1 0xFF AND DUP2 JUMP JUMPDEST PUSH1 0x3 DUP2 DUP2 SLOAD DUP2 LT PUSH2 0x1DB JUMPI PUSH1 0x0 DUP1 REVERT JUMPDEST SWAP1 PUSH1 0x0 MSTORE PUSH1 0x20 PUSH1 0x0 KECCAK256 SWAP1 PUSH1 0x4 MUL ADD PUSH1 0x0 SWAP2 POP SWAP1 POP DUP1 PUSH1 0x0 ADD PUSH1 0x0 SWAP1 SLOAD SWAP1 PUSH2 0x100 EXP SWAP1 DIV PUSH20 0xFFFFFFFFFFFFFFFFFFFFFFFFFFFFFFFFFFFFFFFF AND SWAP1 DUP1 PUSH1 0x1 ADD SLOAD SWAP1 DUP1 PUSH1 0x2 ADD DUP1 SLOAD PUSH2 0x22A SWAP1 PUSH2 0x524 JUMP JUMPDEST DUP1 PUSH1 0x1F ADD PUSH1 0x20 DUP1 SWAP2 DIV MUL PUSH1 0x20 ADD PUSH1 0x40 MLOAD SWAP1 DUP2 ADD PUSH1 0x40 MSTORE DUP1 SWAP3 SWAP2 SWAP1 DUP2 DUP2 MSTORE PUSH1 0x20 ADD DUP3 DUP1 SLOAD PUSH2 0x256 SWAP1 PUSH2 0x524 JUMP JUMPDEST DUP1 ISZERO PUSH2 0x2A3 JUMPI DUP1 PUSH1 0x1F LT PUSH2 0x278 JUMPI PUSH2 0x100 DUP1 DUP4 SLOAD DIV MUL DUP4 MSTORE SWAP2 PUSH1 0x20 ADD SWAP2 PUSH2 0x2A3 JUMP JUMPDEST DUP3 ADD SWAP2 SWAP1 PUSH1 0x0 MSTORE PUSH1 0x20 PUSH1 0x0 KECCAK256 SWAP1 JUMPDEST DUP2 SLOAD DUP2 MSTORE SWAP1 PUSH1 0x1 ADD SWAP1 PUSH1 0x20 ADD DUP1 DUP4 GT PUSH2 0x286 JUMPI DUP3 SWAP1 SUB PUSH1 0x1F AND DUP3 ADD SWAP2 JUMPDEST POP POP POP POP POP SWAP1 DUP1 PUSH1 0x3 ADD PUSH1 0x0 SWAP1 SLOAD SWAP1 PUSH2 0x100 EXP SWAP1 DIV PUSH1 0xFF AND SWAP1 POP DUP5 JUMP JUMPDEST PUSH1 0x2 SLOAD DUP2 JUMP JUMPDEST PUSH1 0x0 DUP2 CALLDATALOAD SWAP1 POP PUSH2 0x2D5 DUP2 PUSH2 0x59B JUMP JUMPDEST SWAP3 SWAP2 POP POP JUMP JUMPDEST PUSH1 0x0 DUP2 CALLDATALOAD SWAP1 POP PUSH2 0x2EA DUP2 PUSH2 0x5B2 JUMP JUMPDEST SWAP3 SWAP2 POP POP JUMP JUMPDEST PUSH1 0x0 PUSH1 0x20 DUP3 DUP5 SUB SLT ISZERO PUSH2 0x306 JUMPI PUSH2 0x305 PUSH2 0x585 JUMP JUMPDEST JUMPDEST PUSH1 0x0 PUSH2 0x314 DUP5 DUP3 DUP6 ADD PUSH2 0x2C6 JUMP JUMPDEST SWAP2 POP POP SWAP3 SWAP2 POP POP JUMP JUMPDEST PUSH1 0x0 PUSH1 0x20 DUP3 DUP5 SUB SLT ISZERO PUSH2 0x333 JUMPI PUSH2 0x332 PUSH2 0x585 JUMP JUMPDEST JUMPDEST PUSH1 0x0 PUSH2 0x341 DUP5 DUP3 DUP6 ADD PUSH2 0x2DB JUMP JUMPDEST SWAP2 POP POP SWAP3 SWAP2 POP POP JUMP JUMPDEST PUSH1 0x0 DUP1 PUSH1 0x40 DUP4 DUP6 SUB SLT ISZERO PUSH2 0x361 JUMPI PUSH2 0x360 PUSH2 0x585 JUMP JUMPDEST JUMPDEST PUSH1 0x0 PUSH2 0x36F DUP6 DUP3 DUP7 ADD PUSH2 0x2DB JUMP JUMPDEST SWAP3 POP POP PUSH1 0x20 PUSH2 0x380 DUP6 DUP3 DUP7 ADD PUSH2 0x2C6 JUMP JUMPDEST SWAP2 POP POP SWAP3 POP SWAP3 SWAP1 POP JUMP JUMPDEST PUSH2 0x393 DUP2 PUSH2 0x4A9 JUMP JUMPDEST DUP3 MSTORE POP POP JUMP JUMPDEST PUSH2 0x3A2 DUP2 PUSH2 0x4BB JUMP JUMPDEST DUP3 MSTORE POP POP JUMP JUMPDEST PUSH1 0x0 PUSH2 0x3B3 DUP3 PUSH2 0x48D JUMP JUMPDEST PUSH2 0x3BD DUP2 DUP6 PUSH2 0x498 JUMP JUMPDEST SWAP4 POP PUSH2 0x3CD DUP2 DUP6 PUSH1 0x20 DUP7 ADD PUSH2 0x4F1 JUMP JUMPDEST PUSH2 0x3D6 DUP2 PUSH2 0x58A JUMP JUMPDEST DUP5 ADD SWAP2 POP POP SWAP3 SWAP2 POP POP JUMP JUMPDEST PUSH2 0x3EA DUP2 PUSH2 0x4E7 JUMP JUMPDEST DUP3 MSTORE POP POP JUMP JUMPDEST PUSH1 0x0 PUSH1 0x20 DUP3 ADD SWAP1 POP PUSH2 0x405 PUSH1 0x0 DUP4 ADD DUP5 PUSH2 0x38A JUMP JUMPDEST SWAP3 SWAP2 POP POP JUMP JUMPDEST PUSH1 0x0 PUSH1 0x80 DUP3 ADD SWAP1 POP PUSH2 0x420 PUSH1 0x0 DUP4 ADD DUP8 PUSH2 0x38A JUMP JUMPDEST PUSH2 0x42D PUSH1 0x20 DUP4 ADD DUP7 PUSH2 0x3E1 JUMP JUMPDEST DUP2 DUP2 SUB PUSH1 0x40 DUP4 ADD MSTORE PUSH2 0x43F DUP2 DUP6 PUSH2 0x3A8 JUMP JUMPDEST SWAP1 POP PUSH2 0x44E PUSH1 0x60 DUP4 ADD DUP5 PUSH2 0x399 JUMP JUMPDEST SWAP6 SWAP5 POP POP POP POP POP JUMP JUMPDEST PUSH1 0x0 PUSH1 0x20 DUP3 ADD SWAP1 POP PUSH2 0x46C PUSH1 0x0 DUP4 ADD DUP5 PUSH2 0x399 JUMP JUMPDEST SWAP3 SWAP2 POP POP JUMP JUMPDEST PUSH1 0x0 PUSH1 0x20 DUP3 ADD SWAP1 POP PUSH2 0x487 PUSH1 0x0 DUP4 ADD DUP5 PUSH2 0x3E1 JUMP JUMPDEST SWAP3 SWAP2 POP POP JUMP JUMPDEST PUSH1 0x0 DUP2 MLOAD SWAP1 POP SWAP2 SWAP1 POP JUMP JUMPDEST PUSH1 0x0 DUP3 DUP3 MSTORE PUSH1 0x20 DUP3 ADD SWAP1 POP SWAP3 SWAP2 POP POP JUMP JUMPDEST PUSH1 0x0 PUSH2 0x4B4 DUP3 PUSH2 0x4C7 JUMP JUMPDEST SWAP1 POP SWAP2 SWAP1 POP JUMP JUMPDEST PUSH1 0x0 DUP2 ISZERO ISZERO SWAP1 POP SWAP2 SWAP1 POP JUMP JUMPDEST PUSH1 0x0 PUSH20 0xFFFFFFFFFFFFFFFFFFFFFFFFFFFFFFFFFFFFFFFF DUP3 AND SWAP1 POP SWAP2 SWAP1 POP JUMP JUMPDEST PUSH1 0x0 DUP2 SWAP1 POP SWAP2 SWAP1 POP JUMP JUMPDEST PUSH1 0x0 JUMPDEST DUP4 DUP2 LT ISZERO PUSH2 0x50F JUMPI DUP1 DUP3 ADD MLOAD DUP2 DUP5 ADD MSTORE PUSH1 0x20 DUP2 ADD SWAP1 POP PUSH2 0x4F4 JUMP JUMPDEST DUP4 DUP2 GT ISZERO PUSH2 0x51E JUMPI PUSH1 0x0 DUP5 DUP5 ADD MSTORE JUMPDEST POP POP POP POP JUMP JUMPDEST PUSH1 0x0 PUSH1 0x2 DUP3 DIV SWAP1 POP PUSH1 0x1 DUP3 AND DUP1 PUSH2 0x53C JUMPI PUSH1 0x7F DUP3 AND SWAP2 POP JUMPDEST PUSH1 0x20 DUP3 LT DUP2 EQ ISZERO PUSH2 0x550 JUMPI PUSH2 0x54F PUSH2 0x556 JUMP JUMPDEST JUMPDEST POP SWAP2 SWAP1 POP JUMP JUMPDEST PUSH32 0x4E487B7100000000000000000000000000000000000000000000000000000000 PUSH1 0x0 MSTORE PUSH1 0x22 PUSH1 0x4 MSTORE PUSH1 0x24 PUSH1 0x0 REVERT JUMPDEST PUSH1 0x0 DUP1 REVERT JUMPDEST PUSH1 0x0 PUSH1 0x1F NOT PUSH1 0x1F DUP4 ADD AND SWAP1 POP SWAP2 SWAP1 POP JUMP JUMPDEST PUSH2 0x5A4 DUP2 PUSH2 0x4A9 JUMP JUMPDEST DUP2 EQ PUSH2 0x5AF JUMPI PUSH1 0x0 DUP1 REVERT JUMPDEST POP JUMP JUMPDEST PUSH2 0x5BB DUP2 PUSH2 0x4E7 JUMP JUMPDEST DUP2 EQ PUSH2 0x5C6 JUMPI PUSH1 0x0 DUP1 REVERT JUMPDEST POP JUMP INVALID LOG2 PUSH5 0x6970667358 0x22 SLT KECCAK256 CALLVALUE 0xAA 0xE7 0xE8 SELFBALANCE JUMP DUP4 LOG0 PUSH19 0xBD8D8791A150F333DFA250F528FD34E04C0B0A 0xA9 PUSH31 0x747E64736F6C63430008070033000000000000000000000000000000000000 "
				},
				"gasEstimates": {
					"creation": {
						"codeDepositCost": "307000",
						"executionCost": "infinite",
						"totalCost": "infinite"
					},
					"external": {
						"approved(uint256,address)": "3109",
						"isOwner(address)": "2845",
						"owners(uint256)": "4934",
						"required()": "2495",
						"transactions(uint256)": "infinite"
					}
				},
				"methodIdentifiers": {
					"approved(uint256,address)": "8253951a",
					"isOwner(address)": "2f54bf6e",
					"owners(uint256)": "025e7c27",
					"required()": "dc8452cd",
					"transactions(uint256)": "9ace38c2"
				}
			},
			"userdoc": {
				"kind": "user",
				"methods": {},
				"version": 1
			}
		}
	}
}