{
	"contracts/Multisig.sol": {
		"MultiSigWallet": {
			"abi": [
				{
					"anonymous": false,
					"inputs": [
						{
							"indexed": false,
							"internalType": "address",
							"name": "owner",
							"type": "address"
						},
						{
							"indexed": false,
							"internalType": "uint256",
							"name": "txId",
							"type": "uint256"
						}
					],
					"name": "Approve",
					"type": "event"
				},
				{
					"anonymous": false,
					"inputs": [
						{
							"indexed": false,
							"internalType": "address",
							"name": "sender",
							"type": "address"
						},
						{
							"indexed": false,
							"internalType": "uint256",
							"name": "amount",
							"type": "uint256"
						},
						{
							"indexed": false,
							"internalType": "uint256",
							"name": "balance",
							"type": "uint256"
						}
					],
					"name": "Deposit",
					"type": "event"
				},
				{
					"anonymous": false,
					"inputs": [
						{
							"indexed": false,
							"internalType": "address",
							"name": "executer",
							"type": "address"
						},
						{
							"indexed": false,
							"internalType": "uint256",
							"name": "txId",
							"type": "uint256"
						}
					],
					"name": "Execute",
					"type": "event"
				},
				{
					"anonymous": false,
					"inputs": [
						{
							"indexed": false,
							"internalType": "address",
							"name": "owner",
							"type": "address"
						},
						{
							"indexed": false,
							"internalType": "uint256",
							"name": "txId",
							"type": "uint256"
						}
					],
					"name": "Revoke",
					"type": "event"
				},
				{
					"anonymous": false,
					"inputs": [
						{
							"indexed": false,
							"internalType": "uint256",
							"name": "txId",
							"type": "uint256"
						}
					],
					"name": "Submit",
					"type": "event"
				},
				{
					"inputs": [
						{
							"internalType": "uint256",
							"name": "",
							"type": "uint256"
						},
						{
							"internalType": "address",
							"name": "",
							"type": "address"
						}
					],
					"name": "approved",
					"outputs": [
						{
							"internalType": "bool",
							"name": "",
							"type": "bool"
						}
					],
					"stateMutability": "view",
					"type": "function"
				},
				{
					"inputs": [
						{
							"internalType": "address",
							"name": "",
							"type": "address"
						}
					],
					"name": "isOwner",
					"outputs": [
						{
							"internalType": "bool",
							"name": "",
							"type": "bool"
						}
					],
					"stateMutability": "view",
					"type": "function"
				},
				{
					"inputs": [
						{
							"internalType": "uint256",
							"name": "",
							"type": "uint256"
						}
					],
					"name": "owners",
					"outputs": [
						{
							"internalType": "address",
							"name": "",
							"type": "address"
						}
					],
					"stateMutability": "view",
					"type": "function"
				},
				{
					"inputs": [],
					"name": "required",
					"outputs": [
						{
							"internalType": "uint256",
							"name": "",
							"type": "uint256"
						}
					],
					"stateMutability": "view",
					"type": "function"
				},
				{
					"inputs": [
						{
							"internalType": "uint256",
							"name": "",
							"type": "uint256"
						}
					],
					"name": "transactions",
					"outputs": [
						{
							"internalType": "address",
							"name": "to",
							"type": "address"
						},
						{
							"internalType": "uint256",
							"name": "value",
							"type": "uint256"
						},
						{
							"internalType": "bytes",
							"name": "data",
							"type": "bytes"
						},
						{
							"internalType": "bool",
							"name": "executed",
							"type": "bool"
						}
					],
					"stateMutability": "view",
					"type": "function"
				}
			],
			"devdoc": {
				"kind": "dev",
				"methods": {},
				"version": 1
			},
			"evm": {
				"assembly": "    /* \"contracts/Multisig.sol\":59:1313  contract MultiSigWallet {\r... */\n  mstore(0x40, 0x80)\n  callvalue\n  dup1\n  iszero\n  tag_1\n  jumpi\n  0x00\n  dup1\n  revert\ntag_1:\n  pop\n  dataSize(sub_0)\n  dup1\n  dataOffset(sub_0)\n  0x00\n  codecopy\n  0x00\n  return\nstop\n\nsub_0: assembly {\n        /* \"contracts/Multisig.sol\":59:1313  contract MultiSigWallet {\r... */\n      mstore(0x40, 0x80)\n      callvalue\n      dup1\n      iszero\n      tag_1\n      jumpi\n      0x00\n      dup1\n      revert\n    tag_1:\n      pop\n      jumpi(tag_2, lt(calldatasize, 0x04))\n      shr(0xe0, calldataload(0x00))\n      dup1\n      0x025e7c27\n      eq\n      tag_3\n      jumpi\n      dup1\n      0x2f54bf6e\n      eq\n      tag_4\n      jumpi\n      dup1\n      0x8253951a\n      eq\n      tag_5\n      jumpi\n      dup1\n      0x9ace38c2\n      eq\n      tag_6\n      jumpi\n      dup1\n      0xdc8452cd\n      eq\n      tag_7\n      jumpi\n    tag_2:\n      0x00\n      dup1\n      revert\n        /* \"contracts/Multisig.sol\":816:840  address [] public owners */\n    tag_3:\n      tag_8\n      0x04\n      dup1\n      calldatasize\n      sub\n      dup2\n      add\n      swap1\n      tag_9\n      swap2\n      swap1\n      tag_10\n      jump\t// in\n    tag_9:\n      tag_11\n      jump\t// in\n    tag_8:\n      mload(0x40)\n      tag_12\n      swap2\n      swap1\n      tag_13\n      jump\t// in\n    tag_12:\n      mload(0x40)\n      dup1\n      swap2\n      sub\n      swap1\n      return\n        /* \"contracts/Multisig.sol\":847:886  mapping(address => bool) public isOwner */\n    tag_4:\n      tag_14\n      0x04\n      dup1\n      calldatasize\n      sub\n      dup2\n      add\n      swap1\n      tag_15\n      swap2\n      swap1\n      tag_16\n      jump\t// in\n    tag_15:\n      tag_17\n      jump\t// in\n    tag_14:\n      mload(0x40)\n      tag_18\n      swap2\n      swap1\n      tag_19\n      jump\t// in\n    tag_18:\n      mload(0x40)\n      dup1\n      swap2\n      sub\n      swap1\n      return\n        /* \"contracts/Multisig.sol\":1170:1228  mapping (uint => mapping(address => bool)) public approved */\n    tag_5:\n      tag_20\n      0x04\n      dup1\n      calldatasize\n      sub\n      dup2\n      add\n      swap1\n      tag_21\n      swap2\n      swap1\n      tag_22\n      jump\t// in\n    tag_21:\n      tag_23\n      jump\t// in\n    tag_20:\n      mload(0x40)\n      tag_24\n      swap2\n      swap1\n      tag_19\n      jump\t// in\n    tag_24:\n      mload(0x40)\n      dup1\n      swap2\n      sub\n      swap1\n      return\n        /* \"contracts/Multisig.sol\":1027:1061  Transaction [] public transactions */\n    tag_6:\n      tag_25\n      0x04\n      dup1\n      calldatasize\n      sub\n      dup2\n      add\n      swap1\n      tag_26\n      swap2\n      swap1\n      tag_10\n      jump\t// in\n    tag_26:\n      tag_27\n      jump\t// in\n    tag_25:\n      mload(0x40)\n      tag_28\n      swap5\n      swap4\n      swap3\n      swap2\n      swap1\n      tag_29\n      jump\t// in\n    tag_28:\n      mload(0x40)\n      dup1\n      swap2\n      sub\n      swap1\n      return\n        /* \"contracts/Multisig.sol\":893:913  uint public required */\n    tag_7:\n      tag_30\n      tag_31\n      jump\t// in\n    tag_30:\n      mload(0x40)\n      tag_32\n      swap2\n      swap1\n      tag_33\n      jump\t// in\n    tag_32:\n      mload(0x40)\n      dup1\n      swap2\n      sub\n      swap1\n      return\n        /* \"contracts/Multisig.sol\":816:840  address [] public owners */\n    tag_11:\n      0x00\n      dup2\n      dup2\n      sload\n      dup2\n      lt\n      tag_34\n      jumpi\n      0x00\n      dup1\n      revert\n    tag_34:\n      swap1\n      0x00\n      mstore\n      keccak256(0x00, 0x20)\n      add\n      0x00\n      swap2\n      pop\n      sload\n      swap1\n      0x0100\n      exp\n      swap1\n      div\n      0xffffffffffffffffffffffffffffffffffffffff\n      and\n      dup2\n      jump\t// out\n        /* \"contracts/Multisig.sol\":847:886  mapping(address => bool) public isOwner */\n    tag_17:\n      mstore(0x20, 0x01)\n      dup1\n      0x00\n      mstore\n      keccak256(0x00, 0x40)\n      0x00\n      swap2\n      pop\n      sload\n      swap1\n      0x0100\n      exp\n      swap1\n      div\n      0xff\n      and\n      dup2\n      jump\t// out\n        /* \"contracts/Multisig.sol\":1170:1228  mapping (uint => mapping(address => bool)) public approved */\n    tag_23:\n      mstore(0x20, 0x04)\n      dup2\n      0x00\n      mstore\n      mstore(0x20, keccak256(0x00, 0x40))\n      dup1\n      0x00\n      mstore\n      keccak256(0x00, 0x40)\n      0x00\n      swap2\n      pop\n      swap2\n      pop\n      swap1\n      sload\n      swap1\n      0x0100\n      exp\n      swap1\n      div\n      0xff\n      and\n      dup2\n      jump\t// out\n        /* \"contracts/Multisig.sol\":1027:1061  Transaction [] public transactions */\n    tag_27:\n      0x03\n      dup2\n      dup2\n      sload\n      dup2\n      lt\n      tag_36\n      jumpi\n      0x00\n      dup1\n      revert\n    tag_36:\n      swap1\n      0x00\n      mstore\n      keccak256(0x00, 0x20)\n      swap1\n      0x04\n      mul\n      add\n      0x00\n      swap2\n      pop\n      swap1\n      pop\n      dup1\n      0x00\n      add\n      0x00\n      swap1\n      sload\n      swap1\n      0x0100\n      exp\n      swap1\n      div\n      0xffffffffffffffffffffffffffffffffffffffff\n      and\n      swap1\n      dup1\n      0x01\n      add\n      sload\n      swap1\n      dup1\n      0x02\n      add\n      dup1\n      sload\n      tag_38\n      swap1\n      tag_39\n      jump\t// in\n    tag_38:\n      dup1\n      0x1f\n      add\n      0x20\n      dup1\n      swap2\n      div\n      mul\n      0x20\n      add\n      mload(0x40)\n      swap1\n      dup2\n      add\n      0x40\n      mstore\n      dup1\n      swap3\n      swap2\n      swap1\n      dup2\n      dup2\n      mstore\n      0x20\n      add\n      dup3\n      dup1\n      sload\n      tag_40\n      swap1\n      tag_39\n      jump\t// in\n    tag_40:\n      dup1\n      iszero\n      tag_41\n      jumpi\n      dup1\n      0x1f\n      lt\n      tag_42\n      jumpi\n      0x0100\n      dup1\n      dup4\n      sload\n      div\n      mul\n      dup4\n      mstore\n      swap2\n      0x20\n      add\n      swap2\n      jump(tag_41)\n    tag_42:\n      dup3\n      add\n      swap2\n      swap1\n      0x00\n      mstore\n      keccak256(0x00, 0x20)\n      swap1\n    tag_43:\n      dup2\n      sload\n      dup2\n      mstore\n      swap1\n      0x01\n      add\n      swap1\n      0x20\n      add\n      dup1\n      dup4\n      gt\n      tag_43\n      jumpi\n      dup3\n      swap1\n      sub\n      0x1f\n      and\n      dup3\n      add\n      swap2\n    tag_41:\n      pop\n      pop\n      pop\n      pop\n      pop\n      swap1\n      dup1\n      0x03\n      add\n      0x00\n      swap1\n      sload\n      swap1\n      0x0100\n      exp\n      swap1\n      div\n      0xff\n      and\n      swap1\n      pop\n      dup5\n      jump\t// out\n        /* \"contracts/Multisig.sol\":893:913  uint public required */\n    tag_31:\n      sload(0x02)\n      dup2\n      jump\t// out\n        /* \"#utility.yul\":7:146   */\n    tag_45:\n        /* \"#utility.yul\":53:58   */\n      0x00\n        /* \"#utility.yul\":91:97   */\n      dup2\n        /* \"#utility.yul\":78:98   */\n      calldataload\n        /* \"#utility.yul\":69:98   */\n      swap1\n      pop\n        /* \"#utility.yul\":107:140   */\n      tag_47\n        /* \"#utility.yul\":134:139   */\n      dup2\n        /* \"#utility.yul\":107:140   */\n      tag_48\n      jump\t// in\n    tag_47:\n        /* \"#utility.yul\":7:146   */\n      swap3\n      swap2\n      pop\n      pop\n      jump\t// out\n        /* \"#utility.yul\":152:291   */\n    tag_49:\n        /* \"#utility.yul\":198:203   */\n      0x00\n        /* \"#utility.yul\":236:242   */\n      dup2\n        /* \"#utility.yul\":223:243   */\n      calldataload\n        /* \"#utility.yul\":214:243   */\n      swap1\n      pop\n        /* \"#utility.yul\":252:285   */\n      tag_51\n        /* \"#utility.yul\":279:284   */\n      dup2\n        /* \"#utility.yul\":252:285   */\n      tag_52\n      jump\t// in\n    tag_51:\n        /* \"#utility.yul\":152:291   */\n      swap3\n      swap2\n      pop\n      pop\n      jump\t// out\n        /* \"#utility.yul\":297:626   */\n    tag_16:\n        /* \"#utility.yul\":356:362   */\n      0x00\n        /* \"#utility.yul\":405:407   */\n      0x20\n        /* \"#utility.yul\":393:402   */\n      dup3\n        /* \"#utility.yul\":384:391   */\n      dup5\n        /* \"#utility.yul\":380:403   */\n      sub\n        /* \"#utility.yul\":376:408   */\n      slt\n        /* \"#utility.yul\":373:492   */\n      iszero\n      tag_54\n      jumpi\n        /* \"#utility.yul\":411:490   */\n      tag_55\n      tag_56\n      jump\t// in\n    tag_55:\n        /* \"#utility.yul\":373:492   */\n    tag_54:\n        /* \"#utility.yul\":531:532   */\n      0x00\n        /* \"#utility.yul\":556:609   */\n      tag_57\n        /* \"#utility.yul\":601:608   */\n      dup5\n        /* \"#utility.yul\":592:598   */\n      dup3\n        /* \"#utility.yul\":581:590   */\n      dup6\n        /* \"#utility.yul\":577:599   */\n      add\n        /* \"#utility.yul\":556:609   */\n      tag_45\n      jump\t// in\n    tag_57:\n        /* \"#utility.yul\":546:609   */\n      swap2\n      pop\n        /* \"#utility.yul\":502:619   */\n      pop\n        /* \"#utility.yul\":297:626   */\n      swap3\n      swap2\n      pop\n      pop\n      jump\t// out\n        /* \"#utility.yul\":632:961   */\n    tag_10:\n        /* \"#utility.yul\":691:697   */\n      0x00\n        /* \"#utility.yul\":740:742   */\n      0x20\n        /* \"#utility.yul\":728:737   */\n      dup3\n        /* \"#utility.yul\":719:726   */\n      dup5\n        /* \"#utility.yul\":715:738   */\n      sub\n        /* \"#utility.yul\":711:743   */\n      slt\n        /* \"#utility.yul\":708:827   */\n      iszero\n      tag_59\n      jumpi\n        /* \"#utility.yul\":746:825   */\n      tag_60\n      tag_56\n      jump\t// in\n    tag_60:\n        /* \"#utility.yul\":708:827   */\n    tag_59:\n        /* \"#utility.yul\":866:867   */\n      0x00\n        /* \"#utility.yul\":891:944   */\n      tag_61\n        /* \"#utility.yul\":936:943   */\n      dup5\n        /* \"#utility.yul\":927:933   */\n      dup3\n        /* \"#utility.yul\":916:925   */\n      dup6\n        /* \"#utility.yul\":912:934   */\n      add\n        /* \"#utility.yul\":891:944   */\n      tag_49\n      jump\t// in\n    tag_61:\n        /* \"#utility.yul\":881:944   */\n      swap2\n      pop\n        /* \"#utility.yul\":837:954   */\n      pop\n        /* \"#utility.yul\":632:961   */\n      swap3\n      swap2\n      pop\n      pop\n      jump\t// out\n        /* \"#utility.yul\":967:1441   */\n    tag_22:\n        /* \"#utility.yul\":1035:1041   */\n      0x00\n        /* \"#utility.yul\":1043:1049   */\n      dup1\n        /* \"#utility.yul\":1092:1094   */\n      0x40\n        /* \"#utility.yul\":1080:1089   */\n      dup4\n        /* \"#utility.yul\":1071:1078   */\n      dup6\n        /* \"#utility.yul\":1067:1090   */\n      sub\n        /* \"#utility.yul\":1063:1095   */\n      slt\n        /* \"#utility.yul\":1060:1179   */\n      iszero\n      tag_63\n      jumpi\n        /* \"#utility.yul\":1098:1177   */\n      tag_64\n      tag_56\n      jump\t// in\n    tag_64:\n        /* \"#utility.yul\":1060:1179   */\n    tag_63:\n        /* \"#utility.yul\":1218:1219   */\n      0x00\n        /* \"#utility.yul\":1243:1296   */\n      tag_65\n        /* \"#utility.yul\":1288:1295   */\n      dup6\n        /* \"#utility.yul\":1279:1285   */\n      dup3\n        /* \"#utility.yul\":1268:1277   */\n      dup7\n        /* \"#utility.yul\":1264:1286   */\n      add\n        /* \"#utility.yul\":1243:1296   */\n      tag_49\n      jump\t// in\n    tag_65:\n        /* \"#utility.yul\":1233:1296   */\n      swap3\n      pop\n        /* \"#utility.yul\":1189:1306   */\n      pop\n        /* \"#utility.yul\":1345:1347   */\n      0x20\n        /* \"#utility.yul\":1371:1424   */\n      tag_66\n        /* \"#utility.yul\":1416:1423   */\n      dup6\n        /* \"#utility.yul\":1407:1413   */\n      dup3\n        /* \"#utility.yul\":1396:1405   */\n      dup7\n        /* \"#utility.yul\":1392:1414   */\n      add\n        /* \"#utility.yul\":1371:1424   */\n      tag_45\n      jump\t// in\n    tag_66:\n        /* \"#utility.yul\":1361:1424   */\n      swap2\n      pop\n        /* \"#utility.yul\":1316:1434   */\n      pop\n        /* \"#utility.yul\":967:1441   */\n      swap3\n      pop\n      swap3\n      swap1\n      pop\n      jump\t// out\n        /* \"#utility.yul\":1447:1565   */\n    tag_67:\n        /* \"#utility.yul\":1534:1558   */\n      tag_69\n        /* \"#utility.yul\":1552:1557   */\n      dup2\n        /* \"#utility.yul\":1534:1558   */\n      tag_70\n      jump\t// in\n    tag_69:\n        /* \"#utility.yul\":1529:1532   */\n      dup3\n        /* \"#utility.yul\":1522:1559   */\n      mstore\n        /* \"#utility.yul\":1447:1565   */\n      pop\n      pop\n      jump\t// out\n        /* \"#utility.yul\":1571:1680   */\n    tag_71:\n        /* \"#utility.yul\":1652:1673   */\n      tag_73\n        /* \"#utility.yul\":1667:1672   */\n      dup2\n        /* \"#utility.yul\":1652:1673   */\n      tag_74\n      jump\t// in\n    tag_73:\n        /* \"#utility.yul\":1647:1650   */\n      dup3\n        /* \"#utility.yul\":1640:1674   */\n      mstore\n        /* \"#utility.yul\":1571:1680   */\n      pop\n      pop\n      jump\t// out\n        /* \"#utility.yul\":1686:2046   */\n    tag_75:\n        /* \"#utility.yul\":1772:1775   */\n      0x00\n        /* \"#utility.yul\":1800:1838   */\n      tag_77\n        /* \"#utility.yul\":1832:1837   */\n      dup3\n        /* \"#utility.yul\":1800:1838   */\n      tag_78\n      jump\t// in\n    tag_77:\n        /* \"#utility.yul\":1854:1924   */\n      tag_79\n        /* \"#utility.yul\":1917:1923   */\n      dup2\n        /* \"#utility.yul\":1912:1915   */\n      dup6\n        /* \"#utility.yul\":1854:1924   */\n      tag_80\n      jump\t// in\n    tag_79:\n        /* \"#utility.yul\":1847:1924   */\n      swap4\n      pop\n        /* \"#utility.yul\":1933:1985   */\n      tag_81\n        /* \"#utility.yul\":1978:1984   */\n      dup2\n        /* \"#utility.yul\":1973:1976   */\n      dup6\n        /* \"#utility.yul\":1966:1970   */\n      0x20\n        /* \"#utility.yul\":1959:1964   */\n      dup7\n        /* \"#utility.yul\":1955:1971   */\n      add\n        /* \"#utility.yul\":1933:1985   */\n      tag_82\n      jump\t// in\n    tag_81:\n        /* \"#utility.yul\":2010:2039   */\n      tag_83\n        /* \"#utility.yul\":2032:2038   */\n      dup2\n        /* \"#utility.yul\":2010:2039   */\n      tag_84\n      jump\t// in\n    tag_83:\n        /* \"#utility.yul\":2005:2008   */\n      dup5\n        /* \"#utility.yul\":2001:2040   */\n      add\n        /* \"#utility.yul\":1994:2040   */\n      swap2\n      pop\n        /* \"#utility.yul\":1776:2046   */\n      pop\n        /* \"#utility.yul\":1686:2046   */\n      swap3\n      swap2\n      pop\n      pop\n      jump\t// out\n        /* \"#utility.yul\":2052:2170   */\n    tag_85:\n        /* \"#utility.yul\":2139:2163   */\n      tag_87\n        /* \"#utility.yul\":2157:2162   */\n      dup2\n        /* \"#utility.yul\":2139:2163   */\n      tag_88\n      jump\t// in\n    tag_87:\n        /* \"#utility.yul\":2134:2137   */\n      dup3\n        /* \"#utility.yul\":2127:2164   */\n      mstore\n        /* \"#utility.yul\":2052:2170   */\n      pop\n      pop\n      jump\t// out\n        /* \"#utility.yul\":2176:2398   */\n    tag_13:\n        /* \"#utility.yul\":2269:2273   */\n      0x00\n        /* \"#utility.yul\":2307:2309   */\n      0x20\n        /* \"#utility.yul\":2296:2305   */\n      dup3\n        /* \"#utility.yul\":2292:2310   */\n      add\n        /* \"#utility.yul\":2284:2310   */\n      swap1\n      pop\n        /* \"#utility.yul\":2320:2391   */\n      tag_90\n        /* \"#utility.yul\":2388:2389   */\n      0x00\n        /* \"#utility.yul\":2377:2386   */\n      dup4\n        /* \"#utility.yul\":2373:2390   */\n      add\n        /* \"#utility.yul\":2364:2370   */\n      dup5\n        /* \"#utility.yul\":2320:2391   */\n      tag_67\n      jump\t// in\n    tag_90:\n        /* \"#utility.yul\":2176:2398   */\n      swap3\n      swap2\n      pop\n      pop\n      jump\t// out\n        /* \"#utility.yul\":2404:3032   */\n    tag_29:\n        /* \"#utility.yul\":2593:2597   */\n      0x00\n        /* \"#utility.yul\":2631:2634   */\n      0x80\n        /* \"#utility.yul\":2620:2629   */\n      dup3\n        /* \"#utility.yul\":2616:2635   */\n      add\n        /* \"#utility.yul\":2608:2635   */\n      swap1\n      pop\n        /* \"#utility.yul\":2645:2716   */\n      tag_92\n        /* \"#utility.yul\":2713:2714   */\n      0x00\n        /* \"#utility.yul\":2702:2711   */\n      dup4\n        /* \"#utility.yul\":2698:2715   */\n      add\n        /* \"#utility.yul\":2689:2695   */\n      dup8\n        /* \"#utility.yul\":2645:2716   */\n      tag_67\n      jump\t// in\n    tag_92:\n        /* \"#utility.yul\":2726:2798   */\n      tag_93\n        /* \"#utility.yul\":2794:2796   */\n      0x20\n        /* \"#utility.yul\":2783:2792   */\n      dup4\n        /* \"#utility.yul\":2779:2797   */\n      add\n        /* \"#utility.yul\":2770:2776   */\n      dup7\n        /* \"#utility.yul\":2726:2798   */\n      tag_85\n      jump\t// in\n    tag_93:\n        /* \"#utility.yul\":2845:2854   */\n      dup2\n        /* \"#utility.yul\":2839:2843   */\n      dup2\n        /* \"#utility.yul\":2835:2855   */\n      sub\n        /* \"#utility.yul\":2830:2832   */\n      0x40\n        /* \"#utility.yul\":2819:2828   */\n      dup4\n        /* \"#utility.yul\":2815:2833   */\n      add\n        /* \"#utility.yul\":2808:2856   */\n      mstore\n        /* \"#utility.yul\":2873:2949   */\n      tag_94\n        /* \"#utility.yul\":2944:2948   */\n      dup2\n        /* \"#utility.yul\":2935:2941   */\n      dup6\n        /* \"#utility.yul\":2873:2949   */\n      tag_75\n      jump\t// in\n    tag_94:\n        /* \"#utility.yul\":2865:2949   */\n      swap1\n      pop\n        /* \"#utility.yul\":2959:3025   */\n      tag_95\n        /* \"#utility.yul\":3021:3023   */\n      0x60\n        /* \"#utility.yul\":3010:3019   */\n      dup4\n        /* \"#utility.yul\":3006:3024   */\n      add\n        /* \"#utility.yul\":2997:3003   */\n      dup5\n        /* \"#utility.yul\":2959:3025   */\n      tag_71\n      jump\t// in\n    tag_95:\n        /* \"#utility.yul\":2404:3032   */\n      swap6\n      swap5\n      pop\n      pop\n      pop\n      pop\n      pop\n      jump\t// out\n        /* \"#utility.yul\":3038:3248   */\n    tag_19:\n        /* \"#utility.yul\":3125:3129   */\n      0x00\n        /* \"#utility.yul\":3163:3165   */\n      0x20\n        /* \"#utility.yul\":3152:3161   */\n      dup3\n        /* \"#utility.yul\":3148:3166   */\n      add\n        /* \"#utility.yul\":3140:3166   */\n      swap1\n      pop\n        /* \"#utility.yul\":3176:3241   */\n      tag_97\n        /* \"#utility.yul\":3238:3239   */\n      0x00\n        /* \"#utility.yul\":3227:3236   */\n      dup4\n        /* \"#utility.yul\":3223:3240   */\n      add\n        /* \"#utility.yul\":3214:3220   */\n      dup5\n        /* \"#utility.yul\":3176:3241   */\n      tag_71\n      jump\t// in\n    tag_97:\n        /* \"#utility.yul\":3038:3248   */\n      swap3\n      swap2\n      pop\n      pop\n      jump\t// out\n        /* \"#utility.yul\":3254:3476   */\n    tag_33:\n        /* \"#utility.yul\":3347:3351   */\n      0x00\n        /* \"#utility.yul\":3385:3387   */\n      0x20\n        /* \"#utility.yul\":3374:3383   */\n      dup3\n        /* \"#utility.yul\":3370:3388   */\n      add\n        /* \"#utility.yul\":3362:3388   */\n      swap1\n      pop\n        /* \"#utility.yul\":3398:3469   */\n      tag_99\n        /* \"#utility.yul\":3466:3467   */\n      0x00\n        /* \"#utility.yul\":3455:3464   */\n      dup4\n        /* \"#utility.yul\":3451:3468   */\n      add\n        /* \"#utility.yul\":3442:3448   */\n      dup5\n        /* \"#utility.yul\":3398:3469   */\n      tag_85\n      jump\t// in\n    tag_99:\n        /* \"#utility.yul\":3254:3476   */\n      swap3\n      swap2\n      pop\n      pop\n      jump\t// out\n        /* \"#utility.yul\":3563:3661   */\n    tag_78:\n        /* \"#utility.yul\":3614:3620   */\n      0x00\n        /* \"#utility.yul\":3648:3653   */\n      dup2\n        /* \"#utility.yul\":3642:3654   */\n      mload\n        /* \"#utility.yul\":3632:3654   */\n      swap1\n      pop\n        /* \"#utility.yul\":3563:3661   */\n      swap2\n      swap1\n      pop\n      jump\t// out\n        /* \"#utility.yul\":3667:3835   */\n    tag_80:\n        /* \"#utility.yul\":3750:3761   */\n      0x00\n        /* \"#utility.yul\":3784:3790   */\n      dup3\n        /* \"#utility.yul\":3779:3782   */\n      dup3\n        /* \"#utility.yul\":3772:3791   */\n      mstore\n        /* \"#utility.yul\":3824:3828   */\n      0x20\n        /* \"#utility.yul\":3819:3822   */\n      dup3\n        /* \"#utility.yul\":3815:3829   */\n      add\n        /* \"#utility.yul\":3800:3829   */\n      swap1\n      pop\n        /* \"#utility.yul\":3667:3835   */\n      swap3\n      swap2\n      pop\n      pop\n      jump\t// out\n        /* \"#utility.yul\":3841:3937   */\n    tag_70:\n        /* \"#utility.yul\":3878:3885   */\n      0x00\n        /* \"#utility.yul\":3907:3931   */\n      tag_105\n        /* \"#utility.yul\":3925:3930   */\n      dup3\n        /* \"#utility.yul\":3907:3931   */\n      tag_106\n      jump\t// in\n    tag_105:\n        /* \"#utility.yul\":3896:3931   */\n      swap1\n      pop\n        /* \"#utility.yul\":3841:3937   */\n      swap2\n      swap1\n      pop\n      jump\t// out\n        /* \"#utility.yul\":3943:4033   */\n    tag_74:\n        /* \"#utility.yul\":3977:3984   */\n      0x00\n        /* \"#utility.yul\":4020:4025   */\n      dup2\n        /* \"#utility.yul\":4013:4026   */\n      iszero\n        /* \"#utility.yul\":4006:4027   */\n      iszero\n        /* \"#utility.yul\":3995:4027   */\n      swap1\n      pop\n        /* \"#utility.yul\":3943:4033   */\n      swap2\n      swap1\n      pop\n      jump\t// out\n        /* \"#utility.yul\":4039:4165   */\n    tag_106:\n        /* \"#utility.yul\":4076:4083   */\n      0x00\n        /* \"#utility.yul\":4116:4158   */\n      0xffffffffffffffffffffffffffffffffffffffff\n        /* \"#utility.yul\":4109:4114   */\n      dup3\n        /* \"#utility.yul\":4105:4159   */\n      and\n        /* \"#utility.yul\":4094:4159   */\n      swap1\n      pop\n        /* \"#utility.yul\":4039:4165   */\n      swap2\n      swap1\n      pop\n      jump\t// out\n        /* \"#utility.yul\":4171:4248   */\n    tag_88:\n        /* \"#utility.yul\":4208:4215   */\n      0x00\n        /* \"#utility.yul\":4237:4242   */\n      dup2\n        /* \"#utility.yul\":4226:4242   */\n      swap1\n      pop\n        /* \"#utility.yul\":4171:4248   */\n      swap2\n      swap1\n      pop\n      jump\t// out\n        /* \"#utility.yul\":4254:4561   */\n    tag_82:\n        /* \"#utility.yul\":4322:4323   */\n      0x00\n        /* \"#utility.yul\":4332:4445   */\n    tag_111:\n        /* \"#utility.yul\":4346:4352   */\n      dup4\n        /* \"#utility.yul\":4343:4344   */\n      dup2\n        /* \"#utility.yul\":4340:4353   */\n      lt\n        /* \"#utility.yul\":4332:4445   */\n      iszero\n      tag_113\n      jumpi\n        /* \"#utility.yul\":4431:4432   */\n      dup1\n        /* \"#utility.yul\":4426:4429   */\n      dup3\n        /* \"#utility.yul\":4422:4433   */\n      add\n        /* \"#utility.yul\":4416:4434   */\n      mload\n        /* \"#utility.yul\":4412:4413   */\n      dup2\n        /* \"#utility.yul\":4407:4410   */\n      dup5\n        /* \"#utility.yul\":4403:4414   */\n      add\n        /* \"#utility.yul\":4396:4435   */\n      mstore\n        /* \"#utility.yul\":4368:4370   */\n      0x20\n        /* \"#utility.yul\":4365:4366   */\n      dup2\n        /* \"#utility.yul\":4361:4371   */\n      add\n        /* \"#utility.yul\":4356:4371   */\n      swap1\n      pop\n        /* \"#utility.yul\":4332:4445   */\n      jump(tag_111)\n    tag_113:\n        /* \"#utility.yul\":4463:4469   */\n      dup4\n        /* \"#utility.yul\":4460:4461   */\n      dup2\n        /* \"#utility.yul\":4457:4470   */\n      gt\n        /* \"#utility.yul\":4454:4555   */\n      iszero\n      tag_114\n      jumpi\n        /* \"#utility.yul\":4543:4544   */\n      0x00\n        /* \"#utility.yul\":4534:4540   */\n      dup5\n        /* \"#utility.yul\":4529:4532   */\n      dup5\n        /* \"#utility.yul\":4525:4541   */\n      add\n        /* \"#utility.yul\":4518:4545   */\n      mstore\n        /* \"#utility.yul\":4454:4555   */\n    tag_114:\n        /* \"#utility.yul\":4303:4561   */\n      pop\n        /* \"#utility.yul\":4254:4561   */\n      pop\n      pop\n      pop\n      jump\t// out\n        /* \"#utility.yul\":4567:4887   */\n    tag_39:\n        /* \"#utility.yul\":4611:4617   */\n      0x00\n        /* \"#utility.yul\":4648:4649   */\n      0x02\n        /* \"#utility.yul\":4642:4646   */\n      dup3\n        /* \"#utility.yul\":4638:4650   */\n      div\n        /* \"#utility.yul\":4628:4650   */\n      swap1\n      pop\n        /* \"#utility.yul\":4695:4696   */\n      0x01\n        /* \"#utility.yul\":4689:4693   */\n      dup3\n        /* \"#utility.yul\":4685:4697   */\n      and\n        /* \"#utility.yul\":4716:4734   */\n      dup1\n        /* \"#utility.yul\":4706:4787   */\n      tag_116\n      jumpi\n        /* \"#utility.yul\":4772:4776   */\n      0x7f\n        /* \"#utility.yul\":4764:4770   */\n      dup3\n        /* \"#utility.yul\":4760:4777   */\n      and\n        /* \"#utility.yul\":4750:4777   */\n      swap2\n      pop\n        /* \"#utility.yul\":4706:4787   */\n    tag_116:\n        /* \"#utility.yul\":4834:4836   */\n      0x20\n        /* \"#utility.yul\":4826:4832   */\n      dup3\n        /* \"#utility.yul\":4823:4837   */\n      lt\n        /* \"#utility.yul\":4803:4821   */\n      dup2\n        /* \"#utility.yul\":4800:4838   */\n      eq\n        /* \"#utility.yul\":4797:4881   */\n      iszero\n      tag_117\n      jumpi\n        /* \"#utility.yul\":4853:4871   */\n      tag_118\n      tag_119\n      jump\t// in\n    tag_118:\n        /* \"#utility.yul\":4797:4881   */\n    tag_117:\n        /* \"#utility.yul\":4618:4887   */\n      pop\n        /* \"#utility.yul\":4567:4887   */\n      swap2\n      swap1\n      pop\n      jump\t// out\n        /* \"#utility.yul\":4893:5073   */\n    tag_119:\n        /* \"#utility.yul\":4941:5018   */\n      0x4e487b7100000000000000000000000000000000000000000000000000000000\n        /* \"#utility.yul\":4938:4939   */\n      0x00\n        /* \"#utility.yul\":4931:5019   */\n      mstore\n        /* \"#utility.yul\":5038:5042   */\n      0x22\n        /* \"#utility.yul\":5035:5036   */\n      0x04\n        /* \"#utility.yul\":5028:5043   */\n      mstore\n        /* \"#utility.yul\":5062:5066   */\n      0x24\n        /* \"#utility.yul\":5059:5060   */\n      0x00\n        /* \"#utility.yul\":5052:5067   */\n      revert\n        /* \"#utility.yul\":5202:5319   */\n    tag_56:\n        /* \"#utility.yul\":5311:5312   */\n      0x00\n        /* \"#utility.yul\":5308:5309   */\n      dup1\n        /* \"#utility.yul\":5301:5313   */\n      revert\n        /* \"#utility.yul\":5325:5427   */\n    tag_84:\n        /* \"#utility.yul\":5366:5372   */\n      0x00\n        /* \"#utility.yul\":5417:5419   */\n      0x1f\n        /* \"#utility.yul\":5413:5420   */\n      not\n        /* \"#utility.yul\":5408:5410   */\n      0x1f\n        /* \"#utility.yul\":5401:5406   */\n      dup4\n        /* \"#utility.yul\":5397:5411   */\n      add\n        /* \"#utility.yul\":5393:5421   */\n      and\n        /* \"#utility.yul\":5383:5421   */\n      swap1\n      pop\n        /* \"#utility.yul\":5325:5427   */\n      swap2\n      swap1\n      pop\n      jump\t// out\n        /* \"#utility.yul\":5433:5555   */\n    tag_48:\n        /* \"#utility.yul\":5506:5530   */\n      tag_126\n        /* \"#utility.yul\":5524:5529   */\n      dup2\n        /* \"#utility.yul\":5506:5530   */\n      tag_70\n      jump\t// in\n    tag_126:\n        /* \"#utility.yul\":5499:5504   */\n      dup2\n        /* \"#utility.yul\":5496:5531   */\n      eq\n        /* \"#utility.yul\":5486:5549   */\n      tag_127\n      jumpi\n        /* \"#utility.yul\":5545:5546   */\n      0x00\n        /* \"#utility.yul\":5542:5543   */\n      dup1\n        /* \"#utility.yul\":5535:5547   */\n      revert\n        /* \"#utility.yul\":5486:5549   */\n    tag_127:\n        /* \"#utility.yul\":5433:5555   */\n      pop\n      jump\t// out\n        /* \"#utility.yul\":5561:5683   */\n    tag_52:\n        /* \"#utility.yul\":5634:5658   */\n      tag_129\n        /* \"#utility.yul\":5652:5657   */\n      dup2\n        /* \"#utility.yul\":5634:5658   */\n      tag_88\n      jump\t// in\n    tag_129:\n        /* \"#utility.yul\":5627:5632   */\n      dup2\n        /* \"#utility.yul\":5624:5659   */\n      eq\n        /* \"#utility.yul\":5614:5677   */\n      tag_130\n      jumpi\n        /* \"#utility.yul\":5673:5674   */\n      0x00\n        /* \"#utility.yul\":5670:5671   */\n      dup1\n        /* \"#utility.yul\":5663:5675   */\n      revert\n        /* \"#utility.yul\":5614:5677   */\n    tag_130:\n        /* \"#utility.yul\":5561:5683   */\n      pop\n      jump\t// out\n\n    auxdata: 0xa2646970667358221220d374896cc64f795f2ca7cab3912dfec298c241b2cf4ad03d443ef59b1d7ed19064736f6c63430008070033\n}\n",
				"bytecode": {
					"linkReferences": {},
					"object": "608060405234801561001057600080fd5b506105ff806100206000396000f3fe608060405234801561001057600080fd5b50600436106100575760003560e01c8063025e7c271461005c5780632f54bf6e1461008c5780638253951a146100bc5780639ace38c2146100ec578063dc8452cd1461011f575b600080fd5b6100766004803603810190610071919061031d565b61013d565b60405161008391906103f0565b60405180910390f35b6100a660048036038101906100a191906102f0565b61017c565b6040516100b39190610457565b60405180910390f35b6100d660048036038101906100d1919061034a565b61019c565b6040516100e39190610457565b60405180910390f35b6101066004803603810190610101919061031d565b6101cb565b604051610116949392919061040b565b60405180910390f35b6101276102c0565b6040516101349190610472565b60405180910390f35b6000818154811061014d57600080fd5b906000526020600020016000915054906101000a900473ffffffffffffffffffffffffffffffffffffffff1681565b60016020528060005260406000206000915054906101000a900460ff1681565b60046020528160005260406000206020528060005260406000206000915091509054906101000a900460ff1681565b600381815481106101db57600080fd5b90600052602060002090600402016000915090508060000160009054906101000a900473ffffffffffffffffffffffffffffffffffffffff169080600101549080600201805461022a90610524565b80601f016020809104026020016040519081016040528092919081815260200182805461025690610524565b80156102a35780601f10610278576101008083540402835291602001916102a3565b820191906000526020600020905b81548152906001019060200180831161028657829003601f168201915b5050505050908060030160009054906101000a900460ff16905084565b60025481565b6000813590506102d58161059b565b92915050565b6000813590506102ea816105b2565b92915050565b60006020828403121561030657610305610585565b5b6000610314848285016102c6565b91505092915050565b60006020828403121561033357610332610585565b5b6000610341848285016102db565b91505092915050565b6000806040838503121561036157610360610585565b5b600061036f858286016102db565b9250506020610380858286016102c6565b9150509250929050565b610393816104a9565b82525050565b6103a2816104bb565b82525050565b60006103b38261048d565b6103bd8185610498565b93506103cd8185602086016104f1565b6103d68161058a565b840191505092915050565b6103ea816104e7565b82525050565b6000602082019050610405600083018461038a565b92915050565b6000608082019050610420600083018761038a565b61042d60208301866103e1565b818103604083015261043f81856103a8565b905061044e6060830184610399565b95945050505050565b600060208201905061046c6000830184610399565b92915050565b600060208201905061048760008301846103e1565b92915050565b600081519050919050565b600082825260208201905092915050565b60006104b4826104c7565b9050919050565b60008115159050919050565b600073ffffffffffffffffffffffffffffffffffffffff82169050919050565b6000819050919050565b60005b8381101561050f5780820151818401526020810190506104f4565b8381111561051e576000848401525b50505050565b6000600282049050600182168061053c57607f821691505b602082108114156105505761054f610556565b5b50919050565b7f4e487b7100000000000000000000000000000000000000000000000000000000600052602260045260246000fd5b600080fd5b6000601f19601f8301169050919050565b6105a4816104a9565b81146105af57600080fd5b50565b6105bb816104e7565b81146105c657600080fd5b5056fea2646970667358221220d374896cc64f795f2ca7cab3912dfec298c241b2cf4ad03d443ef59b1d7ed19064736f6c63430008070033",
					"opcodes": "PUSH1 0x80 PUSH1 0x40 MSTORE CALLVALUE DUP1 ISZERO PUSH2 0x10 JUMPI PUSH1 0x0 DUP1 REVERT JUMPDEST POP PUSH2 0x5FF DUP1 PUSH2 0x20 PUSH1 0x0 CODECOPY PUSH1 0x0 RETURN INVALID PUSH1 0x80 PUSH1 0x40 MSTORE CALLVALUE DUP1 ISZERO PUSH2 0x10 JUMPI PUSH1 0x0 DUP1 REVERT JUMPDEST POP PUSH1 0x4 CALLDATASIZE LT PUSH2 0x57 JUMPI PUSH1 0x0 CALLDATALOAD PUSH1 0xE0 SHR DUP1 PUSH4 0x25E7C27 EQ PUSH2 0x5C JUMPI DUP1 PUSH4 0x2F54BF6E EQ PUSH2 0x8C JUMPI DUP1 PUSH4 0x8253951A EQ PUSH2 0xBC JUMPI DUP1 PUSH4 0x9ACE38C2 EQ PUSH2 0xEC JUMPI DUP1 PUSH4 0xDC8452CD EQ PUSH2 0x11F JUMPI JUMPDEST PUSH1 0x0 DUP1 REVERT JUMPDEST PUSH2 0x76 PUSH1 0x4 DUP1 CALLDATASIZE SUB DUP2 ADD SWAP1 PUSH2 0x71 SWAP2 SWAP1 PUSH2 0x31D JUMP JUMPDEST PUSH2 0x13D JUMP JUMPDEST PUSH1 0x40 MLOAD PUSH2 0x83 SWAP2 SWAP1 PUSH2 0x3F0 JUMP JUMPDEST PUSH1 0x40 MLOAD DUP1 SWAP2 SUB SWAP1 RETURN JUMPDEST PUSH2 0xA6 PUSH1 0x4 DUP1 CALLDATASIZE SUB DUP2 ADD SWAP1 PUSH2 0xA1 SWAP2 SWAP1 PUSH2 0x2F0 JUMP JUMPDEST PUSH2 0x17C JUMP JUMPDEST PUSH1 0x40 MLOAD PUSH2 0xB3 SWAP2 SWAP1 PUSH2 0x457 JUMP JUMPDEST PUSH1 0x40 MLOAD DUP1 SWAP2 SUB SWAP1 RETURN JUMPDEST PUSH2 0xD6 PUSH1 0x4 DUP1 CALLDATASIZE SUB DUP2 ADD SWAP1 PUSH2 0xD1 SWAP2 SWAP1 PUSH2 0x34A JUMP JUMPDEST PUSH2 0x19C JUMP JUMPDEST PUSH1 0x40 MLOAD PUSH2 0xE3 SWAP2 SWAP1 PUSH2 0x457 JUMP JUMPDEST PUSH1 0x40 MLOAD DUP1 SWAP2 SUB SWAP1 RETURN JUMPDEST PUSH2 0x106 PUSH1 0x4 DUP1 CALLDATASIZE SUB DUP2 ADD SWAP1 PUSH2 0x101 SWAP2 SWAP1 PUSH2 0x31D JUMP JUMPDEST PUSH2 0x1CB JUMP JUMPDEST PUSH1 0x40 MLOAD PUSH2 0x116 SWAP5 SWAP4 SWAP3 SWAP2 SWAP1 PUSH2 0x40B JUMP JUMPDEST PUSH1 0x40 MLOAD DUP1 SWAP2 SUB SWAP1 RETURN JUMPDEST PUSH2 0x127 PUSH2 0x2C0 JUMP JUMPDEST PUSH1 0x40 MLOAD PUSH2 0x134 SWAP2 SWAP1 PUSH2 0x472 JUMP JUMPDEST PUSH1 0x40 MLOAD DUP1 SWAP2 SUB SWAP1 RETURN JUMPDEST PUSH1 0x0 DUP2 DUP2 SLOAD DUP2 LT PUSH2 0x14D JUMPI PUSH1 0x0 DUP1 REVERT JUMPDEST SWAP1 PUSH1 0x0 MSTORE PUSH1 0x20 PUSH1 0x0 KECCAK256 ADD PUSH1 0x0 SWAP2 POP SLOAD SWAP1 PUSH2 0x100 EXP SWAP1 DIV PUSH20 0xFFFFFFFFFFFFFFFFFFFFFFFFFFFFFFFFFFFFFFFF AND DUP2 JUMP JUMPDEST PUSH1 0x1 PUSH1 0x20 MSTORE DUP1 PUSH1 0x0 MSTORE PUSH1 0x40 PUSH1 0x0 KECCAK256 PUSH1 0x0 SWAP2 POP SLOAD SWAP1 PUSH2 0x100 EXP SWAP1 DIV PUSH1 0xFF AND DUP2 JUMP JUMPDEST PUSH1 0x4 PUSH1 0x20 MSTORE DUP2 PUSH1 0x0 MSTORE PUSH1 0x40 PUSH1 0x0 KECCAK256 PUSH1 0x20 MSTORE DUP1 PUSH1 0x0 MSTORE PUSH1 0x40 PUSH1 0x0 KECCAK256 PUSH1 0x0 SWAP2 POP SWAP2 POP SWAP1 SLOAD SWAP1 PUSH2 0x100 EXP SWAP1 DIV PUSH1 0xFF AND DUP2 JUMP JUMPDEST PUSH1 0x3 DUP2 DUP2 SLOAD DUP2 LT PUSH2 0x1DB JUMPI PUSH1 0x0 DUP1 REVERT JUMPDEST SWAP1 PUSH1 0x0 MSTORE PUSH1 0x20 PUSH1 0x0 KECCAK256 SWAP1 PUSH1 0x4 MUL ADD PUSH1 0x0 SWAP2 POP SWAP1 POP DUP1 PUSH1 0x0 ADD PUSH1 0x0 SWAP1 SLOAD SWAP1 PUSH2 0x100 EXP SWAP1 DIV PUSH20 0xFFFFFFFFFFFFFFFFFFFFFFFFFFFFFFFFFFFFFFFF AND SWAP1 DUP1 PUSH1 0x1 ADD SLOAD SWAP1 DUP1 PUSH1 0x2 ADD DUP1 SLOAD PUSH2 0x22A SWAP1 PUSH2 0x524 JUMP JUMPDEST DUP1 PUSH1 0x1F ADD PUSH1 0x20 DUP1 SWAP2 DIV MUL PUSH1 0x20 ADD PUSH1 0x40 MLOAD SWAP1 DUP2 ADD PUSH1 0x40 MSTORE DUP1 SWAP3 SWAP2 SWAP1 DUP2 DUP2 MSTORE PUSH1 0x20 ADD DUP3 DUP1 SLOAD PUSH2 0x256 SWAP1 PUSH2 0x524 JUMP JUMPDEST DUP1 ISZERO PUSH2 0x2A3 JUMPI DUP1 PUSH1 0x1F LT PUSH2 0x278 JUMPI PUSH2 0x100 DUP1 DUP4 SLOAD DIV MUL DUP4 MSTORE SWAP2 PUSH1 0x20 ADD SWAP2 PUSH2 0x2A3 JUMP JUMPDEST DUP3 ADD SWAP2 SWAP1 PUSH1 0x0 MSTORE PUSH1 0x20 PUSH1 0x0 KECCAK256 SWAP1 JUMPDEST DUP2 SLOAD DUP2 MSTORE SWAP1 PUSH1 0x1 ADD SWAP1 PUSH1 0x20 ADD DUP1 DUP4 GT PUSH2 0x286 JUMPI DUP3 SWAP1 SUB PUSH1 0x1F AND DUP3 ADD SWAP2 JUMPDEST POP POP POP POP POP SWAP1 DUP1 PUSH1 0x3 ADD PUSH1 0x0 SWAP1 SLOAD SWAP1 PUSH2 0x100 EXP SWAP1 DIV PUSH1 0xFF AND SWAP1 POP DUP5 JUMP JUMPDEST PUSH1 0x2 SLOAD DUP2 JUMP JUMPDEST PUSH1 0x0 DUP2 CALLDATALOAD SWAP1 POP PUSH2 0x2D5 DUP2 PUSH2 0x59B JUMP JUMPDEST SWAP3 SWAP2 POP POP JUMP JUMPDEST PUSH1 0x0 DUP2 CALLDATALOAD SWAP1 POP PUSH2 0x2EA DUP2 PUSH2 0x5B2 JUMP JUMPDEST SWAP3 SWAP2 POP POP JUMP JUMPDEST PUSH1 0x0 PUSH1 0x20 DUP3 DUP5 SUB SLT ISZERO PUSH2 0x306 JUMPI PUSH2 0x305 PUSH2 0x585 JUMP JUMPDEST JUMPDEST PUSH1 0x0 PUSH2 0x314 DUP5 DUP3 DUP6 ADD PUSH2 0x2C6 JUMP JUMPDEST SWAP2 POP POP SWAP3 SWAP2 POP POP JUMP JUMPDEST PUSH1 0x0 PUSH1 0x20 DUP3 DUP5 SUB SLT ISZERO PUSH2 0x333 JUMPI PUSH2 0x332 PUSH2 0x585 JUMP JUMPDEST JUMPDEST PUSH1 0x0 PUSH2 0x341 DUP5 DUP3 DUP6 ADD PUSH2 0x2DB JUMP JUMPDEST SWAP2 POP POP SWAP3 SWAP2 POP POP JUMP JUMPDEST PUSH1 0x0 DUP1 PUSH1 0x40 DUP4 DUP6 SUB SLT ISZERO PUSH2 0x361 JUMPI PUSH2 0x360 PUSH2 0x585 JUMP JUMPDEST JUMPDEST PUSH1 0x0 PUSH2 0x36F DUP6 DUP3 DUP7 ADD PUSH2 0x2DB JUMP JUMPDEST SWAP3 POP POP PUSH1 0x20 PUSH2 0x380 DUP6 DUP3 DUP7 ADD PUSH2 0x2C6 JUMP JUMPDEST SWAP2 POP POP SWAP3 POP SWAP3 SWAP1 POP JUMP JUMPDEST PUSH2 0x393 DUP2 PUSH2 0x4A9 JUMP JUMPDEST DUP3 MSTORE POP POP JUMP JUMPDEST PUSH2 0x3A2 DUP2 PUSH2 0x4BB JUMP JUMPDEST DUP3 MSTORE POP POP JUMP JUMPDEST PUSH1 0x0 PUSH2 0x3B3 DUP3 PUSH2 0x48D JUMP JUMPDEST PUSH2 0x3BD DUP2 DUP6 PUSH2 0x498 JUMP JUMPDEST SWAP4 POP PUSH2 0x3CD DUP2 DUP6 PUSH1 0x20 DUP7 ADD PUSH2 0x4F1 JUMP JUMPDEST PUSH2 0x3D6 DUP2 PUSH2 0x58A JUMP JUMPDEST DUP5 ADD SWAP2 POP POP SWAP3 SWAP2 POP POP JUMP JUMPDEST PUSH2 0x3EA DUP2 PUSH2 0x4E7 JUMP JUMPDEST DUP3 MSTORE POP POP JUMP JUMPDEST PUSH1 0x0 PUSH1 0x20 DUP3 ADD SWAP1 POP PUSH2 0x405 PUSH1 0x0 DUP4 ADD DUP5 PUSH2 0x38A JUMP JUMPDEST SWAP3 SWAP2 POP POP JUMP JUMPDEST PUSH1 0x0 PUSH1 0x80 DUP3 ADD SWAP1 POP PUSH2 0x420 PUSH1 0x0 DUP4 ADD DUP8 PUSH2 0x38A JUMP JUMPDEST PUSH2 0x42D PUSH1 0x20 DUP4 ADD DUP7 PUSH2 0x3E1 JUMP JUMPDEST DUP2 DUP2 SUB PUSH1 0x40 DUP4 ADD MSTORE PUSH2 0x43F DUP2 DUP6 PUSH2 0x3A8 JUMP JUMPDEST SWAP1 POP PUSH2 0x44E PUSH1 0x60 DUP4 ADD DUP5 PUSH2 0x399 JUMP JUMPDEST SWAP6 SWAP5 POP POP POP POP POP JUMP JUMPDEST PUSH1 0x0 PUSH1 0x20 DUP3 ADD SWAP1 POP PUSH2 0x46C PUSH1 0x0 DUP4 ADD DUP5 PUSH2 0x399 JUMP JUMPDEST SWAP3 SWAP2 POP POP JUMP JUMPDEST PUSH1 0x0 PUSH1 0x20 DUP3 ADD SWAP1 POP PUSH2 0x487 PUSH1 0x0 DUP4 ADD DUP5 PUSH2 0x3E1 JUMP JUMPDEST SWAP3 SWAP2 POP POP JUMP JUMPDEST PUSH1 0x0 DUP2 MLOAD SWAP1 POP SWAP2 SWAP1 POP JUMP JUMPDEST PUSH1 0x0 DUP3 DUP3 MSTORE PUSH1 0x20 DUP3 ADD SWAP1 POP SWAP3 SWAP2 POP POP JUMP JUMPDEST PUSH1 0x0 PUSH2 0x4B4 DUP3 PUSH2 0x4C7 JUMP JUMPDEST SWAP1 POP SWAP2 SWAP1 POP JUMP JUMPDEST PUSH1 0x0 DUP2 ISZERO ISZERO SWAP1 POP SWAP2 SWAP1 POP JUMP JUMPDEST PUSH1 0x0 PUSH20 0xFFFFFFFFFFFFFFFFFFFFFFFFFFFFFFFFFFFFFFFF DUP3 AND SWAP1 POP SWAP2 SWAP1 POP JUMP JUMPDEST PUSH1 0x0 DUP2 SWAP1 POP SWAP2 SWAP1 POP JUMP JUMPDEST PUSH1 0x0 JUMPDEST DUP4 DUP2 LT ISZERO PUSH2 0x50F JUMPI DUP1 DUP3 ADD MLOAD DUP2 DUP5 ADD MSTORE PUSH1 0x20 DUP2 ADD SWAP1 POP PUSH2 0x4F4 JUMP JUMPDEST DUP4 DUP2 GT ISZERO PUSH2 0x51E JUMPI PUSH1 0x0 DUP5 DUP5 ADD MSTORE JUMPDEST POP POP POP POP JUMP JUMPDEST PUSH1 0x0 PUSH1 0x2 DUP3 DIV SWAP1 POP PUSH1 0x1 DUP3 AND DUP1 PUSH2 0x53C JUMPI PUSH1 0x7F DUP3 AND SWAP2 POP JUMPDEST PUSH1 0x20 DUP3 LT DUP2 EQ ISZERO PUSH2 0x550 JUMPI PUSH2 0x54F PUSH2 0x556 JUMP JUMPDEST JUMPDEST POP SWAP2 SWAP1 POP JUMP JUMPDEST PUSH32 0x4E487B7100000000000000000000000000000000000000000000000000000000 PUSH1 0x0 MSTORE PUSH1 0x22 PUSH1 0x4 MSTORE PUSH1 0x24 PUSH1 0x0 REVERT JUMPDEST PUSH1 0x0 DUP1 REVERT JUMPDEST PUSH1 0x0 PUSH1 0x1F NOT PUSH1 0x1F DUP4 ADD AND SWAP1 POP SWAP2 SWAP1 POP JUMP JUMPDEST PUSH2 0x5A4 DUP2 PUSH2 0x4A9 JUMP JUMPDEST DUP2 EQ PUSH2 0x5AF JUMPI PUSH1 0x0 DUP1 REVERT JUMPDEST POP JUMP JUMPDEST PUSH2 0x5BB DUP2 PUSH2 0x4E7 JUMP JUMPDEST DUP2 EQ PUSH2 0x5C6 JUMPI PUSH1 0x0 DUP1 REVERT JUMPDEST POP JUMP INVALID LOG2 PUSH5 0x6970667358 0x22 SLT KECCAK256 0xD3 PUSH21 0x896CC64F795F2CA7CAB3912DFEC298C241B2CF4AD0 RETURNDATASIZE DIFFICULTY RETURNDATACOPY CREATE2 SWAP12 SAR PUSH31 0xD19064736F6C63430008070033000000000000000000000000000000000000 "
				},
				"gasEstimates": {
					"creation": {
						"codeDepositCost": "307000",
						"executionCost": "343",
						"totalCost": "307343"
					},
					"external": {
						"approved(uint256,address)": "3109",
						"isOwner(address)": "2845",
						"owners(uint256)": "4934",
						"required()": "2495",
						"transactions(uint256)": "infinite"
					}
				},
				"methodIdentifiers": {
					"approved(uint256,address)": "8253951a",
					"isOwner(address)": "2f54bf6e",
					"owners(uint256)": "025e7c27",
					"required()": "dc8452cd",
					"transactions(uint256)": "9ace38c2"
				}
			},
			"userdoc": {
				"kind": "user",
				"methods": {},
				"version": 1
			}
		}
	}
}